:0300000002316367
:03000B00023A971F
:100013000237FA75BA8090FE0374C0F090FE03E0D5
:10002300FFEF20E00543C11080F290FE01E4F09061
:09003300FE007401F075BA002210
:10004300023490900419EFF0C2B5C295900419E000
:07005300FF12388ED2B52226
:10005B000237AF900013E0FF90011CEFF0900016F9
:10006B00E0FF90011AEFF0900018E0FF90011BEFFA
:10007B00F0900013E0FFEFB480079001197401F0CA
:10008B00229001197402F0220235AD9003CBE4F0FB
:10009B00A3E4F09003CDE4F09003CEE4F090012ABA
:1000AB00E0FFEF7003020922900405E0FFEF64010B
:1000BB00600302031B900405E4F0900001E0FFEFE6
:1000CB00640160030201C39002E3E0FFEF6401608F
:1000DB00030201709002E2E0FF74E42FF582E43436
:1000EB0002F583E0FF9003CAEFF090012CE0FFC311
:1000FB0074649FFF9003CAE0FEEEC39F500D900106
:10010B002CE0FF9003CAE02FF080069003CA7464C2
:10011B00F090012BE4F090012CE0FFEFC3940A5018
:10012B000690012CE004F09003CAE0FF9002E2E09D
:10013B00FE74E42EF582E43402F583EFF09002E0D6
:10014B00E4F09002E2E0FF9003CAE0FD7B01121F96
:10015B008E9002E2E0FFEF2413FF9003CAE0FD1242
:10016B003B7902058D90012DE4F09002E2E0FF90C7
:10017B0003CAEFF09003CAE0FF7D0012269C9002A9
:10018B00F0E0FF9003CAE0FEEEC39F50089003CA55
:10019B00E004F080069003CA7401F09003CAE0FFFC
:1001AB009002E2EFF09003CAE0FF7D0112269C90D3
:1001BB00012F7401F002058D900001E0FFEFB402F6
:1001CB00279002F0E0FFEFC3940450069002F0E09A
:1001DB0004F0900001E0FF9002F0E0FD122D8B90F7
:1001EB0002E27401F002058D900001E0FFEF640361
:1001FB00706B9002EEE0FF9003CAEFF090012CE0E1
:10020B00FFC374FF9FFF9003CAE0FEEEC39F500D28
:10021B0090012CE0FF9003CAE02FF080069003CAF8
:10022B0074FFF09003CAE0FF9002EEEFF090012B09
:10023B00E4F090012CE0FFEFC3940A500690012CE0
:10024B00E004F0900001E0FF9003CAE0FD122D8B5B
:10025B009003CAE0FD7F1D123B7902058D900001D2
:10026B00E0FFEFD3940350030202F7900001E0FF8D
:10027B00EFD394075076900001E0FF74E62FF582E0
:10028B00E43402F583E0FF9003CAEFF09003CAE079
:10029B00FFEFC394FE50089003CAE004F080069071
:1002AB0003CA74FFF09003CAE0FF900001E0FE74F4
:1002BB00E62EF582E43402F583EFF0900001E0FFC7
:1002CB009003CAE0FD122D8B900001E0FFEF241587
:1002DB00FF9003CAE0FD123B79900001E0FFEF2491
:1002EB00FDFD7B017F1112391B02058D900001E092
:1002FB00FFEF6408600302058D9002EF7401F07D3F
:10030B00017F02122D8B7D017F1E123B7902058D21
:10031B00900405E0FFEF64FF600302058D90040578
:10032B00E4F0900001E0FFEF6401600302042E9003
:10033B0002E3E0FFEF640160030203DB9002E2E003
:10034B00FF74E42FF582E43402F583E0FF9003CAD7
:10035B00EFF090012CE0FF9003CAE0FEEED39F403C
:10036B00159003CAE0FF90012CE0FEC3EF9EFF90B7
:10037B0003CAEFF080069003CA7401F090012BE4DE
:10038B00F090012CE0FFEFC3940A500690012CE093
:10039B0004F09003CAE0FF9002E2E0FE74E42EF555
:1003AB0082E43402F583EFF09002E0E4F09002E295
:1003BB00E0FF9003CAE0FD7B01121F8E9002E2E08A
:1003CB00FFEF2413FF9003CAE0FD123B7902058D6A
:1003DB0090012DE4F09002E2E0FF9003CAEFF09061
:1003EB0003CAE0FF7D0012269C9003CAE0FFEFD307
:1003FB00940140089003CAE014F0800A9002F0E0E8
:10040B00FF9003CAEFF09003CAE0FF9002E2EFF017
:10041B009003CAE0FF7D0112269C90012F7401F01E
:10042B0002058D900001E0FFEFB402219002F0E095
:10043B00FFEFD3940140069002F0E014F09000011E
:10044B00E0FF9002F0E0FD122D8B02058D90000174
:10045B00E0FFEF640360030204E79002EEE0FF901D
:10046B0003CAEFF090012CE0FF7E00EF2401FFEEBA
:10047B003400FE9003CAE0FD7C00D3ED9FEE648058
:10048B00F8EC64809840159003CAE0FF90012CE0D3
:10049B00FEC3EF9EFF9003CAEFF080069003CA7471
:1004AB0001F09003CAE0FF9002EEEFF090012BE415
:1004BB00F090012CE0FFEFC3940A500690012CE062
:1004CB0004F0900001E0FF9003CAE0FD122D8B9029
:1004DB0003CAE0FD7F1D123B7902058D900001E000
:1004EB00FFEFD39403407F900001E0FFEFD394071D
:1004FB005074900001E0FF74E62FF582E43402F5AE
:10050B0083E0FF9003CAEFF09003CAE0FFEFD394B0
:10051B000040089003CAE014F080059003CAE4F091
:10052B009003CAE0FF900001E0FE74E62EF582E432
:10053B003402F583EFF0900001E0FF9003CAE0FD79
:10054B00122D8B900001E0FFEF2415FF9003CAE002
:10055B00FD123B79900001E0FFEF24FDFD7B017F55
:10056B001112391B801C900001E0FFEFB4081390AF
:10057B0002EFE4F07D007F02122D8B7D007F1E12B7
:10058B003B7930B20302065B7F057E00123BE13004
:10059B00B20302065B123D35900001E0FFEF6401F0
:1005AB0070259002E3E0FFEF60077F00123A5C805A
:1005BB00057F01123A5C9002E2E0FD9002E3E0FB62
:1005CB007F1112391B8075900001E0FFEFC394027D
:1005DB00406A900001E004F0900001E0FFEFB403EB
:1005EB000F122FA29002EEE0FD7F1D123B79804C83
:1005FB00900001E0FFEFD394075015122FA290004B
:10060B0001E0FFEF24FDFD7B017F1112391B802CD4
:10061B00900001E0FFEFB4080512370D801E90002B
:10062B00017401F0120FAB90011F7401F09002E204
:10063B00E0FD9002E3E0FB7F1112391B20B2114366
:10064B00C11020B2F77F057E00123BE180F480ECF5
:10065B00E5B05488FFEFB48805900405E4F030A6AC
:10066B00030207377F057E00123BE130A60302072A
:10067B0037123D35900001E0FFEF640170489002A6
:10068B00E2E0FFEF640170259002E3E0FFEF60070B
:10069B007F00123A5C80057F01123A5C9002E2E027
:1006AB00FD9002E3E0FB7F1112391B80197F0112D1
:1006BB0036B87F01123A5C9002E2E0FD9002E3E073
:1006CB00FB7F1112391B20A66343C11020A6F72014
:1006DB00814F9003CAE4F09003CAE0FFEFC3946428
:1006EB0050177F1E7E00123BE120A60D3081028049
:1006FB00089003CAE004F080DE20A60920810612D0
:10070B0027BD123D3530A6032081C143C11030A651
:10071B00032081F17F057E00123BE180F180E680B2
:10072B00AB7F057E00123BE180A2809A20A77E7FE3
:10073B00057E00123BE120A774123D35900001E0CD
:10074B00FFEF640170539002E2E0FFEF640270254B
:10075B009002E3E0FFEF60077F00123A5C80057FB9
:10076B0001123A5C9002E2E0FD9002E3E0FB7F11A4
:10077B0012391B80249002F0E0FFEFD39401401953
:10078B007F021236B87F01123A5C9002E2E0FD90D4
:10079B0002E3E0FB7F1112391B20A71143C110208C
:1007AB00A7F77F057E00123BE180F480EC20807E72
:1007BB007F057E00123BE1208074123D35900001D5
:1007CB00E0FFEF640170539002E2E0FFEF6403700F
:1007DB00259002E3E0FFEF60077F00123A5C800593
:1007EB007F01123A5C9002E2E0FD9002E3E0FB7FB6
:1007FB001112391B80249002F0E0FFEFD3940240DA
:10080B00197F031236B87F01123A5C9002E2E0FDC9
:10081B009002E3E0FB7F1112391B20801143C110C2
:10082B002080F77F057E00123BE180F480EC308165
:10083B00030209127F057E00123BE130810302099E
:10084B0012123D35900001E0FFEF640170539002EE
:10085B00E2E0FFEF640470259002E3E0FFEF600736
:10086B007F00123A5C80057F01123A5C9002E2E055
:10087B00FD9002E3E0FB7F1112391B80249002F004
:10088B00E0FFEFD3940340197F041236B87F0112B7
:10089B003A5C9002E2E0FD9002E3E0FB7F1112393B
:1008AB001B20816343C1102081F720A64F9003CA00
:1008BB00E4F09003CAE0FFEFC3946450177F1E7EF1
:1008CB0000123BE120A60D30810280089003CAE0A4
:1008DB0004F080DE20A6092081061227BD123D35CB
:1008EB0030A6032081C143C11030A6032081F17FC4
:1008FB00057E00123BE180F180E680AB7F057E0038
:10090B00123BE180A2809A900119E0FFEF60089002
:10091B000119E4F01209232290011CE0FFEF64801F
:10092B006003020BD690011AE0FFEF641070779012
:10093B00011BE0FFEF700890011B7401F080119018
:10094B00011BE0FFEFD39404400690011B7404F0ED
:10095B0090011BE0FF9002F0E0FEEE6F7003020CC3
:10096B009390011BE0FF9002F0EFF090011F7401D8
:10097B00F09002E27401F09002E2E0FD9002E3E0FD
:10098B00FB7F1112391B900001E0FFEFB401051240
:10099B000FAB800A9002F0E0FD7F02122D8B9002CC
:1009AB00E0E4F0020C9390011AE0FFEF6411706623
:1009BB0090011BE0FFEF700890011B7401F0801198
:1009CB0090011BE0FFEFD39404400690011B7404CD
:1009DB00F090011BE0FF9002E2E0FEEE6F7003026D
:1009EB000C93900001E0FFEFB4010A90011BE0FFB4
:1009FB001236B8800A90011BE0FF9002E2EFF090F4
:100A0B0002E2E0FD9002E3E0FB7F1112391B900242
:100A1B00E0E4F0020C9390011AE0FFEF64127051C6
:100A2B0090011BE0FFEFD39401400690011B740172
:100A3B00F090011BE0FF9002E3E0FEEE6F7003020B
:100A4B000C93900001E0FFEFB4010A90011BE0FF53
:100A5B00123A5C800A90011BE0FF9002E3EFF090EA
:100A6B0002E3E0FD7F12123B799002E0E4F0020C0E
:100A7B009390011AE0FFEFC394145003020B0D90F7
:100A8B00011AE0FFEFD39417507890011BE0FFEFB2
:100A9B00D39464400690011B7464F090011AE0FF3C
:100AAB0074D12FF582E43402F583E0FF90011BE053
:100ABB00FEEF6E7003020C9390011BE0FF90011A86
:100ACB00E0FE74D12EF582E43402F583EFF0900052
:100ADB0001E0FFEFB4011690011AE0FFEF24EDFFE8
:100AEB0090011BE0FD9002E3E0FB121F8E90011AB8
:100AFB00E0FF90011BE0FD123B799002E0E4F00275
:100B0B000C9390011AE0FFEFC39419406F90011AF8
:100B1B00E0FFEFD3941C506490011AE0FF74D12FC7
:100B2B00F582E43402F583E0FF90011BE0FEEF6EEB
:100B3B007003020C9390011BE0FF90011AE0FE740E
:100B4B00D12EF582E43402F583EFF0900001E0FF43
:100B5B00EFD39401401190011AE0FFEF24EBFF90CB
:100B6B00011BE0FD122D8B90011AE0FF90011BE0A1
:100B7B00FD123B799002E0E4F0020C9390011AE035
:100B8B00FFEF641D6003020C9390011BE0FF9002CA
:100B9B00EEE0FEEE6F7003020C9390011BE0FF90F2
:100BAB0002EEEFF0900001E0FFEFD39401400A90CA
:100BBB0002EEE0FD7F03122D8B90011BE0FD7F1DEC
:100BCB00123B799002E0E4F0020C93900013E0FFEB
:100BDB00EF64816003020C9390011AE0FFEFB410F5
:100BEB000D9002F0E0FF90011BEFF0020C939001CF
:100BFB001AE0FFEFB4110D9002E2E0FF90011BEF42
:100C0B00F0020C9390011AE0FFEFB4120C9002E388
:100C1B00E0FF90011BEFF0806F90011AE0FFEFC334
:100C2B009414402390011AE0FFEFD39417501890BF
:100C3B00011AE0FF74D12FF582E43402F583E0FF53
:100C4B0090011BEFF0804190011AE0FFEFC3941964
:100C5B00402390011AE0FFEFD3941C501890011A17
:100C6B00E0FF74D12FF582E43402F583E0FF9001AD
:100C7B001BEFF0801390011AE0FFEFB41D0A9002F6
:100C8B00EEE0FF90011BEFF090011AE0FF90011BCB
:100C9B00E0FD122A952290033D12195B900340123E
:100CAB001915900346E4F0900347E4F0900348E4F1
:100CBB00F0900349E4F090034AE4F09003401218DB
:100CCB00FDEF54FFFFEE5400FEED5400FDEC54001D
:100CDB00FC900348EFF0900348E0FFEFF404FF9023
:100CEB000349EFF0900344E0FEA3E0FFEEFF7E002C
:100CFB00900346EFF0900344E0FEA3E0FF7E0090EC
:100D0B000347EFF0900348E0FFEF6003020DC49040
:100D1B000346E0FFEF702C90033D121952C003C045
:100D2B0002C0019003401218FD900344E0FAA3E0C7
:100D3B00FB900373EAF0A3EBF0D001D002D00312C7
:100D4B002E4122900346E0FF14F0EF604190033DEB
:100D5B001219529003401218FD9003737401F0A303
:100D6B00E4F0122E419003401218FDEF2400FFEE29
:100D7B003401FEED3400FDEC3400FC9003401219FD
:100D8B001590033E740175F0001217B280B59003F5
:100D9B003D121952C003C002C0019003401218FD4E
:100DAB00900347E0FB7A00900373EAF0A3EBF0D0DB
:100DBB0001D002D003122E4122900346E0FFEF60D8
:100DCB0003020E9D900349E0FF900347E0FEEED334
:100DDB009F5003020E71900349E0FF900347E0FE22
:100DEB00C3EE9FFF90034AEFF090033D121952C0E0
:100DFB0003C002C0019003401218FD900349E0FBB1
:100E0B007A00900373EAF0A3EBF0D001D002D00389
:100E1B00122E41900340121909900349E0FFE4FCA4
:100E2B00FDFE1217DE900340121915900349E0FFE7
:100E3B007E0090033EEE8FF01217B290033D121915
:100E4B0052C003C002C0019003401218FD90034A28
:100E5B00E0FB7A00900373EAF0A3EBF0D001D00231
:100E6B00D003122E412290033D121952C003C0022F
:100E7B00C0019003401218FD900344E0FAA3E0FB7D
:100E8B00900373EAF0A3EBF0D001D002D003122E43
:100E9B004122900344E0FEA3E0FF900349E0FD7C78
:100EAB0000C3EF9DFFEE9CFE900344EEF0A3EFF02A
:100EBB00900344E0FEA3E0FFEEFF7E00900346EFBD
:100ECB00F0900344E0FEA3E0FF7E00900347EFF0B9
:100EDB0090033D121952C003C002C001900340128F
:100EEB0018FD900349E0FB7A00900373EAF0A3EB43
:100EFB00F0D001D002D003122E41900340121909F9
:100F0B00900349E0FFE4FCFDFE1217DE9003401254
:100F1B001915900349E0FF7E0090033EEE8FF0120F
:100F2B0017B2900346E0FF14F0EF604190033D12BF
:100F3B0019529003401218FD9003737401F0A3E44F
:100F4B00F0122E419003401218FDEF2400FFEE34F7
:100F5B0001FEED3400FDEC3400FC9003401219153A
:100F6B0090033E740175F0001217B280B5900347E1
:100F7B00E0FFEF602A90033D121952C003C002C07C
:100F8B00019003401218FD900347E0FB7A00900399
:100F9B0073EAF0A3EBF0D001D002D003122E412262
:100FAB009003B47414F09003B57466F09003B774A7
:100FBB0004F09002F0E0FF74808FF084FF9003B890
:100FCB00EFF09003B9E4F07F187EC6123551900311
:100FDB00B4E0FF9003B8E0FEC3EE9FFFEFC313FF37
:100FEB009003B6EFF09003B6E0FF7E00C006C0079B
:100FFB009003B7E0FFEFFD7C00C004C0059003B485
:10100B00E0FF7E009003B6E0FD7C00ED2FFBEC3E95
:10101B00FA9003B7E0FF7E009003B5E0FD7C00ED96
:10102B002FFFEC3EFE90035EEEF0A3EFF09003601B
:10103B0074A2F0A37454F0D005D004D007D00612DC
:10104B0025779002E2E0FFEFB401119002E3E0FF9D
:10105B00EFB401089003B97401F080059003B9E473
:10106B00F09002E5E0FD9003B9E0FB7F01121F8ECB
:10107B009002F0E0FFEFC3940250030212149003AE
:10108B00B8E0FF9003B6E02FF09003B6E0FF7E00D0
:10109B009003B4E0FD7C009003B6E0FB7A00EB2DEF
:1010AB00FBEA3CFA9003B5E0FD7C00ED2404FDEC7B
:1010BB003400FC90035EECF0A3EDF0900360E4F0E1
:1010CB00A3741FF07D047C001225779002E2E0FFF1
:1010DB00EFB402119002E3E0FFEFB401089003B903
:1010EB007401F080059003B9E4F09002E6E0FD9006
:1010FB0003B9E0FB7F02121F8E9002F0E0FFEFC3FB
:10110B00940350030212149003B8E0FF9003B6E06F
:10111B002FF09003B6E0FF7E009003B4E0FD7C005F
:10112B009003B6E0FB7A00EB2DFBEA3CFA9003B59B
:10113B00E0FD7C00ED2404FDEC3400FC90035EEC40
:10114B00F0A3EDF09003607407F0A374E0F07D045E
:10115B007C001225779002E2E0FFEFB403119002BE
:10116B00E3E0FFEFB401089003B97401F080059040
:10117B0003B9E4F09002E7E0FD9003B9E0FB7F03D5
:10118B00121F8E9002F0E0FFEFC39404407B90039C
:10119B00B8E0FF9003B6E02FF09003B6E0FF7E00BF
:1011AB009003B4E0FD7C009003B6E0FB7A00EB2DDE
:1011BB00FBEA3CFA9003B5E0FD7C00ED2404FDEC6A
:1011CB003400FC90035EECF0A3EDF090036074F838
:1011DB00F0A3E4F07D047C001225779002E2E0FF9F
:1011EB00EFB404119002E3E0FFEFB401089003B9F0
:1011FB007401F080059003B9E4F09002E8E0FD90F3
:10120B0003B9E0FB7F04121F8E9002E2E0FFEFB404
:10121B0001097D017F0112269C80349002E2E0FFE0
:10122B00EFB402097D017F0212269C80229002E21C
:10123B00E0FFEFB403097D017F0312269C80109021
:10124B0002E2E0FFEFB404077D017F0412269C90BD
:10125B0000017401F02290029DEEF0A3EFF09002DA
:10126B009FECF0A3EDF09002A1EAF0A3EBF090025B
:10127B00A9E4F0A3E4F09002ABE4F0A3E4F0900255
:10128B009DE0FEA3E0FF9002A1E0FCA3E0FDC3ED17
:10129B009FFFEC9EFE9002ADEEF0A3EFF090029F4D
:1012AB00E0FEA3E0FF9002A3E0FCA3E0FDC3ED9FF3
:1012BB00FFEC9EFE9002AFEEF0A3EFF090029DE0EC
:1012CB00FEA3E0FF9002B7EEF0A3EFF090029FE0D9
:1012DB00FEA3E0FF9002B9EEF0A3EFF09002ADE0B9
:1012EB00FEA3E0FFD3EF9400EE64809480400B905C
:1012FB0002B3E4F0A37401F080379002ADE0FEA3DB
:10130B00E0FFEF4E700A9002B3E4F0A3E4F080210B
:10131B009002B374FFF0A374FFF09002ADE0FEA354
:10132B00E0FFC3E49FFFE49EFE9002ADEEF0A3EF5F
:10133B00F09002AFE0FEA3E0FFD3EF9400EE6480E9
:10134B009480400B9002B5E4F0A37401F0803790C9
:10135B0002AFE0FEA3E0FFEF4E700A9002B5E4F09F
:10136B00A3E4F080219002B574FFF0A374FFF0901A
:10137B0002AFE0FEA3E0FFC3E49FFFE49EFE9002FA
:10138B00AFEEF0A3EFF09002AFE0FEA3E0FF900210
:10139B00ADE0FCA3E0FDD3ED9FEE6480F8EC648040
:1013AB009840129002ADE0FEA3E0FF9002B1EEF088
:1013BB00A3EFF080109002AFE0FEA3E0FF9002B12C
:1013CB00EEF0A3EFF09002A7E4F0A3E4F09002B1EB
:1013DB00E0FEA3E0FFEF2401FFEE3400FE9002A736
:1013EB00E0FCA3E0FDD3ED9FEC9E40030214DE90E6
:1013FB0002B7E0FEA3E0FF9002B9E0FCA3E0FD9092
:10140B0002A5E0FAA3E0FB1234F29002ADE0FEA3DA
:10141B00E0FF9002A9EE8FF01217B29002AFE0FE40
:10142B00A3E0FF9002ABEE8FF01217B29002B1E087
:10143B00FEA3E0FF9002A9E0FCA3E0FDD3ED9FEE3D
:10144B006480F8EC64809840309002A9E0FEA3E041
:10145B00FF9002B1E0FCA3E0FDC3EF9DFFEE9CFE0D
:10146B009002A9EEF0A3EFF09002B3E0FEA3E0FF31
:10147B009002B7EE8FF01217B29002B1E0FEA3E02C
:10148B00FF9002ABE0FCA3E0FDD3ED9FEE6480F890
:10149B00EC64809840309002ABE0FEA3E0FF90023A
:1014AB00B1E0FCA3E0FDC3EF9DFFEE9CFE9002AB11
:1014BB00EEF0A3EFF09002B5E0FEA3E0FF9002B9CF
:1014CB00EE8FF01217B29002A7E475F0011217B26B
:1014DB000213D822900130EFF0900131EDF07B0137
:1014EB007A02793F9001321218FD90037CE4F0A34D
:1014FB007408F012303B900241E0FFEFD394804030
:10150B0003021747900243E0FFEFD3948040012280
:10151B009001321218FDEF2408FFEE3400FEED347B
:10152B0000FDEC3400FC900132121915900243E0DF
:10153B00FF900241E0FEEE8FF0A4FFAEF0EF25E04E
:10154B00FFEE33FE900239EEF0A3EFF0900130E0A6
:10155B00FF7E00C006C007900131E0FFEFFD7C006D
:10156B00C004C005900241E0FF7E00900130E0FD19
:10157B007C00ED2FFFEC3EFEEF24FFFBEE34FFFA79
:10158B00900243E0FF7E00900131E0FD7C00ED2FE7
:10159B00FFEC3EFEEF24FFFFEE34FFFE900394EED4
:1015AB00F0A3EFF0D005D004D007D0061233C490CF
:1015BB000239E0FEA3E0FFD3EF9400EE940050035A
:1015CB00021747900239E0FEA3E0FFD3EF9400EE41
:1015DB009401500302166E9001321218FDEF54FF66
:1015EB00FFEE5400FEED5400FDEC5400FCC3E49FF1
:1015FB00FF74019EFE90023DEEF0A3EFF07B017AAB
:10160B00017936C003C002C0019001321218FD905F
:10161B00023DE0FAA3E0FB90037CEAF0A3EBF0D0F1
:10162B0001D002D00312303B900132121909900203
:10163B003DE0FEA3E0FFE4FCFD1217DE9001321249
:10164B001915900239E0FEA3E0FF90023DE0FCA3E8
:10165B00E0FDC3EF9DFFEE9CFE900239EEF0A3EF91
:10166B00F08043900239E0FEA3E0FF90023DEEF0E4
:10167B00A3EFF07B017A017936C003C002C0019061
:10168B0001321218FD900239E0FAA3E0FB90037CC3
:10169B00EAF0A3EBF0D001D002D00312303B900262
:1016AB0039E4F0A3E4F07B017A017936900236122B
:1016BB00195B90023DE0FEA3E0FFD3EF9400EE94A4
:1016CB000050030215BA9002361219527582017539
:1016DB008300121761FF7E0090023BEEF0A3EFF048
:1016EB0090023BE0FEA3E0FFEF7F00FE90023BEE9B
:1016FB00F0A3EFF090023BE0FEA3E0FF9002361266
:10170B001952121748FD7C00EE4CFEEF4DFF900274
:10171B003BEEF0A3EFF090023BE0FEA3E0FF123CA8
:10172B000F900237E475F0021217B290023D74FF6E
:10173B0075F0FE1217B20216BD0215BA22BB0106D6
:10174B0089828A83E0225002E722BBFE02E32289D0
:10175B00828A83E49322BB010CE58229F582E5831F
:10176B003AF583E0225006E92582F8E622BBFE0615
:10177B00E92582F8E222E58229F582E5833AF583B1
:10178B00E49322BB010689828A83F0225002F7225E
:10179B00BBFE01F322EF8DF0A4A8F0CF8CF0A428B0
:1017AB00CE8DF0A42EFE22C5F0F8A3E028F0C5F0F4
:1017BB00F8E582158270021583E038F022A3F8E079
:1017CB00C5F025F0F0E582158270021583E0C8386C
:1017DB00F0E822EF2BFFEE3AFEED39FDEC38FC2260
:1017EB0075F008758200EF2FFFEE33FECD33CDCCB5
:1017FB0033CCC58233C5829BED9AEC99E582984038
:10180B000CF582EE9BFEED9AFDEC99FC0FD5F0D614
:10181B00E4CEFBE4CDFAE4CCF9A88222B800C1B93E
:10182B000059BA002DEC8BF084CFCECDFCE5F0CB7C
:10183B00F97818EF2FFFEE33FEED33FDEC33FCEBB5
:10184B0033FB10D703994004EB99FB0FD8E5E4F970
:10185B00FA227818EF2FFFEE33FEED33FDEC33FC5D
:10186B00C933C910D7059BE99A4007EC9BFCE99A51
:10187B00F90FD8E0E4C9FAE4CCFB2275F010EF2F96
:10188B00FFEE33FEED33FDCC33CCC833C810D70796
:10189B009BEC9AE899400AED9BFDEC9AFCE899F8D1
:1018AB000FD5F0DAE4CDFBE4CCFAE4C8F922EF4B28
:1018BB00FFEE4AFEED49FDEC48FC22EB9FF5F0EA0A
:1018CB009E42F0E99D42F0E89C45F022E8600FEC67
:1018DB00C313FCED13FDEE13FEEF13FFD8F122E85B
:1018EB00600FEFC333FFEE33FEED33FDEC33FCD86B
:1018FB00F122E0FCA3E0FDA3E0FEA3E0FF22E0F871
:10190B00A3E0F9A3E0FAA3E0FB22ECF0A3EDF0A334
:10191B00EEF0A3EFF022A8828583F0D083D0821261
:10192B001938121938121938121938E473E493A3C1
:10193B00C583C5F0C583C8C582C8F0A3C583C5F0F0
:10194B00C583C8C582C822E0FBA3E0FAA3E0F92255
:10195B00EBF0A3EAF0A3E9F022D083D082F8E49372
:10196B007012740193700DA3A393F8740193F58215
:10197B008883E4737402936860EFA3A3A380DF9062
:10198B000417EFF090000FE4F0900012E0FFEF70FF
:10199B0030900011E0FFEF7028900417E0FFEFB4D8
:1019AB005A099000117401F0021BAF900417E0FF6D
:1019BB00EF64696003021BAF9000127401F0021B0D
:1019CB00AF900012E0FFEF7003021A90900012E04C
:1019DB00FFEF12196419F3011A0D021A2A031A48A0
:1019EB00041A6C0500001BAF900417E0FFEFB496D0
:1019FB00099000127402F0021BAF900012E4F00287
:101A0B001BAF900417E0FF900013EFF090001274DF
:101A1B0003F0900417E0FF900118EFF0021BAF905A
:101A2B000417E0FF900016EFF09000127404F09092
:101A3B000417E0FF900118E02FF0021BAF90001786
:101A4B007401F0900417E0FF900018EFF09004176A
:101A5B00E0FF900118E02FF09000127405F0021BCC
:101A6B00AF900417E0FF900118E0FEEEB5070E12E1
:101A7B00005E900012E4F07F0122021BAF90001277
:101A8B00E4F0021BAF900011E0FFEF1219641AB2E1
:101A9B00011ACC021ADF031B0B041B30051B4C066F
:101AAB001B8C0700001BAF900417E0FFEFB4A509D8
:101ABB009000117402F0021BAF900011E4F0021BB6
:101ACB00AF900417E0FF900013EFF0900011740338
:101ADB00F0021BAF900417E0FF7E00900014EEF0B5
:101AEB00A3EFF0900014E0FEA3E0FFEF7F00FE9069
:101AFB000014EEF0A3EFF09000117404F0021BAF92
:101B0B00900014E0FEA3E0FF900417E0FD7C00EED4
:101B1B004CFEEF4DFF900014EEF0A3EFF090001190
:101B2B007405F0807F900417E0FF900016EFF090A3
:101B3B000017E4F09000117406F0900118E4F080A7
:101B4B0063900417E0FF900017E0FE74182EF582E7
:101B5B00E43400F583EFF0900417E0FF900118E0F8
:101B6B002FF0900016E0FF900017E0FEEEC39F40B1
:101B7B00089000117407F0802B900017E004F080A0
:101B8B0023900417E0FF900118E0FEEEB5070D124D
:101B9B002C1A900011E4F07F012280087585FF90CC
:101BAB000011E4F07FFF22900362EFF0900363EDEE
:101BBB00F0900364EBF09003657412F0900366747D
:101BCB0064F09003687405F09002F0E0FF74808F6E
:101BDB00F084FF900369EFF0900362E0FFEF700376
:101BEB00021DC5900362E0FFEFB4010C90036A7411
:101BFB00A2F0A37454F08032900362E0FFEFB402C2
:101C0B000B90036AE4F0A3741FF0801E900362E054
:101C1B00FFEFB4030C90036A7407F0A374E0F08039
:101C2B000990036A74F8F0A3E4F0900369E0FFEF06
:101C3B0024ECFFEFC313FF900362E0FEEE14FE9063
:101C4B000369E0FDEE8DF0A4FEEE2FFFEF04FF9095
:101C5B000367EFF0900367E0FF7E00C006C00790BC
:101C6B000368E0FFEFFD7C00C004C005900365E056
:101C7B00FF7E00900367E0FD7C00ED2FFBEC3EFA4E
:101C8B00900366E0FF7E00900368E0FD7C00ED2F83
:101C9B00FFEC3EFE900363E0FD7C00C3EF9DFFEE87
:101CAB009CFE9002D4EEF0A3EFF09002D674C6F037
:101CBB00A37418F0D005D004D007D0061228C99011
:101CCB000364E0FFEF607D900367E0FF7E00C006DA
:101CDB00C007900366E0FF7E00900368E0FD7C0088
:101CEB00ED2FFFEC3EFE900363E0FD7C00C3EF9D08
:101CFB00FDEE9CFCC004C005900365E0FF7E0090E8
:101D0B000367E0FD7C00ED2FFBEC3EFA900368E0EF
:101D1B00FF7E00900366E0FD7C00ED2FFFEC3EFEA6
:101D2B009002D4EEF0A3EFF090036AE0FEA3E0FF85
:101D3B009002D6EEF0A3EFF0D005D004D007D0067A
:101D4B001228C922900367E0FF7E00C006C00790EF
:101D5B000366E0FF7E00900368E0FD7C00ED2FFF43
:101D6B00EC3EFE900363E0FD7C00C3EF9DFDEE9C1B
:101D7B00FCC004C005900365E0FF7E00900367E0A4
:101D8B00FD7C00ED2FFBEC3EFA900368E0FF7E003C
:101D9B00900366E0FD7C00ED2FFFEC3EFE9002D43D
:101DAB00EEF0A3EFF09002D67484F0A37430F0D071
:101DBB0005D004D007D0061228C922123D027F118C
:101DCB001200467F787E00123BE17FB11200467F06
:101DDB0001123CC27F2C123CC27F2D123CC27FB23F
:101DEB001200467F01123CC27F2C123CC27F2D1287
:101DFB003CC27FB31200467F01123CC27F2C123CC7
:101E0B00C27F2D123CC27F01123CC27F2C123CC2FE
:101E1B007F2D123CC27FB41200467F07123CC27F5B
:101E2B00C01200467FA2123CC27F02123CC27F84CA
:101E3B00123CC27FC11200467FC5123CC27FC21248
:101E4B0000467F0A123CC27F00123CC27FC31200C5
:101E5B00467F8A123CC27F2A123CC27FC4120046C4
:101E6B007F8A123CC27FEE123CC27FC51200467FB6
:101E7B000E123CC27F361200467F68123CC27FE0D6
:101E8B001200467F0F123CC27F1A123CC27F0F1208
:101E9B003CC27F18123CC27F2F123CC27F28123CDF
:101EAB00C27F20123CC27F22123CC27F1F123CC257
:101EBB007F1B123CC27F23123CC27F37123CC27F76
:101ECB0000123CC27F07123CC27F02123CC27F1041
:101EDB00123CC27FE11200467F0F123CC27F1B12E5
:101EEB003CC27F0F123CC27F17123CC27F33123CA5
:101EFB00C27F2C123CC27F29123CC27F2E123CC2E5
:101F0B007F30123CC27F30123CC27F39123CC27F01
:101F1B003F123CC27F00123CC27F07123CC27F03C0
:101F2B00123CC27F10123CC27F2A1200467F001265
:101F3B003CC27F02123CC27F02123CC27F82123C27
:101F4B00C27F2B1200467F00123CC27F03123CC2A1
:101F5B007F00123CC27FA3123CC27FF01200467F6F
:101F6B0001123CC27FF61200467F00123CC27F3A40
:101F7B001200467F05123CC27F291200467F0012D9
:101F8B003CDB2290034BEFF090034CEDF090034DB4
:101F9B00EBF090034E7412F090034F7464F09003C7
:101FAB00517405F0900352746EF09002F0E0FF74E0
:101FBB00808FF084FF900357EFF090034BE0FFEF1F
:101FCB007003022142900357E0FFEF24ECFFEFC3B5
:101FDB0013FF90034BE0FEEE14FE900357E0FDEE73
:101FEB008DF0A4FEEE2FFFEF04FF900350EFF09067
:101FFB00034BE0FF90034CE0FD90034DE0FB121B05
:10200B00B2900350E0FF7E00EF24FAFFEE34FFFEA8
:10201B00C006C007900352E0FFEFFD7C0090035019
:10202B00E0FF7E00EF241AFBEE3400FA900352E03F
:10203B00FF7E00EF240FFFEE3400FE9002D4EEF093
:10204B00A3EFF09002D674C6F0A37418F0D007D0AB
:10205B00061228C990034CE0FFEF646470419003B3
:10206B0050E024FAF09003537431F0900354743021
:10207B00F09003557430F09003567425F090035094
:10208B00E0FF900352E0FD7B017A03795390024C01
:10209B007404F090024DE4F0A3E4F012214322907B
:1020AB00034CE0FFEFC3940A405190034CE0FFEF69
:1020BB0075F00A84FFEF2430FF900353EFF0900389
:1020CB004CE0FFEF75F00A84AFF0EF2430FF900384
:1020DB0054EFF09003557425F0900350E0FF9003FC
:1020EB0052E0FD7B017A03795390024C7403F0901C
:1020FB00024DE4F0A3E4F01221432290034CE0FFE5
:10210B00EF75F00A84AFF0EF2430FF900353EFF03C
:10211B009003547425F0900350E0FF900352E0FDC0
:10212B007B017A03795390024C7402F090024DE4D8
:10213B00F0A3E4F012214322900247EFF090024803
:10214B00EDF090024912195B90024FE4F090024CB3
:10215B00E0FF90024FE0FEEEC39F40030222C890C7
:10216B00024912195290024FE0FF8F8275830012C1
:10217B001761FFEFC394A14004220222BF900249D2
:10218B0012195290024FE0FF8F8275830012176174
:10219B00FF900255EFF0900255E0FF7E00EF75F0D7
:1021AB0010A4FFAEF0900256EEF0A3EFF0900250A9
:1021BB00E4F0900250E0FFEFC39410503B900250BC
:1021CB00E0FF7E00900256E0FCA3E0FDEF2DFFEE5A
:1021DB003CFE74C12FF582743D3EF583E493FF9072
:1021EB000250E0FE74582EF582E43402F583EFF0D2
:1021FB00900250E004F080BA900253E4F090025346
:10220B00E0FFEFC3941040030222BF900252E4F0B0
:10221B00900252E0FFEFC3940840030222B69002F3
:10222B0052E0FFEF5407FF900251EFF0900253E0A2
:10223B00FF74582FF582E43402F583E0FFEFFD3392
:10224B0095E0FC900251E0FF74807E00A8070880A7
:10225B0006CEA2E713CE13D8F8FFEE5CFEEF5DFFC0
:10226B00EF4E603E90024FE0FFEF33333354F8FFF5
:10227B00900252E0FE900247E0FDED2EFEEE2FFFA6
:10228B00900254EFF0900254E0FF900248E0FE9071
:10229B000253E0FDED2EFD90024DE0FAA3E0FB12A0
:1022AB0034F2900252E004F002221B900253E0043D
:1022BB00F002220890024FE004F002215822900015
:1022CB000EE0FFEF601B90027BE004F090027BE0DE
:1022DB00FFEFD39432400A90027BE4F090000EE4BF
:1022EB00F0900011E0FFEF601B90000FE004F09006
:1022FB00000FE0FFEFD39432400A90000FE4F09010
:10230B000011E4F0900012E0FFEF601B90000FE073
:10231B0004F090000FE0FFEFD39432400A90000FCF
:10232B00E4F0900012E4F09002E0E0FFEF702390F5
:10233B000405E0FFEF701B900127E0FFEFC39496BD
:10234B00400890011F7401F0800D900127E004F00C
:10235B008005900127E4F090012CE0FFEF64016011
:10236B000690012BE004F090012BE0FFEFC3940FDC
:10237B00400B90012BE4F090012C7401F0900001C4
:10238B00E0FFEFB401179002E3E0FFEF700F900155
:10239B002FE0FFEFB4010690012DE004F090012D2A
:1023AB00E0FFEFD3944B401090012DE4F090012E01
:1023BB007401F090012FE4F0900122E004F0900101
:1023CB0022E0FFEFB41903B2A122900122E0FFEF4C
:1023DB00C39432406B900122E4F090011D7401F024
:1023EB00B2A1900126E0FFEFC3940A50069001269C
:1023FB00E004F090012AE0FFEFB4011A900121E410
:10240B00F0900120E0FFEF700690011E7401F09038
:10241B0001207401F022900120E0FFEFB40106903F
:10242B000121E004F0900121E0FFEFD3940540106F
:10243B00900121E4F0900120E4F090011E7401F072
:10244B002290027AE0FFEF70037F0022900279E086
:10245B00FF747D2FF582E43402F583E0FF900416C0
:10246B00EFF0900279E0FFEFC3941F5008900279D0
:10247B00E004F08005900279E4F090027AE0FFEF3F
:10248B00D39400400690027AE014F090000EE0FF27
:10249B00EF12196424B20024C80124E202251603AA
:1024AB00253E0400002574900416E0FFEF645A608B
:1024BB000302257490000E7401F00225749004162B
:1024CB00E0FFEFB4A50990000E7402F002257490A2
:1024DB00000EE4F0022574900416E0FFEFD394187D
:1024EB00500B900416E0FFEFC39401500790000EC1
:1024FB00E4F08075900416E0FFC3EF9401FF9000A9
:10250B0002EFF090000E7403F0805E900416E0FF73
:10251B00EF6482600790000EE4F0804D900416E0AB
:10252B00FF900003EFF090000CE4F090000E7404A9
:10253B00F08036900416E0FF90000CE0FE74042E41
:10254B00F582E43400F583EFF090000CE004F0909A
:10255B000002E0FF90000CE0FEEEC39F400B122E3A
:10256B00F790000EE4F07F01227F0222900358EED9
:10257B00F0A3EFF090035AECF0A3EDF090035CEABC
:10258B00F0A3EBF0900358E0FEA3E0FFC006C007FA
:10259B0090035AE0FCA3E0FD90035CE0FAA3E0FBA0
:1025AB0090035AE0FEA3E0FF9002A3EEF0A3EFF03E
:1025BB00900360E0FEA3E0FF9002A5EEF0A3EFF026
:1025CB00D007D006121261900358E0FEA3E0FFC0C3
:1025DB0006C00790035AE0FCA3E0FD900358E0FA15
:1025EB00A3E0FB90035EE0FEA3E0FF9002A3EEF0FE
:1025FB00A3EFF0900360E0FEA3E0FF9002A5EEF0E6
:10260B00A3EFF0D007D006121261900358E0FEA39F
:10261B00E0FFC006C00790035EE0FCA3E0FD900363
:10262B005CE0FAA3E0FB90035EE0FEA3E0FF900208
:10263B00A3EEF0A3EFF0900360E0FEA3E0FF9002A7
:10264B00A5EEF0A3EFF0D007D00612126190035C59
:10265B00E0FEA3E0FFC006C00790035AE0FCA3E036
:10266B00FD90035CE0FAA3E0FB90035EE0FEA3E0C9
:10267B00FF9002A3EEF0A3EFF0900360E0FEA3E067
:10268B00FF9002A5EEF0A3EFF0D007D00612126177
:10269B0022900396EFF0900397EDF090039874124D
:1026AB00F09003997464F090039B7405F090039C75
:1026BB00746EF09002F0E0FF74808FF084FF900353
:1026CB009DEFF0900396E0FFEF70030227BC9003A1
:1026DB009DE0FFEF24ECFFEFC313FF900396E0FEAA
:1026EB00EE14FE90039DE0FDEE8DF0A4FEEE2FFFA9
:1026FB00EF04FF90039AEFF0900397E0FFEF605821
:10270B0090039AE0FF7E00EF24F9FFEE34FFFEC04A
:10271B0006C00790039CE0FF7E00EF24FFFDEE3424
:10272B00FFFC90039AE0FF7E00EF241BFBEE3400CE
:10273B00FA90039CE0FF7E00EF2410FFEE3400FEC6
:10274B0090035EEEF0A3EFF0900360E4F0A3E4F0EF
:10275B00D007D0061225772290039AE0FF7E00EF78
:10276B0024F9FFEE34FFFEC006C00790039CE0FF88
:10277B007E00EF24FFFDEE34FFFC90039AE0FF7E1A
:10278B0000EF241BFBEE3400FA90039CE0FF7E006D
:10279B00EF2410FFEE3400FE90035EEEF0A3EFF09B
:1027AB0090036074C6F0A37418F0D007D0061225FE
:1027BB0077229000017402F07F187EC61235517B90
:1027CB00FF7A3D797690024C740BF090024DE4F059
:1027DB00A3E4F07D087F081221439002F0E0FD7F17
:1027EB0002122D8B90035EE4F0A37419F09003603A
:1027FB00E4F0A3E4F07B7E7A007D077C007F5F7EB4
:10280B00001225777BFF7A3D798290024C740AF097
:10281B0090024DE4F0A3E4F07D1C7F08122143905D
:10282B0002EEE0FD7F03122D8B7BFF7A3D798D90BD
:10283B00024C7409F090024DE4F0A3E4F07D307F7C
:10284B00081221439002EAE0FD7F04122D8B7BFFDF
:10285B007A3D799790024C7409F090024DE4F0A305
:10286B00E4F07D447F081221439002EBE0FD7F05ED
:10287B00122D8B7BFF7A3D79A190024C7409F0905D
:10288B00024DE4F0A3E4F07D587F0812214390023F
:10289B00ECE0FD7F06122D8B7BFF7A3D79AB90022E
:1028AB004C7409F090024DE4F0A3E4F07D6C7F08CA
:1028BB001221439002EDE0FD7F07122D8B22900237
:1028CB00CEEEF0A3EFF09002D0ECF0A3EDF090027F
:1028DB00D2EAF0A3EBF09002CEE0FEA3E0FF900271
:1028EB00D2E0FCA3E0FDC3ED9FFFEC9EFEEF2401C5
:1028FB00FFEE3400FE9002DCEEF0A3EFF09002D07E
:10290B00E0FEA3E0FF9002D4E0FCA3E0FDC3ED9F4B
:10291B00FFEC9EFEEF2401FFEE3400FE9002DEEE94
:10292B00F0A3EFF09002CEE0FEA3E0FFC006C007DD
:10293B009002D0E0FCA3E0FD9002D2E0FAA3E0FB12
:10294B009002D4E0FEA3E0FF900394EEF0A3EFF02F
:10295B00D007D0061233C49002D8E4F0A3E4F09071
:10296B0002DEE0FEA3E0FF9002D8E0FCA3E0FDC393
:10297B00ED9FEC9E50429002DAE4F0A3E4F090025B
:10298B00DCE0FEA3E0FF9002DAE0FCA3E0FDC3ED88
:10299B009FEC9E50179002D6E0FEA3E0FF123C0F77
:1029AB009002DAE475F0011217B280D29002D8E4EB
:1029BB0075F0011217B280A7229003DC12195B90FD
:1029CB00027CE0FFEFB4010543C11080F290027C62
:1029DB007401F0759B5A90027CE0FFEFB401054344
:1029EB00C11080F290027C7401F0759BA590027C63
:1029FB00E0FFEF600543C11080F390027C7401F09F
:102A0B009003DC121952121748FF8F9B90027CE047
:102A1B00FFEF600543C11080F390027C7401F090CE
:102A2B0003DC121952758201758300121761FF8F37
:102A3B009B9003DFE4F09003DC121952121748FF4E
:102A4B00EF14FF9003DFE0FEEEC39F503C90027C3F
:102A5B00E0FFEF600543C11080F390027C7401F03E
:102A6B009003DC121952E92402F9EA3400FA9003BC
:102A7B00DFE0FF7E00E92FF9EA3EFA121748FF8FDD
:102A8B009B9003DFE004F080AD229003F4EFF09015
:102A9B0003F5EDF09003F6E4F0900010E0FFEFB4D7
:102AAB00010543C11080F29000107401F075856927
:102ABB00900010E0FFEFB4010543C11080F29000CD
:102ACB00107401F0758596900010E0FFEFB40105CE
:102ADB0043C11080F29000107401F090011CE0FFD4
:102AEB008F8590011CE0FF9003F6E02FF090001013
:102AFB00E0FFEFB4010543C11080F29000107401A8
:102B0B00F09003F4E0FF8F859003F4E0FF9003F661
:102B1B00E02FF0900010E0FFEFB4010543C11080EF
:102B2B00F29000107401F09003F5E0FF8F85900395
:102B3B00F5E0FF9003F6E02FF0900010E0FFEFB40C
:102B4B00010543C11080F29000107401F09003F660
:102B5B00E0FF8F852290011DE0FFEF604590011D86
:102B6B00E4F090012AE4F0900000E0FFEF700F7D9D
:102B7B00017F10123BAD9000007401F08024900097
:102B8B0000E0FFEFB4010F7D017F11123BAD900010
:102B9B00007402F0800C7D017F12123BAD9000009F
:102BAB00E4F090011EE0FFEF601C90011EE4F07B4F
:102BBB00017A0279E19002BF740FF07F101232E5B7
:102BCB00123D15123D3590011FE0FFEF600E900195
:102BDB001FE4F09002E07401F0123CA490012EE08F
:102BEB00FFEF602A90012EE4F0900001E0FFEFB4BC
:102BFB00011C9002E3E0FFEF70147F01123A5C902E
:102C0B0002E2E0FD9002E3E0FB7F1112391B229000
:102C1B000013E0FFEF64016003022CD0900014E07E
:102C2B00FEA3E0FFEF4E70159003D41219210000A4
:102C3B0000007F007E007D007C0012335990001451
:102C4B00E0FEA3E0FFEF7F00FEE4FCFD9003D81253
:102C5B0019157B007A10790078009003D81218FDB3
:102C6B001218279003D4121909C31218C6602090AA
:102C7B0003D81218FD1233597B007A1079007800B3
:102C8B009003D81218FD1218279003D41219157B34
:102C9B00017A007918C003C002C0019003D8121842
:102CAB00FD900016E0FB7A00EB2401FBEA3400FAFE
:102CBB00900344EAF0A3EBF0D001D002D003120C46
:102CCB00A1758501227585FE221200161230D1EFF7
:102CDB00700280FE123AD2123C3D123C63121DC6AA
:102CEB00123CEF123D4B7F647E00123BE1900132B0
:102CFB00121921000000007D007F001214DF7F01FC
:102D0B00123CDBD2AF7D017F10123BAD123D351271
:102D1B0038457D017F10123BAD900126E0FFEFC3DC
:102D2B00940A503443C110900126E0FFEFC3940383
:102D3B00400890012AE0FFEF701E90011DE0FFEFAD
:102D4B00601190011DE4F090012AE4F07D017F10E9
:102D5B00123BAD12244C80C190011EE4F0123D15C4
:102D6B007B017A0279E19002BF740FF07F1012326F
:102D7B00E543C11012244C120096122B6080F222F4
:102D8B009003BAEFF09003BBEDF09003BAE0FFEFC6
:102D9B0075F014A4FFEF24E0FF9003BFEFF0900356
:102DAB00BFE0FFEFFD7C009003BFE0FF7E00EF2450
:102DBB0010FFEE3400FE9002D4EEF0A3EFF0900281
:102DCB00D674C6F0A37418F07B7E7A007F5F7E000A
:102DDB001228C99003BBE0FFEF75F06484FFEF246A
:102DEB0030FF9003BCEFF09003BBE0FFEF75F06496
:102DFB0084AFF0EF75F00A84FFEF2430FF9003BD32
:102E0B00EFF09003BBE0FFEF75F00A84AFF0EF2417
:102E1B0030FF9003BEEFF09003BFE0FD7B017A0320
:102E2B0079BC90024C7403F090024DE4F0A3E4F0F3
:102E3B007F601221432290036C12195B90036F1277
:102E4B001915123D41C2A27F021239E190036F1294
:102E5B0018FDEF5400FFEE5400FEED54FFFDEC5453
:102E6B0000FC78101218D71239E190036F1218FD7D
:102E7B00EF5400FFEE54FFFEED5400FDEC5400FC4C
:102E8B0078081218D71239E190036F1218FDEF541E
:102E9B00FFFFEE5400FEED5400FDEC5400FC123924
:102EAB00E1900373E0FEA3E0FFD3EF9400EE9401F7
:102EBB0040099003737401F0A3E4F090037374FF63
:102ECB0075F0FF1217C8AFF0FEEF4E601990036C50
:102EDB00121952121748FF1239E190036DE475F085
:102EEB00011217B280D5D2A2123C84229003F7E4D0
:102EFB00F0900004E0FF9003F8EFF0900002E0FF89
:102F0B00EF14FF9003F9EFF0900121E4F090012A08
:102F1B007401F0900120E0FFEF700C900120740120
:102F2B00F090011E7401F09003F8E0FFEFB410195C
:102F3B00900005E0FF9002E1E0FEEE6F605890021A
:102F4B00E1E0FD7F10123B79229003F8E0FFEFB434
:102F5B001123900005E0FF9002E2E0FEEE6F603679
:102F6B00900001E0FFEF6401702C9002E2E0FD7F26
:102F7B0011123B79229003F8E0FFEFB41218900086
:102F8B0005E0FF9002E3E0FEEE6F600A9002E3E0E3
:102F9B00FD7F12123B7922900001E0FF7E007C0046
:102FAB007D141217A0EF24CBFBEE34FFFA90000137
:102FBB00E0FF7E007C007D141217A0EF24DDFFEEF6
:102FCB0034FFFE90035EEEF0A3EFF090036074C647
:102FDB00F0A37418F0AD03AC027B7E7A007F5F7EAA
:102FEB0000122577900001E0FF7E007C007D14121B
:102FFB0017A0EF24DFFBEE34FFFA900001E0FF7E19
:10300B00007C007D141217A0EF24F1FFEE34FFFEBD
:10301B0090035EEEF0A3EFF0900360E4F0A3E4F016
:10302B00AD03AC027B7E7A007F5F7E001225772298
:10303B0090037512195B900378121915C2A27F03C6
:10304B001239E19003781218FDEF5400FFEE540093
:10305B00FEED54FFFDEC5400FC78101218D712391A
:10306B00E19003781218FDEF5400FFEE54FFFEEDD4
:10307B005400FDEC5400FC78081218D71239E1907B
:10308B0003781218FDEF54FFFFEE5400FEED5400D1
:10309B00FDEC5400FC1239E190037C74FF75F0FFDA
:1030AB001217C8AFF0FEEF4E60191238D5900375AA
:1030BB00121952EF12178E900376E475F001121766
:1030CB00B280D5D2A2221237607BFF7A717923901E
:1030DB0003D012195B9003CFE4F09003CFE0FFEF26
:1030EB00C39407506B9003CFE0FF749F2FF582E4DE
:1030FB003403F583E0FFEF6437FF9003D3EFF090D9
:10310B0003D3E0FFEF25E0FF9003D3EFF09003D361
:10311B00E02421F09003D3E0FFEFC313FF9003D320
:10312B00EFF09003D01219529003CFE0FF8F82750E
:10313B008300121761FF9003D3E0FEEF6E600990DE
:10314B00039E7401F07F00229003CFE004F0808A8D
:10315B0090039EE4F07F0122787FE4F6D8FD758121
:10316B00070231AA022CD4E493A3F8E493A34003FF
:10317B00F68001F208DFF48029E493A3F8540724C6
:10318B000CC8C333C4540F4420C8834004F4568086
:10319B000146F6DFE4800B0102040810204080900A
:1031AB003271E47E019360BCA3FF543F30E50954B8
:1031BB001FFEE493A360010ECF54C025E060A8402E
:1031CB00B8E493A3FAE493A3F8E493A3C8C582C825
:1031DB00CAC583CAF0A3C8C582C8CAC583CADFE9FA
:1031EB00DEE780BE7F187EC612355190035EE4F099
:1031FB00A3747BF0900360E4F0A3E4F07B7B7A0094
:10320B007D057C007F057E001225777BFF7A3D795B
:10321B005490024C7408F090024D74F8F0A3E4F053
:10322B007D107F211221437BFF7A3D795D90024C0B
:10323B00740CF090024D74F8F0A3E4F07D307F0D28
:10324B001221437BFF7A3D796A90024C740BF0900C
:10325B00024D74F8F0A3E4F07D407F0D12214390F2
:10326B00000174FFF0224101190041011C004100D3
:10327B00010041011D0041011E0041011F004101E0
:10328B0020004101210041012200410123004101A5
:10329B002400410125004101260041012700410185
:1032AB0028004101290041012A0041012B00410165
:1032BB002C0141012D0041012E0041012F00410045
:1032CB0000004403D40000000041040388410404BF
:1032DB00884104050041039E00009002BBEFF09073
:1032EB0002BC12195B9002BFE0FFEF2402FF9002B9
:1032FB00C1EFF09002C27480F09002BBE0FF90022D
:10330B00C3EFF09002C0E4F09002BFE0FF9002C068
:10331B00E0FEEEC39F502D9002BC121952121748BB
:10332B00FF9002C0E0FE74C42EF582E43402F583F4
:10333B00EFF09002BDE475F0011217B29002C0E0FD
:10334B0004F080C47B017A0279C11229C422900354
:10335B00E8121915123D41C2A27F201239E19003E8
:10336B00E81218FDEF5400FFEE5400FEED54FFFD84
:10337B00EC5400FC78101218D71239E19003E812C4
:10338B0018FDEF5400FFEE54FFFEED5400FDEC541E
:10339B0000FC78081218D71239E19003E81218FDD7
:1033AB00EF54FFFFEE5400FEED5400FDEC5400FC17
:1033BB001239E1D2A2123C842290038EEEF0A3EFDD
:1033CB00F0900390ECF0A3EDF0900392EAF0A3EBF6
:1033DB00F07F2A1200467F00123CC290038EE0FE63
:1033EB00A3E0FF123CC27F00123CC2900392E0FEAE
:1033FB00A3E0FF123CC27F2B1200467F00123CC29F
:10340B00900390E0FEA3E0FF123CC27F00123CC28F
:10341B00900394E0FEA3E0FF123CC27F2C12004607
:10342B00229002E07401F09002E3E4F09002F07459
:10343B0004F09002E17401F09002E47401F0900248
:10344B00E57401F09002E67401F09002E77401F06C
:10345B009002E87401F09002E27401F09002E9E44A
:10346B00F09002EAE4F09002EB7419F09002EC7425
:10347B0032F09002ED744BF09002EE745AF0900221
:10348B00EF7401F022C0E0C083C082C0D075D000C1
:10349B00C007E59A30E108539AFD90027CE4F0E511
:1034AB009A30E038539AFE90027BE4F0900278E079
:1034BB00FF747D2FF582E43402F583E59BF09002D7
:1034CB007AE004F0900278E0FFEFC3941F5008906D
:1034DB000278E004F08005900278E4F0D007D0D0B9
:1034EB00D082D083D0E0329003E4EFF09003E5ED8F
:1034FB00F09003E6EAF0A3EBF09003E4E0FF7E002C
:10350B00C006C0079003E5E0FFEFFD7C009003E4ED
:10351B00E0FF7E00EF2401FBEE3400FA9003E5E0C0
:10352B00FF7E00EF2401FFEE3400FE900394EEF0DB
:10353B00A3EFF0D007D0061233C49003E6E0FEA34E
:10354B00E0FF123C0F229003E0EEF0A3EFF09003AC
:10355B0094E4F0A37484F07B827A007D007C007F7E
:10356B00007E001233C49003E2E4F09003E2E0FF2C
:10357B00EFC39482502B9003E3E4F09003E3E0FF5E
:10358B00EFC3948450139003E0E0FEA3E0FF123CE2
:10359B000F9003E3E004F080E29003E2E004F0809C
:1035AB00CA22C0E0C0F0C083C082C0D075D000C0BA
:1035BB0000C001C002C003C004C005C006C007E5BF
:1035CB008430E1085384FD900010E4F0E58430E092
:1035DB00115384FE900418E585F0900418E0FF1257
:1035EB00198AD007D006D005D004D003D002D00161
:1035FB00D000D0D0D082D083D0F0D0E0329003A6D0
:10360B00EEF0A3EFF09003A812195B9003ABE0FE72
:10361B00A3E0FFD3EF9400EE6480948040369003D8
:10362B00A6E0FEA3E0FF9003A8121952121748FD63
:10363B0012395E9003A9E475F0011217B29003A63C
:10364B00E475F0011217B29003AB74FF75F0FF1223
:10365B0017B280B7229003ADEEF0A3EFF09003AF5B
:10366B0012195B9003B2E0FEA3E0FFD3EF9400EEE0
:10367B006480948040369003ADE0FEA3E0FF1239E6
:10368B00A09003AF121952EF12178E9003B0E4758E
:10369B00F0011217B29003ADE475F0011217B2905E
:1036AB0003B274FF75F0FF1217B280B722900415A6
:1036BB00EFF0900415E0FF9002E2E0FEEE6F604148
:1036CB009002E2E0FF9002E2E0FE74E42EF582E469
:1036DB003402F583E0FD7B00121BB29002E2E0FFA7
:1036EB007D0012269C900415E0FF9002E2EFF09013
:1036FB0002E2E0FF7D0112269C9002E3E0FF123A0A
:10370B005C229000017408F07F187EC61235517B45
:10371B00FF7A3D79B590024C740BF090024DE4F0BA
:10372B00A3E4F07D087F081221439002EFE0FD7FB8
:10373B0002122D8B90035EE4F0A37419F0900360DA
:10374B00E4F0A3E4F07B7E7A007D077C007F5F7E54
:10375B0000122577229003F0E4F07B007A0079F1D8
:10376B009003F112195B9003F0E4F09003F0E0FF8B
:10377B00EFC39407502D9003F11219529003F0E010
:10378B00FF8F82758300121761FF9003F0E0FE74C8
:10379B009F2EF582E43403F583EFF09003F0E00401
:1037AB00F080C822C0E0C0F0C083C082C0D075D00A
:1037BB0000C000C001C002C003C004C005C006C0E9
:1037CB00077F057E00123B0C20B70930B30690042F
:1037DB00057401F0D007D006D005D004D003D00279
:1037EB00D001D000D0D0D082D083D0F0D0E032C086
:1037FB00E0C0F0C083C082C0D075D000C000C00153
:10380B00C002C003C004C005C006C0077F057E0010
:10381B00123B0C20B30930B70690040574FFF0D0AF
:10382B0007D006D005D004D003D002D001D000D0F1
:10383B00D0D082D083D0F0D0E0327B017A0279E015
:10384B009003B2E4F0A37411F07F007E0012366097
:10385B009002E2E0FFEFD3940550219002E3E0FFEA
:10386B00EFD3940150169002E1E0FFEFD394015097
:10387B000B9002EFE0FFEFD39401400612342C12B1
:10388B003CA42290040CEFF090040DE4F090040D96
:10389B007408F090040DE0FFEFD39400402B9004DC
:1038AB000CE0FFEF30E704D2938002C29300C29288
:1038BB0000D29290040CE0FFEF25E0FF90040CEF98
:1038CB00F090040DE014F080CA22900411E4F09003
:1038DB000410E4F0900410E0FFEFC39408502BC2E7
:1038EB00A5900411E0FFEF25E0FF900411EFF0D25B
:1038FB00A530A40E900411E0FFEF4401FF900411DA
:10390B00EFF0900410E004F080CA900411E0FF2265
:10391B009002F1EFF09002F2EDF09002F3EBF090E9
:10392B0002F47404F09002F57480F09002F1E0FF61
:10393B009002F6EFF09002F2E0FF9002F7EFF090BA
:10394B0002F3E0FF9002F8EFF07B017A0279F412B8
:10395B0029C4229003FDEEF0A3EFF09003FFEDF0EE
:10396B0075C78075F52175C5029003FDE0FEA3E0D8
:10397B00FF8FC49003FDE0FEA3E0FFEEFF3395E065
:10398B00FE8FC39003FFE0FF8FC275C65A75C6A5A5
:10399B0000123D25229003FAEEF0A3EFF075C780DD
:1039AB0075F52175C5019003FAE0FEA3E0FF8FC406
:1039BB009003FAE0FEA3E0FFEEFF3395E0FE8FC32A
:1039CB0075C65A75C6A5009003FCE5C2F0123D25DD
:1039DB009003FCE0FF22900412EFF0900413E4F04C
:1039EB00900413E0FFEFC394085029900412E0FFFA
:1039FB00EF30E704D2A38002C2A3C2A5D2A59004E4
:103A0B0012E0FFEF25E0FF900412EFF0900413E0BB
:103A1B0004F080CC229003C012195B9003C3EDF02D
:103A2B009003C4E4F09003C3E0FF9003C4E0FEEE08
:103A3B00C39F501C9003C0121952E412178E9003AF
:103A4B00C1E475F0011217B29003C4E004F080D505
:103A5B0022900414EFF0900414E0FFEF7005900136
:103A6B002FE4F0900414E0FF9002E3EFF09002E2F9
:103A7B00E0FF9002E2E0FE74E42EF582E43402F5FE
:103A8B0083E0FD9002E3E0FB121BB222C0E0C0F02A
:103A9B00C083C082C0D075D000C000C001C002C0BE
:103AAB0003C004C005C006C0071222C9D007D00648
:103ABB00D005D004D003D002D001D000D0D0D0821A
:103ACB00D083D0F0D0E032D2A6D2A7D280D281D28E
:103ADB00B2D2B3C2B6D2B7D2A0C2A17594007593BD
:103AEB000075920075910075962E75950075B24014
:103AFB0075B10075CA1075C900D28AD2AA758F200C
:103B0B0022900406EEF0A3EFF0900406E0FEA3E093
:103B1B00FFEF25E0FFEE33FE900406EEF0A3EFF08F
:103B2B0090040674FF75F0FF1217B2AFF0FEEF4E64
:103B3B00600543C11080E92290040AEEF0A3EFF078
:103B4B0075C78075F52175C50390040AE0FEA3E0E7
:103B5B00FF8FC490040AE0FEA3E0FFEEFF3395E075
:103B6B00FE8FC375C65A75C6A500123D252290035C
:103B7B0011EFF0900312EDF09003137403F0900328
:103B8B00147480F0900311E0FF900315EFF0900395
:103B9B0012E0FF900316EFF07B017A0379131229E1
:103BAB00C422900320EFF0900321EDF090032274D8
:103BBB0003F09003237481F0900320E0FF90032423
:103BCB00EFF0900321E0FF900325EFF07B017A03E8
:103BDB0079221229C422900408EEF0A3EFF090048E
:103BEB0008E0FEA3E0FFD3EF9400EE940040147FB7
:103BFB00907E01123B0C90040874FF75F0FF1217B6
:103C0B00B280DB22900400EEF0A3EFF0900402E40C
:103C1B00F0C2B5D295900400E0FEA3E0FFEEFF7E6C
:103C2B000012388E900400E0FEA3E0FF12388ED213
:103C3B00B522439A1075D7A275D6FC438E1443AFA9
:103C4B00017B017A0279787D25123A207B017A007B
:103C5B0079027D0D123A202275841043844043D1A2
:103C6B002075D3B875D2FF43D18043AF107B017A57
:103C7B0000790F7D0A123A202290041DE4F0C2A2B3
:103C8B007F051239E11238D590041DEFF0D2A290C6
:103C9B00041DE0FFEF20E0E6227F007E00123B4395
:103CAB007B017A0279E09003ABE4F0A37411F07F0F
:103CBB00007E001236082290040EEFF090040FE401
:103CCB00F0C2B5D29590040EE0FF12388ED2B52219
:103CDB0090041AEFF090041AE0FFEFB40103D2B492
:103CEB0022C2B422538E7F5389F0758A00758C28BB
:103CFB00D2A9C28DD28C22C2947F647E00123BE18A
:103D0B00D2947F647E00123BE12290012AE0FFEF08
:103D1B0070041231EF22120FAB2275C70075C5006C
:103D2B0075C60075C38075C40022C2A07F647E0077
:103D3B00123BE1D2A022C2A27F061239E1D2A2220B
:103D4B00D2A2D2A5D2A3D2A4225761726E6E696E93
:103D5B00670044726976657220626F6172640064F9
:103D6B006973636F6E6E65637421004C4544204E1E
:103D7B00756D6265723A004D6F746F725374657036
:103D8B003A004C454431204C6F743A004C45443258
:103D9B00204C6F743A004C454433204C6F743A00FE
:103DAB004C454434204C6F743A004472697665720A
:103DBB002046616E3A000000000000000000000089
:103DCB0000000000000000000000000000000000E8
:103DDB0000000000000000000000000000000000D8
:103DEB0000000000000000000000000000000000C8
:103DFB0000000000000000000000000000000000B8
:103E0B0000000000000000000000000000000000A7
:103E1B000000000000000000000000000000000097
:103E2B000000000000000000000000000000000087
:103E3B000000000000000000001808C8080800007F
:103E4B0000000000000000007F6060606060606048
:103E5B0060E0602000000000000000000000000097
:103E6B0000000000000000001818181010100000CF
:103E7B000000000000000000000000000000080827
:103E8B00080C0C0C000000000000000000000000FB
:103E9B0000000000000000006C3810007CC6701C95
:103EAB00C67C00000000000010386C00780C7CCC45
:103EBB00CC76000000000000000000007CC670C043
:103ECB00C67C000000000000000000006C967CD057
:103EDB00D66C000000000000000000007CC6060647
:103EEB00C67C00000000000000386CC6C6FEC6C6CB
:103EFB006C380000000000000000001038286C44F3
:103F0B00C6C6000000000000000000007CC606FED4
:103F1B00C67C00000000000000000000DC66666646
:103F2B00F60606663C000000006C38F80C7EC6C630
:103F3B00C67C000000000000000E1B181818181893
:103F4B001818D87000000000000000FE860C180C3A
:103F5B000606C67C0000000076DC0000780C7CCCEA
:103F6B00CC7600000000000076DC00007CC6060664
:103F7B00C67C00000000000076DC0000DC66666694
:103F8B0066660000000000000000000076999F9814
:103F9B00996F00000000000000000000000000000E
:103FAB00000C0606000000000000000000000000EE
:103FBB003C66663C000000000000000000000000B2
:103FCB00000000000000000000183C3C3C181800EA
:103FDB001818000000000000C6C6C6440000000010
:103FEB000000000000000000006C6CFE6C6C6CFEAE
:103FFB006C6C000000000018187CC6C2C07C0686E2
:10400B00C67C181800000000000000C3C60C183056
:10401B0063C300000000000000386C6C3876DCCC09
:10402B00CC76000000000000303030600000000053
:10403B00000000000000000000183060606060604D
:10404B00301800000000000000180C0606060606DB
:10405B000C180000000000000000006C38FE386CEB
:10406B00000000000000000000001818187E18184F
:10407B001800000000000000000000000000001805
:10408B0018183000000000000000000000FE0000C7
:10409B000000000000000000000000000000000015
:1040AB0018180000000000000002060C183060C059
:1040BB008000000000000000007CC6CEDEF6E6C6E5
:1040CB00C67C00000000000000183878181818187B
:1040DB00187E000000000000007CC6060C18306043
:1040EB00C6FE000000000000007CC606063C06066B
:1040FB00C67C000000000000000C1C3C6CCCFE0CCD
:10410B000C1E00000000000000FEC0C0C0FC060634
:10411B00C67C000000000000003860C0C0FCC6C6B2
:10412B00C67C00000000000000FEC6060C183030F4
:10413B003030000000000000007CC6C6C67CC6C63E
:10414B00C67C000000000000007CC6C6C67E0606CA
:10415B000C78000000000000000018180000001888
:10416B0018000000000000000000181800000018E4
:10417B00183000000000000000060C1830603018EA
:10418B000C06000000000000000000007E00007E16
:10419B000000000000000000006030180C060C1836
:1041AB003060000000000000007CC6C60C18180030
:1041BB001818000000000000007CC6C6DEDEDEDC46
:1041CB00C07C0000000000000010386CC6C6FEC6A4
:1041DB00C6C600000000000000FC6666667C6666D2
:1041EB0066FC000000000000003C66C2C0C0C0C2FC
:1041FB00663C00000000000000F86C6666666666B0
:10420B006CF800000000000000FE666268786862CF
:10421B0066FE00000000000000FE666268786860C1
:10422B0060F0000000000000003C66C2C0C0DEC6AB
:10423B00663A00000000000000C6C6C6C6FEC6C631
:10424B00C6C6000000000000003C1818181818180B
:10425B00183C000000000000001E0C0C0C0C0CCCD9
:10426B00CC7800000000000000E6666C6C786C6C8B
:10427B0066E600000000000000F0606060606062B5
:10428B0066FE00000000000000C6EEFED6C6C6C6E5
:10429B00C6C600000000000000C6E6F6FEDECEC675
:1042AB00C6C600000000000000386CC6C6C6C6C6F5
:1042BB006C3800000000000000FC6666667C6060E5
:1042CB0060F0000000000000007CC6C6C6D6DE7C95
:1042DB000C0E00000000000000FC6666667C6C663D
:1042EB0066E6000000000000007CC6C660380CC605
:1042FB00C67C000000000000007E5A181818181821
:10430B00183C00000000000000C6C6C6C6C6C6C6E4
:10431B00C67C00000000000000C6C6C6C6C6C66C40
:10432B00381000000000000000C6C6C6C6C6D6FE88
:10433B00EEC600000000000000C6C6C66C386CC696
:10434B00C6C600000000000000C6C6C66C38383870
:10435B00387C00000000000000FEC68C183060C2E4
:10436B00C6FE000000000000003C30303030303022
:10437B00303C0000000000000080C0E070381C0ED4
:10438B000602000000000000003C0C0C0C0C0C0C96
:10439B000C3C000000000010386CC6000000000050
:1043AB000000000000000000000000000000000002
:1043BB00000000FE0000000030301800000000007C
:1043CB00000000000000000000000000780C7CCC16
:1043DB00CC7600000000000000E06060786C666640
:1043EB0066DC000000000000000000007CC6C0C0BE
:1043FB00C67C000000000000001C0C0C3C6CCCCCFC
:10440B00CC76000000000000000000007CC6FEC05F
:10441B00C67C000000000000001C3632307C3030BF
:10442B0030780000000000000000000076CCCCCCFF
:10443B007C0CCC780000000000E060606C76666657
:10444B0066E6000000000000001818003818181865
:10445B00183C000000000000000606000E060606D1
:10446B000666663C0000000000E06060666C786CDD
:10447B0066E600000000000000381818181818181D
:10448B00183C0000000000000000000044FED6D6DF
:10449B00D6D600000000000000000000DC66666657
:1044AB006666000000000000000000007CC6C6C667
:1044BB00C67C00000000000000000000DC666666A1
:1044CB007C6060F0000000000000000076CCCCCCDB
:1044DB007C0C0C1E0000000000000000DC76666007
:1044EB0060F0000000000000000000007CC6701CA3
:1044FB00C67C00000000000000103030FC30303073
:10450B00361C00000000000000000000CCCCCCCC1E
:10451B00CC7600000000000000000000C6C6C66C90
:10452B00381000000000000000000000C6C6C6D610
:10453B00FE6C00000000000000000000C66C383864
:10454B006CC600000000000000000000C6C6C6C616
:10455B007E060C780000000000000000FECC183036
:10456B0066FE000000000000000E181818701818E6
:10457B00180E00000000000000181818180018187A
:10458B00181800000000000000701818180E1818FA
:10459B0018700000000000000076DC000000000036
:1045AB000000000000000000000000000000000000
:1045BB0000000000000000000000000000000000F0
:1045CB0000000000000000000000000000000000E0
:0645DB00000000000000DA
:00000001FF
