:0300000002352E98
:03000B00023F2A87
:10001300023D1090041EE4F0C2A27F05123DA4121B
:100023003C7890041EEFF0D2A290041EE0FFEF5440
:0B00330001FF7E00EF64014E60DE2242
:1000430002379C90041AEFF0C2B5C29590041AE0EF
:07005300FF123C2AD2B52286
:10005B00023CC5900312EFF0900313EDF0900314E4
:10006B007403F09003157480F0900312E0FF90037B
:10007B0016EFF0900313E0FF900317EFF07B017A7C
:07008B00037914122E142268
:10009300023A749003CCE4F0A3E4F09003CEE4F0CE
:1000A3009003CFE4F090012AE0FF7E00EF4E70034F
:1000B300020A6D900406E0FF7E00EF64014E6003C8
:1000C30002037F900406E4F0900001E0FF7E00EF5E
:1000D30064014E60030201D69002E3E0FF7E00EF6D
:1000E30064014E60030201839002E2E0FF74E42F97
:1000F300F582E43402F583E0FF9003CBEFF0900147
:100103002CE0FFC374649FFF9003CBE0FEEEC39F1C
:10011300500D90012CE0FF9003CBE02FF080069070
:1001230003CB7464F090012BE4F090012CE0FF7E8C
:1001330000C3EF940AEE64809480500690012CE093
:1001430004F09003CBE0FF9002E2E0FE74E42EF5AE
:1001530082E43402F583EFF09002E0E4F09002E2EF
:10016300E0FF9003CBE0FD7B0112242A9002E2E042
:10017300FFEF2413FF9003CBE0FD12005E02065B4A
:1001830090012DE4F09002E2E0FF9003CBEFF090BA
:1001930003CBE0FF7D00122A069002F0E0FF9003FC
:1001A300CBE0FEEEC39F50089003CBE004F0800643
:1001B3009003CB7401F09003CBE0FF9002E2EFF0E9
:1001C3009003CBE0FF7D01122A0690012F7401F00A
:1001D30002065B900001E0FF7E00EF64024E702E8A
:1001E3009002F0E0FF7E00C3EF9404EE64809480FD
:1001F30050069002F0E004F0900001E0FF9002F05E
:10020300E0FD1231FA9002E27401F002065B900005
:1002130001E0FF7E00EF64034E70729002EEE0FF98
:100223009003CBEFF090012CE0FFC374FF9FFF908E
:1002330003CBE0FEEEC39F500D90012CE0FF900333
:10024300CBE02FF080069003CB74FFF09003CBE05C
:10025300FF9002EEEFF090012BE4F090012CE0FF11
:100263007E00C3EF940AEE64809480500690012CC4
:10027300E004F0900001E0FF9003CBE0FD1231FABF
:100283009003CBE0FD7F1D12005E02065B90000130
:10029300E0FF7E00D3EF9403EE648094805003026A
:1002A3000334900001E0FF7E00D3EF9407EE6480F7
:1002B3009480507D900001E0FF74E62FF582E434D2
:1002C30002F583E0FF9003CBEFF09003CBE0FF7EDA
:1002D30000C3EF94FEEE6480948050089003CBE05B
:1002E30004F080069003CB74FFF09003CBE0FF9003
:1002F3000001E0FE74E62EF582E43402F583EFF0AC
:10030300900001E0FF9003CBE0FD1231FA90000171
:10031300E0FFEF2415FF9003CBE0FD12005E900099
:1003230001E0FFEF24FDFD7B017F11123DEA020690
:100333005B900001E0FF7E00EF64084E70179002AF
:10034300EF7401F07D017F021231FA7D017F1E12ED
:10035300005E02065B900001E0FF7E00EF64094E41
:10036300600302065B9002F17401F07D017F0312CA
:1003730031FA7D017F2012005E02065B900406E0E5
:10038300FF7E00EF64FF4E600302065B900406E409
:10039300F0900001E0FF7E00EF64014E6003020471
:1003A300A99002E3E0FF7E00EF64014E60030204C4
:1003B3004F9002E2E0FF74E42FF582E43402F58308
:1003C300E0FF9003CBEFF090012CE0FF9003CBE034
:1003D300FEEED39F40159003CBE0FF90012CE0FE8F
:1003E300C3EF9EFF9003CBEFF080069003CB740125
:1003F300F090012BE4F090012CE0FF7E00C3EF941A
:100403000AEE64809480500690012CE004F090037F
:10041300CBE0FF9002E2E0FE74E42EF582E43402C6
:10042300F583EFF09002E0E4F09002E2E0FF900346
:10043300CBE0FD7B0112242A9002E2E0FFEF2413BC
:10044300FF9003CBE0FD12005E02065B90012DE4FA
:10045300F09002E2E0FF9003CBEFF09003CBE0FFDC
:100463007D00122A069003CBE0FF7E00D3EF9401B8
:10047300EE6480948040089003CBE014F0800A90EF
:1004830002F0E0FF9003CBEFF09003CBE0FF90028C
:10049300E2EFF09003CBE0FF7D01122A0690012FDB
:1004A3007401F002065B900001E0FF7E00EF64023E
:1004B3004E70289002F0E0FF7E00D3EF9401EE64CB
:1004C30080948040069002F0E014F0900001E0FF79
:1004D3009002F0E0FD1231FA02065B900001E0FFAA
:1004E3007E00EF64034E60030205779002EEE0FFA7
:1004F3009003CBEFF090012CE0FF7E00EF2401FF8F
:10050300EE3400FE9003CBE0FD7C00D3ED9FEE6460
:1005130080F8EC64809840159003CBE0FF90012CA9
:10052300E0FEC3EF9EFF9003CBEFF080069003CB7A
:100533007401F09003CBE0FF9002EEEFF090012BFB
:10054300E4F090012CE0FF7E00C3EF940AEE648098
:100553009480500690012CE004F0900001E0FF909D
:1005630003CBE0FD1231FA9003CBE0FD7F1D1200B7
:100573005E02065B900001E0FF7E00D3EF9403EE82
:10058300648094805003020619900001E0FF7E000E
:10059300D3EF9407EE64809480507B900001E0FFDA
:1005A30074E62FF582E43402F583E0FF9003CBEF8A
:1005B300F09003CBE0FF7E00D3EF9400EE648094D1
:1005C3008040089003CBE014F080059003CBE4F067
:1005D3009003CBE0FF900001E0FE74E62EF582E489
:1005E3003402F583EFF0900001E0FF9003CBE0FDD0
:1005F3001231FA900001E0FFEF2415FF9003CBE0E6
:10060300FD12005E900001E0FFEF24FDFD7B017F02
:1006130011123DEA8042900001E0FF7E00EF640882
:100623004E70159002EFE4F07D007F021231FA7DE7
:10063300007F1E12005E8020900001E0FF7E00EF2D
:1006430064094E70139002F1E4F07D007F031231D0
:10065300FA7D007F2012005E30B2030207587F0547
:100663007E0012407930B2030207581241DA90003B
:1006730001E0FF7E00EF64014E70269002E3E0FF8D
:10068300EF60077F00123EB080057F01123EB090FD
:1006930002E2E0FD9002E3E0FB7F11123DEA020774
:1006A30044900001E0FF7E00C3EF9402EE64809467
:1006B300805003020744900001E004F0900001E041
:1006C300FF7E00EF64034E700F1233669002EEE07C
:1006D300FD7F1D12005E8069900001E0FF7E00D364
:1006E300EF9407EE648094805015123366900001F6
:1006F300E0FFEF24FDFD7B017F11123DEA80429074
:100703000001E0FF7E00EF64084E700512363C8066
:1007130030900001E0FF7E00EF64094E7005123D4A
:100723005B801E9000017401F01211A390011F74ED
:1007330001F09002E2E0FD9002E3E0FB7F11123D45
:10074300EA20B21143C11020B2F77F057E001240A8
:100753007980F480ECE5B05488FF7E00EF64884E26
:100763007005900406E4F030A6030208457F057E79
:100773000012407930A6030208451241DA900001C5
:10078300E0FF7E00EF64014E704B9002E2E0FF7EDB
:1007930000EF64014E70259002E3E0FFEF60077FF6
:1007A30000123EB080057F01123EB09002E2E0FDF0
:1007B3009002E3E0FB7F11123DEA80197F01123BB7
:1007C300D57F01123EB09002E2E0FD9002E3E0FB30
:1007D3007F11123DEA20A66A43C11020A6F72081AB
:1007E300569003CBE4F09003CBE0FF7E00C3EF947D
:1007F30064EE6480948050177F1E7E00124079203F
:10080300A60D30810280089003CBE004F080D7204E
:10081300A609208106122B2A1241DA30A603208171
:10082300BA43C11030A6032081F17F057E00124038
:100833007980F180E680A47F057E00124079809B59
:10084300809330A7030208D97F057E0012407930D8
:10085300A7030208D91241DA900001E0FF7E00EFFE
:1008630064014E705D9002E2E0FF7E00EF64024E91
:1008730070259002E3E0FFEF60077F00123EB08037
:10088300057F01123EB09002E2E0FD9002E3E0FB3F
:100893007F11123DEA802B9002F0E0FF7E00D3EF40
:1008A3009401EE6480948040197F02123BD57F014E
:1008B300123EB09002E2E0FD9002E3E0FB7F1112F2
:1008C3003DEA20A71143C11020A7F77F057E001240
:1008D300407980F480EC30800302096D7F057E004F
:1008E30012407930800302096D1241DA900001E071
:1008F300FF7E00EF64014E705D9002E2E0FF7E0038
:10090300EF64034E70259002E3E0FFEF60077F0082
:10091300123EB080057F01123EB09002E2E0FD90EE
:1009230002E3E0FB7F11123DEA802B9002F0E0FF2F
:100933007E00D3EF9402EE6480948040197F03120B
:100943003BD57F01123EB09002E2E0FD9002E3E06E
:10095300FB7F11123DEA20801143C1102080F77FF5
:10096300057E0012407980F480EC308103020A5A3C
:100973007F057E00124079308103020A5A1241DA60
:10098300900001E0FF7E00EF64014E705D9002E293
:10099300E0FF7E00EF64044E70259002E3E0FFEF7A
:1009A30060077F00123EB080057F01123EB09002C7
:1009B300E2E0FD9002E3E0FB7F11123DEA802B9021
:1009C30002F0E0FF7E00D3EF9403EE648094804056
:1009D300197F04123BD57F01123EB09002E2E0FD85
:1009E3009002E3E0FB7F11123DEA20816A43C110CC
:1009F3002081F720A6569003CBE4F09003CBE0FFD1
:100A03007E00C3EF9464EE6480948050177F1E7E53
:100A13000012407920A60D30810280089003CBE0BC
:100A230004F080D720A609208106122B2A1241DA6E
:100A330030A6032081BA43C11030A6032081F17F81
:100A4300057E0012407980F180E680A47F057E0058
:100A5300124079809B8093900119E0FF7E00EF4E56
:100A63006008900119E4F0120A6E2290011CE0FF65
:100A73007E00EF64804E6003020D9290011AE0FF46
:100A83007E00EF64104E6003020B1390011BE0FF26
:100A93007E00EF4E700890011B7401F080189001E6
:100AA3001BE0FF7E00D3EF9404EE64809480400645
:100AB30090011B7404F090011BE0FF9002F0E0FE34
:100AC300EE6F7003020E7F90011BE0FF9002F0EFC8
:100AD300F090011F7401F09002E27401F09002E2C1
:100AE300E0FD9002E3E0FB7F11123DEA900001E09C
:100AF300FF7E00EF64014E70051211A3800A90027D
:100B0300F0E0FD7F021231FA9002E0E4F0020E7F82
:100B130090011AE0FF7E00EF64114E707490011B88
:100B2300E0FF7E00EF4E700890011B7401F0801807
:100B330090011BE0FF7E00D3EF9404EE6480948069
:100B4300400690011B7404F090011BE0FF9002E249
:100B5300E0FEEE6F7003020E7F900001E0FF7E0067
:100B6300EF64014E700A90011BE0FF123BD5800A2F
:100B730090011BE0FF9002E2EFF09002E2E0FD90B3
:100B830002E3E0FB7F11123DEA9002E0E4F0020E83
:100B93007F90011AE0FF7E00EF64124E705C9001BB
:100BA3001BE0FF7E00D3EF9401EE64809480400647
:100BB30090011B7401F090011BE0FF9002E3E0FE43
:100BC300EE6F7003020E7F900001E0FF7E00EF6482
:100BD300014E700A90011BE0FF123EB0800A9001A3
:100BE3001BE0FF9002E3EFF09002E3E0FD7F1212BF
:100BF300005E9002E0E4F0020E7F90011AE0FF7EB7
:100C030000C3EF9414EE648094805003020CAA9006
:100C1300011AE0FF7E00D3EF9417EE6480948040C6
:100C230003020CAA90011BE0FF7E00D3EF9464EE55
:100C330064809480400690011B7464F090011AE074
:100C4300FF74D12FF582E43402F583E0FF90011B9A
:100C5300E0FEEF6E7003020E7F90011BE0FF900138
:100C63001AE0FE74D12EF582E43402F583EFF0909E
:100C73000001E0FF7E00EF64014E701690011AE060
:100C8300FFEF24EDFF90011BE0FD9002E3E0FB1278
:100C9300242A90011AE0FF90011BE0FD12005E90F0
:100CA30002E0E4F0020E7F90011AE0FF7E00C3EF42
:100CB3009419EE64809480407D90011AE0FF7E00D9
:100CC300D3EF941CEE64809480506B90011AE0FF84
:100CD30074D12FF582E43402F583E0FF90011BE029
:100CE300FEEF6E7003020E7F90011BE0FF90011A6E
:100CF300E0FE74D12EF582E43402F583EFF0900028
:100D030001E0FF7E00D3EF9401EE648094804011F4
:100D130090011AE0FFEF24EBFF90011BE0FD12317D
:100D2300FA90011AE0FF90011BE0FD12005E9002B1
:100D3300E0E4F0020E7F90011AE0FF7E00EF641DF5
:100D43004E6003020E7F90011BE0FF9002EEE0FE77
:100D5300EE6F7003020E7F90011BE0FF9002EEEF37
:100D6300F0900001E0FF7E00D3EF9401EE648094E5
:100D730080400A9002EEE0FD7F031231FA90011BDE
:100D8300E0FD7F1D12005E9002E0E4F0020E7F9012
:100D93000013E0FF7E00EF64814E6003020E7F903C
:100DA300011AE0FF7E00EF64104E700D9002F0E038
:100DB300FF90011BEFF0020E7F90011AE0FF7E000F
:100DC300EF64114E700D9002E2E0FF90011BEFF013
:100DD300020E7F90011AE0FF7E00EF64124E700D49
:100DE3009002E3E0FF90011BEFF0020E7F90011AE7
:100DF300E0FF7E00C3EF9414EE64809480402A9059
:100E0300011AE0FF7E00D3EF9417EE6480948050C4
:100E13001890011AE0FF74D12FF582E43402F583B0
:100E2300E0FF90011BEFF0805390011AE0FF7E007A
:100E3300C3EF9419EE64809480402A90011AE0FF76
:100E43007E00D3EF941CEE64809480501890011AB6
:100E5300E0FF74D12FF582E43402F583E0FF9001C3
:100E63001BEFF0801790011AE0FF7E00EF641D4E28
:100E7300700A9002EEE0FF90011BEFF090011AE080
:100E8300FF90011BE0FD122D312290033E121BA99E
:100E9300900341121B63900347E4F0900348E4F08E
:100EA300900349E4F090034AE4F090034BE4F0909C
:100EB3000341121B4BEF54FFFFEE5400FEED5400B1
:100EC300FDEC5400FC900349EFF0900349E0FFEF81
:100ED300F404FF90034AEFF0900345E0FEA3E0FF24
:100EE300EEFF7E00900347EFF0900345E0FEA3E0A2
:100EF300FF7E00900348EFF0900349E0FF7E00EF90
:100F03004E6003020FB6900347E0FF7E00EF4E7082
:100F13002C90033E121BA0C003C002C001900341EA
:100F2300121B4B900345E0FAA3E0FB900374EAF035
:100F3300A3EBF0D001D002D0031232B022900347CA
:100F4300E0FF14F0EF604190033E121BA0900341B9
:100F5300121B4B9003747401F0A3E4F01232B090AF
:100F63000341121B4BEF2400FFEE3401FEED34006E
:100F7300FDEC3400FC900341121B6390033F7401AA
:100F830075F000121A0080B590033E121BA0C00337
:100F9300C002C001900341121B4B900348E0FB7A4F
:100FA30000900374EAF0A3EBF0D001D002D0031257
:100FB30032B022900347E0FF7E00EF4E6003021041
:100FC3009290034AE0FF900348E0FEEED39F500364
:100FD30002106690034AE0FF900348E0FEC3EE9FD1
:100FE300FF90034BEFF090033E121BA0C003C0021F
:100FF300C001900341121B4B90034AE0FB7A00901F
:101003000374EAF0A3EBF0D001D002D0031232B0A4
:10101300900341121B5790034AE0FFE4FCFDFE12CC
:101023001A2C900341121B6390034AE0FF7E009049
:10103300033FEE8FF0121A0090033E121BA0C00371
:10104300C002C001900341121B4B90034BE0FB7A9B
:1010530000900374EAF0A3EBF0D001D002D00312A6
:1010630032B02290033E121BA0C003C002C0019005
:101073000341121B4B900345E0FAA3E0FB9003747A
:10108300EAF0A3EBF0D001D002D0031232B02290E9
:101093000345E0FEA3E0FF90034AE0FD7C00C3EFBD
:1010A3009DFFEE9CFE900345EEF0A3EFF090034509
:1010B300E0FEA3E0FFEEFF7E00900347EFF0900316
:1010C30045E0FEA3E0FF7E00900348EFF090033E6F
:1010D300121BA0C003C002C001900341121B4B901E
:1010E300034AE0FB7A00900374EAF0A3EBF0D0012B
:1010F300D002D0031232B0900341121B5790034A1F
:10110300E0FFE4FCFDFE121A2C900341121B6390D6
:10111300034AE0FF7E0090033FEE8FF0121A009027
:101123000347E0FF14F0EF604190033E121BA090D1
:101133000341121B4B9003747401F0A3E4F01232C9
:10114300B0900341121B4BEF2400FFEE3401FEED80
:101153003400FDEC3400FC900341121B6390033F09
:10116300740175F000121A0080B5900348E0FF7E09
:1011730000EF4E602A90033E121BA0C003C002C0C2
:1011830001900341121B4B900348E0FB7A0090034C
:1011930074EAF0A3EBF0D001D002D0031232B022F4
:1011A3009003B57414F09003B67466F09003B874AA
:1011B30004F09002F0E0FF74808FF084FF9003B995
:1011C300EFF09003BAE4F07F187EC61238749003F0
:1011D300B5E0FF9003B9E0FEC3EE9FFFEFC313FF3B
:1011E3009003B7EFF09003B7E0FF7E00C006C0079F
:1011F3009003B8E0FFEFFD7C00C004C0059003B589
:10120300E0FF7E009003B7E0FD7C00ED2FFBEC3E9A
:10121300FA9003B8E0FF7E009003B6E0FD7C00ED9A
:101223002FFFEC3EFE90035FEEF0A3EFF09003611F
:1012330074A2F0A37454F0D005D004D007D00612E2
:1012430028E19002E2E0FF7E00EF64014E7015900A
:1012530002E3E0FF7E00EF64014E70089003BA746E
:1012630001F080059003BAE4F09002E5E0FD9003FD
:10127300BAE0FB7F0112242A9002F0E0FF7E00C354
:10128300EF9402EE6480948050030214449003B9F7
:10129300E0FF9003B7E02FF09003B7E0FF7E0090EC
:1012A30003B5E0FD7C009003B7E0FB7A00EB2DFB78
:1012B300EA3CFA9003B6E0FD7C00ED2404FDEC3437
:1012C30000FC90035FECF0A3EDF0900361E4F0A366
:1012D300741FF07D047C001228E19002E2E0FF7E9F
:1012E30000EF64024E70159002E3E0FF7E00EF64AE
:1012F300014E70089003BA7401F080059003BAE4BC
:10130300F09002E6E0FD9003BAE0FB7F0212242A8C
:101313009002F0E0FF7E00C3EF9403EE64809480BC
:1013230050030214449003B9E0FF9003B7E02FF099
:101333009003B7E0FF7E009003B5E0FD7C009003CF
:10134300B7E0FB7A00EB2DFBEA3CFA9003B6E0FD35
:101353007C00ED2404FDEC3400FC90035FECF0A36F
:10136300EDF09003617407F0A374E0F07D047C005A
:101373001228E19002E2E0FF7E00EF64034E701555
:101383009002E3E0FF7E00EF64014E70089003BA21
:101393007401F080059003BAE4F09002E7E0FD9059
:1013A30003BAE0FB7F0312242A9002F0E0FF7E00E1
:1013B300C3EF9404EE6480948050030214449003BA
:1013C300B9E0FF9003B7E02FF09003B7E0FF7E0092
:1013D3009003B5E0FD7C009003B7E0FB7A00EB2DB2
:1013E300FBEA3CFA9003B6E0FD7C00ED2404FDEC3F
:1013F3003400FC90035FECF0A3EDF090036174F80C
:10140300F0A3E4F07D047C001228E19002E2E0FF07
:101413007E00EF64044E70159002E3E0FF7E00EF60
:1014230064014E70089003BA7401F080059003BA0A
:10143300E4F09002E8E0FD9003BAE0FB7F0412249D
:101443002A9002E2E0FF7E00EF64014E70097D0105
:101453007F01122A0680409002E2E0FF7E00EF64E3
:10146300024E70097D017F02122A06802A9002E251
:10147300E0FF7E00EF64034E70097D017F03122AB3
:101483000680149002E2E0FF7E00EF64044E7007D2
:101493007D017F04122A069000017401F02290025C
:1014A3009DEEF0A3EFF090029FECF0A3EDF090021D
:1014B300A1EAF0A3EBF09002A9E4F0A3E4F0900218
:1014C300ABE4F0A3E4F090029DE0FEA3E0FF900202
:1014D300A1E0FCA3E0FDC3ED9FFFEC9EFE9002ADF7
:1014E300EEF0A3EFF090029FE0FEA3E0FF9002A3D3
:1014F300E0FCA3E0FDC3ED9FFFEC9EFE9002AFEE88
:10150300F0A3EFF090029DE0FEA3E0FF9002B7EEA0
:10151300F0A3EFF090029FE0FEA3E0FF9002B9EE8C
:10152300F0A3EFF09002ADE0FEA3E0FFD3EF940051
:10153300EE64809480400B9002B3E4F0A37401F056
:1015430080379002ADE0FEA3E0FFEF4E700A9002F9
:10155300B3E4F0A3E4F080219002B374FFF0A3742A
:10156300FFF09002ADE0FEA3E0FFC3E49FFFE49E23
:10157300FE9002ADEEF0A3EFF09002AFE0FEA3E029
:10158300FFD3EF9400EE64809480400B9002B5E4A7
:10159300F0A37401F080379002AFE0FEA3E0FFEF09
:1015A3004E700A9002B5E4F0A3E4F080219002B5F6
:1015B30074FFF0A374FFF09002AFE0FEA3E0FFC35B
:1015C300E49FFFE49EFE9002AFEEF0A3EFF09002E3
:1015D300AFE0FEA3E0FF9002ADE0FCA3E0FDD3ED9E
:1015E3009FEE6480F8EC64809840129002ADE0FEB8
:1015F300A3E0FF9002B1EEF0A3EFF080109002AFF2
:10160300E0FEA3E0FF9002B1EEF0A3EFF09002A79B
:10161300E4F0A3E4F09002B1E0FEA3E0FFEF2401C5
:10162300FFEE3400FE9002A7E0FCA3E0FDD3ED9FA4
:10163300EC9E400302171E9002B7E0FEA3E0FF906A
:1016430002B9E0FCA3E0FD9002A5E0FAA3E0FB12DF
:101653003A159002ADE0FEA3E0FF9002A9EE8FF0F1
:10166300121A009002AFE0FEA3E0FF9002ABEE8FF0
:10167300F0121A009002B1E0FEA3E0FF9002A9E08D
:10168300FCA3E0FDD3ED9FEE6480F8EC648098400A
:10169300309002A9E0FEA3E0FF9002B1E0FCA3E0DA
:1016A300FDC3EF9DFFEE9CFE9002A9EEF0A3EFF0C9
:1016B3009002B3E0FEA3E0FF9002B7EE8FF0121AA0
:1016C300009002B1E0FEA3E0FF9002ABE0FCA3E0D8
:1016D300FDD3ED9FEE6480F8EC6480984030900277
:1016E300ABE0FEA3E0FF9002B1E0FCA3E0FDC3EF9B
:1016F3009DFFEE9CFE9002ABEEF0A3EFF09002B5DF
:10170300E0FEA3E0FF9002B9EE8FF0121A00900200
:10171300A7E475F001121A0002161822900130EFA7
:10172300F0900131EDF07B017A02793F90013212A2
:101733001B4B90037DE4F0A37408F01234989002DD
:1017430041E0FF7E00D3EF9480EE648094804003F9
:10175300021995900243E0FF7E00D3EF9480EE647C
:10176300809480400122900132121B4BEF2408FF2A
:10177300EE3400FEED3400FDEC3400FC9001321237
:101783001B63900243E0FF900241E0FEEE8FF0A462
:10179300FFAEF0EF25E0FFEE33FE900239EEF0A34B
:1017A300EFF0900130E0FF7E00C006C007900131EA
:1017B300E0FFEFFD7C00C004C005900241E0FF7E26
:1017C30000900130E0FD7C00ED2FFFEC3EFEEF24A6
:1017D300FFFBEE34FFFA900243E0FF7E00900131FD
:1017E300E0FD7C00ED2FFFEC3EFEEF24FFFFEE3427
:1017F300FFFE900395EEF0A3EFF0D005D004D007E1
:10180300D006123948900239E0FEA3E0FFD3EF94EB
:1018130000EE94005003021995900239E0FEA3E014
:10182300FFD3EF9400EE940150030218BC900132F1
:10183300121B4BEF54FFFFEE5400FEED5400FDEC82
:101843005400FCC3E49FFF74019EFE90023DEEF042
:10185300A3EFF07B017A017936C003C002C0019087
:101863000132121B4B90023DE0FAA3E0FB90037D93
:10187300EAF0A3EBF0D001D002D003123498900128
:1018830032121B5790023DE0FEA3E0FFE4FCFD1281
:101893001A2C900132121B63900239E0FEA3E0FF81
:1018A30090023DE0FCA3E0FDC3EF9DFFEE9CFE90A4
:1018B3000239EEF0A3EFF08043900239E0FEA3E09B
:1018C300FF90023DEEF0A3EFF07B017A017936C081
:1018D30003C002C001900132121B4B900239E0FA9F
:1018E300A3E0FB90037DEAF0A3EBF0D001D002D09C
:1018F30003123498900239E4F0A3E4F07B017A01F7
:101903007936900236121BA990023DE0FEA3E0FF58
:10191300D3EF9400EE94005003021808900236129D
:101923001BA07582017583001219AFFF7E00900220
:101933003BEEF0A3EFF090023BE0FEA3E0FFEF7F6E
:1019430000FE90023BEEF0A3EFF090023BE0FEA31B
:10195300E0FF900236121BA0121996FD7C00EE4C9C
:10196300FEEF4DFF90023BEEF0A3EFF090023BE061
:10197300FEA3E0FF1240A7900237E475F002121AAB
:101983000090023D74FF75F0FE121A0002190B025B
:10199300180822BB010689828A83E0225002E722CB
:1019A300BBFE02E32289828A83E49322BB010CE516
:1019B3008229F582E5833AF583E0225006E9258200
:1019C300F8E622BBFE06E92582F8E222E58229F544
:1019D30082E5833AF583E49322BB010689828A83F5
:1019E300F0225002F722BBFE01F322EF8DF0A4A8F0
:1019F300F0CF8CF0A428CE8DF0A42EFE22C5F0F8F3
:101A0300A3E028F0C5F0F8E582158270021583E0A3
:101A130038F022A3F8E0C5F025F0F0E582158270D6
:101A2300021583E0C838F0E822EF2BFFEE3AFEED13
:101A330039FDEC38FC2275F008758200EF2FFFEEBC
:101A430033FECD33CDCC33CCC58233C5829BED9AE7
:101A5300EC99E58298400CF582EE9BFEED9AFDEC45
:101A630099FC0FD5F0D6E4CEFBE4CDFAE4CCF9A88B
:101A73008222B800C1B90059BA002DEC8BF084CF93
:101A8300CECDFCE5F0CBF97818EF2FFFEE33FEED6A
:101A930033FDEC33FCEB33FB10D703994004EB9994
:101AA300FB0FD8E5E4F9FA227818EF2FFFEE33FEA7
:101AB300ED33FDEC33FCC933C910D7059BE99A40DC
:101AC30007EC9BFCE99AF90FD8E0E4C9FAE4CCFBF4
:101AD3002275F010EF2FFFEE33FEED33FDCC33CC48
:101AE300C833C810D7079BEC9AE899400AED9BFDD1
:101AF300EC9AFCE899F80FD5F0DAE4CDFBE4CCFAE4
:101B0300E4C8F922EF4BFFEE4AFEED49FDEC48FC39
:101B130022EB9FF5F0EA9E42F0E99D42F0E89C45F6
:101B2300F022E8600FECC313FCED13FDEE13FEEFA0
:101B330013FFD8F122E8600FEFC333FFEE33FEED5E
:101B430033FDEC33FCD8F122E0FCA3E0FDA3E0FE7F
:101B5300A3E0FF22E0F8A3E0F9A3E0FAA3E0FB226D
:101B6300ECF0A3EDF0A3EEF0A3EFF022A8828583BF
:101B7300F0D083D082121B86121B86121B86121B87
:101B830086E473E493A3C583C5F0C583C8C582C83F
:101B9300F0A3C583C5F0C583C8C582C822E0FBA3F3
:101BA300E0FAA3E0F922EBF0A3EAF0A3E9F022D0F4
:101BB30083D082F8E4937012740193700DA3A393FE
:101BC300F8740193F5828883E4737402936860EF79
:101BD300A3A3A380DF900418EFF090000FE4F0902C
:101BE3000012E0FF7E00EF4E703A900011E0FF7E9E
:101BF30000EF4E702F900418E0FF7E00EF645A4E02
:101C030070099000117401F0021E10900418E0FF97
:101C13007E00EF64694E6003021E1090001274018F
:101C2300F0021E10900012E0FF7E00EF4E700302E0
:101C33001CEF900012E0FFEF121BB21C51011C6F4E
:101C4300021C8C031CAA041CCE0500001E10900469
:101C530018E0FF7E00EF64964E7009900012740244
:101C6300F0021E10900012E4F0021E10900418E01F
:101C7300FF900013EFF09000127403F0900418E04B
:101C8300FF900118EFF0021E10900418E0FF90007F
:101C930016EFF09000127404F0900418E0FF900126
:101CA30018E02FF0021E109000177401F090041832
:101CB300E0FF900018EFF0900418E0FF900118E0A7
:101CC3002FF09000127405F0021E10900418E0FF2C
:101CD300900118E0FEEEB5070B123F9F900012E44F
:101CE300F07F0122900012E4F0021E10900011E038
:101CF300FFEF121BB21D11011D2F021D42031D6EAA
:101D0300041D93051DAF061DEF0700001E10900470
:101D130018E0FF7E00EF64A54E7009900011740275
:101D2300F0021E10900011E4F0021E10900418E05F
:101D3300FF900013EFF09000117403F0021E109057
:101D43000418E0FF7E00900014EEF0A3EFF0900083
:101D530014E0FEA3E0FFEF7F00FE900014EEF0A37B
:101D6300EFF09000117404F0021E10900014E0FED6
:101D7300A3E0FF900418E0FD7C00EE4CFEEF4DFF66
:101D8300900014EEF0A3EFF09000117405F0807D45
:101D9300900418E0FF900016EFF0900017E4F09025
:101DA30000117406F0900118E4F08061900418E0CB
:101DB300FF900017E0FE74182EF582E43400F583DB
:101DC300EFF0900418E0FF900118E02FF090001658
:101DD300E0FF900017E0FEEEC39F400890001174EF
:101DE30007F08029900017E004F08021900418E0A8
:101DF300FF900118E0FEEEB5070B12313D90001184
:101E0300E4F07F01227585FF900011E4F07FFF224B
:101E130090000EE0FF7E00EF4E602290027BE00414
:101E2300F090027BE0FF7E00D3EF9432EE64809467
:101E330080400A90027BE4F090000EE4F0900011E1
:101E4300E0FF7E00EF4E602290000FE004F0900070
:101E53000FE0FF7E00D3EF9432EE64809480400A5B
:101E630090000FE4F0900011E4F0900012E0FF7E88
:101E730000EF4E602290000FE004F090000FE0FFAF
:101E83007E00D3EF9432EE64809480400A90000F7A
:101E9300E4F0900012E4F09002E0E0FF7E00EF4EE9
:101EA300702D900406E0FF7E00EF4E702290012714
:101EB300E0FF7E00C3EF9496EE6480948040089028
:101EC300011F7401F0800D900127E004F08005905C
:101ED3000127E4F090012CE0FF7E00EF64014E60E7
:101EE3000690012BE004F090012BE0FF7E00C3EF8E
:101EF300940FEE64809480400B90012BE4F09001EA
:101F03002C7401F0900001E0FF7E00EF64014E703D
:101F13001E9002E3E0FF7E00EF4E701390012FE06E
:101F2300FF7E00EF64014E700690012DE004F090F7
:101F330002E2E0FF7E00EF64014E702E9002F1E0BA
:101F4300FF7E00EF4E702390012DE0FF7E00D3EF64
:101F5300944BEE64809480403390012DE4F0900123
:101F63002EE4F090012FE4F0802290012DE0FF7E1B
:101F730000D3EF944BEE64809480401090012DE4E5
:101F8300F090012E7401F090012FE4F0900122E013
:101F930004F0900122E0FF7E00EF64194E7003B25B
:101FA300A122900122E0FF7E00C3EF9432EE648011
:101FB3009480500302203E900122E4F090011D74AE
:101FC30001F0B2A1900126E0FF7E00C3EF940AEE78
:101FD300648094805006900126E004F090012AE08A
:101FE300FF7E00EF64014E701D900121E4F090012B
:101FF30020E0FF7E00EF4E700690011E7401F0900A
:1020030001207401F022900120E0FF7E00EF6401C3
:102013004E7006900121E004F0900121E0FF7E0064
:10202300D3EF9405EE648094804010900121E4F096
:10203300900120E4F090011E7401F022900363EFFD
:10204300F0900364EDF0900365EBF0900366741277
:10205300F09003677464F09003697405F09002F0E4
:10206300E0FF74808FF084FF90036AEFF0900363C6
:10207300E0FF7E00EF4E7003022261900363E0FFF6
:102083007E00EF64014E700C90036B74A2F0A37496
:1020930054F0803A900363E0FF7E00EF64024E70D9
:1020A3000B90036BE4F0A3741FF08022900363E0B2
:1020B300FF7E00EF64034E700C90036B7407F0A374
:1020C30074E0F0800990036B74F8F0A3E4F09003DC
:1020D3006AE0FFEF24ECFFEFC313FF900363E0FE1E
:1020E300EE14FE90036AE0FDEE8DF0A4FEEE2FFFEA
:1020F300EF04FF900368EFF0900368E0FF7E00C0F9
:1021030006C007900369E0FFEFFD7C00C004C00533
:10211300900366E0FF7E00900368E0FD7C00ED2FF6
:10212300FBEC3EFA900367E0FF7E00900369E0FD5D
:102133007C00ED2FFFEC3EFE900364E0FD7C00C3CA
:10214300EF9DFFEE9CFE9002D4EEF0A3EFF0900221
:10215300D674C6F0A37418F0D005D004D007D00607
:10216300122C36900365E0FFEF607D900368E0FF7B
:102173007E00C006C007900367E0FF7E00900369FE
:10218300E0FD7C00ED2FFFEC3EFE900364E0FD7C60
:1021930000C3EF9DFDEE9CFCC004C005900366E008
:1021A300FF7E00900368E0FD7C00ED2FFBEC3EFA20
:1021B300900369E0FF7E00900367E0FD7C00ED2F54
:1021C300FFEC3EFE9002D4EEF0A3EFF090036BE041
:1021D300FEA3E0FF9002D6EEF0A3EFF0D005D0040B
:1021E300D007D006122C3622900368E0FF7E00C091
:1021F30006C007900367E0FF7E00900369E0FD7C63
:1022030000ED2FFFEC3EFE900364E0FD7C00C3EF86
:102213009DFDEE9CFCC004C005900366E0FF7E00BC
:10222300900368E0FD7C00ED2FFBEC3EFA90036920
:10223300E0FF7E00900367E0FD7C00ED2FFFEC3EA6
:10224300FE9002D4EEF0A3EFF09002D67484F0A3D4
:102253007430F0D005D004D007D006122C362212E9
:1022630041B77F111200467F787E001240797FB11B
:102273001200467F011241607F2C1241607F2D12B4
:1022830041607FB21200467F011241607F2C1241F0
:10229300607F2D1241607FB31200467F01124160BF
:1022A3007F2C1241607F2D1241607F011241607FBC
:1022B3002C1241607F2D1241607FB41200467F07CC
:1022C3001241607FC01200467FA21241607F02125A
:1022D30041607F841241607FC11200467FC5124175
:1022E300607FC21200467F0A1241607F0012416084
:1022F3007FC31200467F8A1241607F2A1241607FAA
:10230300C41200467F8A1241607FEE1241607FC58E
:102313001200467F0E1241607F361200467F68121C
:1023230041607FE01200467F0F1241607F1A124125
:10233300607F0F1241607F181241607F2F1241604E
:102343007F281241607F201241607F221241607F0B
:102353001F1241607F1B1241607F231241607F3750
:102363001241607F001241607F071241607F0212B9
:1023730041607F101241607FE11200467F0F1241DE
:10238300607F1B1241607F0F1241607F1712416013
:102393007F331241607F2C1241607F291241607F9D
:1023A3002E1241607F301241607F301241607F39CD
:1023B3001241607F3F1241607F001241607F07122C
:1023C30041607F031241607F101241607F2A120037
:1023D300467F001241607F021241607F021241601A
:1023E3007F821241607F2B1200467F001241607F83
:1023F300031241607F001241607FA31241607FF0AE
:102403001200467F011241607FF61200467F0012E0
:1024130041607F3A1200467F051241607F29120016
:10242300467F001241792290034CEFF090034DED6B
:10243300F090034EEBF090034F7412F0900350743E
:1024430064F09003527405F0900353746EF090029D
:10245300F0E0FF74808FF084FF900358EFF0900357
:102463004CE0FF7E00EF4E70030225EB900358E033
:10247300FFEF24ECFFEFC313FF90034CE0FEEE14D9
:10248300FE900358E0FDEE8DF0A4FEEE2FFFEF0467
:10249300FF900351EFF090034CE0FF90034DE0FDFC
:1024A30090034EE0FB12203F900351E0FF7E00EFCC
:1024B30024FAFFEE34FFFEC006C007900353E0FF8B
:1024C300EFFD7C00900351E0FF7E00EF241AFBEE4A
:1024D3003400FA900353E0FF7E00EF240FFFEE3445
:1024E30000FE9002D4EEF0A3EFF09002D674C6F093
:1024F300A37418F0D007D006122C3690034DE0FFDA
:102503007E00EF64644E7041900351E024FAF09032
:1025130003547431F09003557430F09003567430C3
:10252300F09003577425F0900351E0FF900353E0BC
:10253300FD7B017A03795490024C7404F090024DB0
:10254300E4F0A3E4F01225EC2290034DE0FF7E00BB
:10255300C3EF940AEE64809480405190034DE0FFF2
:10256300EF75F00A84FFEF2430FF900354EFF090EF
:10257300034DE0FFEF75F00A84AFF0EF2430FF90D6
:102583000355EFF09003567425F0900351E0FF904C
:102593000353E0FD7B017A03795490024C7403F0FA
:1025A30090024DE4F0A3E4F01225EC2290034DE0F9
:1025B300FFEF75F00A84AFF0EF2430FF900354EF80
:1025C300F09003557425F0900351E0FF900353E01E
:1025D300FD7B017A03795490024C7402F090024D12
:1025E300E4F0A3E4F01225EC22900247EFF090020E
:1025F30048EDF0900249121BA990024FE4F09002BB
:102603004CE0FF90024FE0FEEEC39F400302278C95
:10261300900249121BA090024FE0FF8F8275830046
:102623001219AFFF7E00C3EF94A1EE648094804043
:102633000302278C900249121BA090024FE0FF8FE8
:10264300827583001219AFFF900255EFF090025587
:10265300E0FF7E00EF75F010A4FFAEF0900256EE9F
:10266300F0A3EFF0900250E4F0900250E0FF7E0000
:10267300C3EF9410EE64809480503B900250E0FFCF
:102683007E00900256E0FCA3E0FDEF2DFFEE3CFE42
:1026930074722FF58274423EF583E493FF900250E7
:1026A300E0FE74582EF582E43402F583EFF09002D5
:1026B30050E004F080B3900253E4F0900253E0FF43
:1026C3007E00C3EF9410EE6480948040030227835E
:1026D300900252E4F0900252E0FF7E00C3EF9408B0
:1026E300EE64809480400302277A900252E0FFEF69
:1026F3005407FF900251EFF0900253E0FF74582FFC
:10270300F582E43402F583E0FFEFFD3395E0FC90BE
:102713000251E0FF7E007480A807088006CEA2E77E
:1027230013CE13D8F8FFEE5CFEEF5DFFEF4E603E75
:1027330090024FE0FFEF33333354F8FF900252E03F
:10274300FE900247E0FDED2EFEEE2FFF900254EFC8
:10275300F0900254E0FF900248E0FE900253E0FD47
:10276300ED2EFD90024DE0FAA3E0FB123A15900224
:1027730052E004F00226D8900253E004F00226BE91
:1027830090024FE004F00226012290027AE0FF7EDD
:1027930000EF4E70037F0022900279E0FF747D2FDB
:1027A300F582E43402F583E0FF900417EFF0900222
:1027B30079E0FF7E00C3EF941FEE6480948050089D
:1027C300900279E004F08005900279E4F090027AB7
:1027D300E0FF7E00D3EF9400EE6480948040069087
:1027E300027AE014F090000EE0FFEF121BB228040F
:1027F30000281D01283B02287D0328A80400002887
:10280300DE900417E0FF7E00EF645A4E6003022857
:10281300DE90000E7401F00228DE900417E0FF7EC4
:1028230000EF64A54E700990000E7402F00228DEDA
:1028330090000EE4F00228DE900417E0FF7E00D340
:10284300EF9418EE648094805012900417E0FF7E9A
:1028530000C3EF9401EE64809480500790000EE46F
:10286300F08078900417E0FFC3EF9401FF9000021B
:10287300EFF090000E7403F08061900417E0FF7E88
:1028830000EF64824E600790000EE4F0804D9004E8
:1028930017E0FF900003EFF090000CE4F090000EBF
:1028A3007404F08036900417E0FF90000CE0FE748F
:1028B300042EF582E43400F583EFF090000CE0047D
:1028C300F0900002E0FF90000CE0FEEEC39F400B8F
:1028D30012308090000EE4F07F01227F02229003E9
:1028E30059EEF0A3EFF090035BECF0A3EDF090034F
:1028F3005DEAF0A3EBF0900359E0FEA3E0FFC0060E
:10290300C00790035BE0FCA3E0FD90035DE0FAA346
:10291300E0FB90035BE0FEA3E0FF9002A3EEF0A3D5
:10292300EFF0900361E0FEA3E0FF9002A5EEF0A3B9
:10293300EFF0D007D0061214A1900359E0FEA3E0F4
:10294300FFC006C00790035BE0FCA3E0FD900359C2
:10295300E0FAA3E0FB90035FE0FEA3E0FF9002A395
:10296300EEF0A3EFF0900361E0FEA3E0FF9002A579
:10297300EEF0A3EFF0D007D0061214A1900359E0B4
:10298300FEA3E0FFC006C00790035FE0FCA3E0FDE9
:1029930090035DE0FAA3E0FB90035FE0FEA3E0FF9A
:1029A3009002A3EEF0A3EFF0900361E0FEA3E0FF3B
:1029B3009002A5EEF0A3EFF0D007D0061214A19079
:1029C300035DE0FEA3E0FFC006C00790035BE0FCED
:1029D300A3E0FD90035DE0FAA3E0FB90035FE0FE5C
:1029E300A3E0FF9002A3EEF0A3EFF0900361E0FEFB
:1029F300A3E0FF9002A5EEF0A3EFF0D007D00612FC
:102A030014A122900397EFF0900398EDF0900399AF
:102A13007412F090039A7464F090039C7405F09020
:102A2300039D746EF09002F0E0FF74808FF084FFDA
:102A330090039EEFF0900397E0FF7E00EF4E70034C
:102A4300022B2990039EE0FFEF24ECFFEFC313FF5B
:102A5300900397E0FEEE14FE90039EE0FDEE8DF0F2
:102A6300A4FEEE2FFFEF04FF90039BEFF09003987B
:102A7300E0FFEF605890039BE0FF7E00EF24F9FF37
:102A8300EE34FFFEC006C00790039DE0FF7E00EF1B
:102A930024FFFDEE34FFFC90039BE0FF7E00EF2458
:102AA3001BFBEE3400FA90039DE0FF7E00EF241041
:102AB300FFEE3400FE90035FEEF0A3EFF0900361AE
:102AC300E4F0A3E4F0D007D0061228E12290039BA0
:102AD300E0FF7E00EF24F9FFEE34FFFEC006C007DF
:102AE30090039DE0FF7E00EF24FFFDEE34FFFC909A
:102AF300039BE0FF7E00EF241BFBEE3400FA900300
:102B03009DE0FF7E00EF2410FFEE3400FE90035F94
:102B1300EEF0A3EFF090036174C6F0A37418F0D045
:102B230007D0061228E1229000017402F07F187E7C
:102B3300C61238747BFF7A42791B90024C740BF0F7
:102B430090024DE4F0A3E4F07D087F081225EC9099
:102B530002F0E0FD7F021231FA90035FE4F0A37408
:102B630019F0900361E4F0A3E4F07B7E7A007D0723
:102B73007C007F5F7E001228E17BFF7A42792790F9
:102B8300024C740AF090024DE4F0A3E4F07D1C7F44
:102B9300081225EC9002EEE0FD7F031231FA7BFF71
:102BA3007A42793290024C7409F090024DE4F0A31A
:102BB300E4F07D307F081225EC9002EAE0FD7F040B
:102BC3001231FA7BFF7A42793C90024C7409F090FF
:102BD300024DE4F0A3E4F07D447F081225EC90025B
:102BE300EBE0FD7F051231FA7BFF7A4279469002D2
:102BF3004C7409F090024DE4F0A3E4F07D587F0893
:102C03001225EC9002ECE0FD7F061231FA7BFF7A8D
:102C130042795090024C7409F090024DE4F0A3E421
:102C2300F07D6C7F081225EC9002EDE0FD7F07122A
:102C330031FA229002CEEEF0A3EFF09002D0ECF046
:102C4300A3EDF09002D2EAF0A3EBF09002CEE0FE07
:102C5300A3E0FF9002D2E0FCA3E0FDC3ED9FFFECF5
:102C63009EFEEF2401FFEE3400FE9002DCEEF0A3A3
:102C7300EFF09002D0E0FEA3E0FF9002D4E0FCA3CB
:102C8300E0FDC3ED9FFFEC9EFEEF2401FFEE340059
:102C9300FE9002DEEEF0A3EFF09002CEE0FEA3E0A2
:102CA300FFC006C0079002D0E0FCA3E0FD9002D273
:102CB300E0FAA3E0FB9002D4E0FEA3E0FF900395CB
:102CC300EEF0A3EFF0D007D0061239489002D8E413
:102CD300F0A3E4F09002DEE0FEA3E0FF9002D8E070
:102CE300FCA3E0FDC3ED9FEC9E50429002DAE4F0BA
:102CF300A3E4F09002DCE0FEA3E0FF9002DAE0FC44
:102D0300A3E0FDC3ED9FEC9E50179002D6E0FEA317
:102D1300E0FF1240A79002DAE475F001121A008076
:102D2300D29002D8E475F001121A0080A722900312
:102D3300F5EFF09003F6EDF09003F7E4F090001058
:102D4300E0FF7E00EF64014E700543C11080EE90FA
:102D530000107401F0758569900010E0FF7E00EFAC
:102D630064014E700543C11080EE9000107401F0B1
:102D7300758596900010E0FF7E00EF64014E7005AC
:102D830043C11080EE9000107401F090011CE0FF2D
:102D93008F8590011CE0FF9003F7E02FF090001067
:102DA300E0FF7E00EF64014E700543C11080EE909A
:102DB30000107401F09003F5E0FF8F859003F5E0B8
:102DC300FF9003F7E02FF0900010E0FF7E00EF6428
:102DD300014E700543C11080EE9000107401F09015
:102DE30003F6E0FF8F859003F6E0FF9003F7E02FF3
:102DF300F0900010E0FF7E00EF64014E700543C1C8
:102E03001080EE9000107401F09003F7E0FF8F85BF
:102E1300229003DD121BA990027CE0FF7E00EF6489
:102E2300014E700543C11080EE90027C7401F07571
:102E33009B5A90027CE0FF7E00EF64014E700543D5
:102E4300C11080EE90027C7401F0759BA590027C0A
:102E5300E0FFEF600543C11080F390027C7401F042
:102E63009003DD121BA0121996FF8F9B90027CE04A
:102E7300FFEF600543C11080F390027C7401F09072
:102E830003DD121BA07582017583001219AFFF8F3A
:102E93009B9003E0E4F09003DD121BA0121996FF50
:102EA300EF14FF9003E0E0FEEEC39F503C90027CE2
:102EB300E0FFEF600543C11080F390027C7401F0E2
:102EC3009003DD121BA0E92402F9EA3400FA90030F
:102ED300E0E0FF7E00E92FF9EA3EFA121996FF8F30
:102EE3009B9003E0E004F080AD221240D51233FF43
:102EF3007E00EF4E700280FE123F651240FB1241CE
:102F0300211222621241911241F07F647E0012402D
:102F130079900132121B6F000000007D007F0012C8
:102F2300171F7F01124179D2AF7D017F10124045F7
:102F33001241DA1239B07D017F101240459001260B
:102F4300E0FF7E00C3EF940AEE64809480503E431A
:102F5300C110900126E0FF7E00C3EF9403EE64806E
:102F63009480400B90012AE0FF7E00EF4E701E908C
:102F7300011DE0FFEF601190011DE4F090012AE4D0
:102F8300F07D017F1012404512278D80B090011E05
:102F9300E4F01241A47B017A0279E19002BF74103C
:102FA300F07F1012372843C11012278D120096129A
:102FB3002FB880F22290011DE0FFEF604C90011DBD
:102FC300E4F090012AE4F0900000E0FF7E00EF4E71
:102FD300700F7D017F101240459000007401F08056
:102FE30028900000E0FF7E00EF64014E700F7D012A
:102FF3007F111240459000007402F0800C7D017F28
:1030030012124045900000E4F090011EE0FFEF60D3
:103013001C90011EE4F07B017A0279E19002BF74F7
:1030230010F07F101237281241A41241DA90011FC9
:10303300E0FFEF600E90011FE4F09002E07401F0F6
:1030430012414290012EE0FFEF603190012EE4F037
:10305300900001E0FF7E00EF64014E701F9002E3D9
:10306300E0FF7E00EF4E70147F01123EB09002E24B
:10307300E0FD9002E3E0FB7F11123DEA229003F8AA
:10308300E4F0900004E0FF9003F9EFF0900002E019
:10309300FFEF14FF9003FAEFF0900121E4F09001A9
:1030A3002A7401F0900120E0FF7E00EF4E700C9037
:1030B30001207401F090011E7401F09003F9E0FF08
:1030C3007E00EF64104E7019900005E0FF9002E15E
:1030D300E0FEEE6F60639002E1E0FD7F1012005EA0
:1030E300229003F9E0FF7E00EF64114E70269000FA
:1030F30005E0FF9002E2E0FEEE6F603D900001E02C
:10310300FF7E00EF64014E70309002E2E0FD7F111C
:1031130012005E229003F9E0FF7E00EF64124E700E
:1031230018900005E0FF9002E3E0FEEE6F600A9066
:1031330002E3E0FD7F1212005E22900013E0FF7EA7
:1031430000EF64014E60030231F6900014E0FEA329
:10315300E0FFEF4E70159003D5121B6F00000000C7
:103163007F007E007D007C00123809900014E0FE91
:10317300A3E0FFEF7F00FEE4FCFD9003D9121B6385
:103183007B007A10790078009003D9121B4B121A36
:10319300759003D5121B57C3121B1460209003D9DB
:1031A300121B4B1238097B007A10790078009003C8
:1031B300D9121B4B121A759003D5121B637B017A2C
:1031C300007918C003C002C0019003D9121B4B90B1
:1031D3000016E0FB7A00EB2401FBEA3400FA9003CB
:1031E30045EAF0A3EBF0D001D002D003120E8D75A7
:1031F3008501227585FE229003BBEFF09003BCEDA1
:10320300F09003BBE0FFEF75F014A4FFEF24E0FFA1
:103213009003C0EFF09003C0E0FFEFFD7C0090034C
:10322300C0E0FF7E00EF2410FFEE3400FE9002D4D6
:10323300EEF0A3EFF09002D674C6F0A37418F07BFF
:103243007E7A007F5F7E00122C369003BCE0FFEF96
:1032530075F06484FFEF2430FF9003BDEFF090031B
:10326300BCE0FFEF75F06484AFF0EF75F00A84FF04
:10327300EF2430FF9003BEEFF09003BCE0FFEF7547
:10328300F00A84AFF0EF2430FF9003BFEFF0900318
:10329300C0E0FD7B017A0379BD90024C7403F0908A
:1032A300024DE4F0A3E4F07F601225EC2290036D5D
:1032B300121BA9900370121B631241E6C2A27F0284
:1032C300123DA4900370121B4BEF5400FFEE540009
:1032D300FEED54FFFDEC5400FC7810121B25123D4B
:1032E300A4900370121B4BEF5400FFEE54FFFEED4E
:1032F3005400FDEC5400FC7808121B25123DA490E9
:103303000370121B4BEF54FFFFEE5400FEED54000D
:10331300FDEC5400FC123DA4900374E0FEA3E0FF17
:10332300D3EF9400EE940140099003747401F0A369
:10333300E4F090037474FF75F0FF121A16AFF0FEF9
:10334300EF4E601990036D121BA0121996FF123DE8
:10335300A490036EE475F001121A0080D5D2A21274
:10336300001622900001E0FF7E007C007D141219FC
:10337300EEEF24CBFBEE34FFFA900001E0FF7E007A
:103383007C007D141219EEEF24DDFFEE34FFFE9076
:10339300035FEEF0A3EFF090036174C6F0A374181B
:1033A300F0AD03AC027B7E7A007F5F7E001228E1E2
:1033B300900001E0FF7E007C007D141219EEEF24E3
:1033C300DFFBEE34FFFA900001E0FF7E007C007D1E
:1033D300141219EEEF24F1FFEE34FFFE90035FEEBB
:1033E300F0A3EFF0900361E4F0A3E4F0AD03AC02CB
:1033F3007B7E7A007F5F7E001228E122123B7F7B77
:10340300FF7A7179239003D1121BA99003D0E4F0C2
:103413009003D0E0FF7E00C3EF9407EE64809480B6
:10342300506B9003D0E0FF74A02FF582E43403F5D2
:1034330083E0FFEF6437FF9003D4EFF09003D4E011
:10344300FFEF25E0FF9003D4EFF09003D4E02421B5
:10345300F09003D4E0FFEFC313FF9003D4EFF09099
:1034630003D1121BA09003D0E0FF8F82758300125B
:1034730019AFFF9003D4E0FEEF6E600990039F74D1
:1034830001F07F00229003D0E004F0808390039F3B
:10349300E4F07F0122900376121BA9900379121B9B
:1034A30063C2A27F03123DA4900379121B4BEF5416
:1034B30000FFEE5400FEED54FFFDEC5400FC7810C9
:1034C300121B25123DA4900379121B4BEF5400FFEE
:1034D300EE54FFFEED5400FDEC5400FC7808121B83
:1034E30025123DA4900379121B4BEF54FFFFEE54BA
:1034F30000FEED5400FDEC5400FC123DA490037D4E
:1035030074FF75F0FF121A16AFF0FEEF4E6019123A
:103513003C78900376121BA0EF1219DC900377E43A
:1035230075F001121A0080D5D2A222787FE4F6D872
:10353300FD758107023575022EEDE493A3F8E4933C
:10354300A34003F68001F208DFF48029E493A3F893
:103553005407240CC8C333C4540F4420C883400405
:10356300F456800146F6DFE4800B010204081020C4
:1035730040809036B4E47E019360BCA3FF543F3097
:10358300E509541FFEE493A360010ECF54C025E068
:1035930060A840B8E493A3FAE493A3F8E493A3C820
:1035A300C582C8CAC583CAF0A3C8C582C8CAC583B1
:1035B300CADFE9DEE780BE7F187EC6123874900347
:1035C3005FE4F0A3747BF0900361E4F0A3E4F07B89
:1035D3007B7A007D057C007F057E001228E17BFF5E
:1035E3007A4179F990024C7408F090024D74F8F026
:1035F300A3E4F07D107F211225EC7BFF7A42790250
:1036030090024C740CF090024D74F8F0A3E4F07D3A
:10361300307F0D1225EC7BFF7A42790F90024C74B8
:103623000BF090024D74F8F0A3E4F07D407F0D128F
:1036330025EC90000174FFF0229000017408F07FE4
:10364300187EC61238747BFF7A42795A90024C7402
:103653000BF090024DE4F0A3E4F07D087F081225FF
:10366300EC9002EFE0FD7F021231FA90035FE4F089
:10367300A37419F0900361E4F0A3E4F07B7E7A0075
:103683007D077C007F5F7E001228E17BFF7A427911
:103693006690024C740BF090024DE4F0A3E4F07DCD
:1036A3001C7F081225EC9002F1E0FD7F031231FA32
:1036B300224101190041011C004100010041011D8B
:1036C3000041011E0041011F004101200041012171
:1036D3000041012200410123004101240041012551
:1036E3000041012600410127004101280041012931
:1036F3000041012A0041012B0041012C0141012D10
:103703000041012E0041012F00410000004403D578
:1037130000000000410404884104058841040600B8
:1037230041039F00009002BBEFF09002BC121BA963
:103733009002BFE0FFEF2402FF9002C1EFF090027E
:10374300C27480F09002BBE0FF9002C3EFF09002DE
:10375300C0E4F09002BFE0FF9002C0E0FEEEC39F22
:10376300502D9002BC121BA0121996FF9002C0E0CC
:10377300FE74C42EF582E43402F583EFF09002BDAB
:10378300E475F001121A009002C0E004F080C47BDB
:10379300017A0279C1122E1422C0E0C083C082C014
:1037A300D075D000C006C007E59A30E108539AFDF2
:1037B30090027CE4F0E59A30E03F539AFE90027B5E
:1037C300E4F0900278E0FF747D2FF582E43402F593
:1037D30083E59BF090027AE004F0900278E0FF7EAC
:1037E30000C3EF941FEE648094805008900278E049
:1037F30004F08005900278E4F0D007D006D0D0D052
:1038030082D083D0E0329003E9121B631241E6C2F7
:10381300A27F20123DA49003E9121B4BEF5400FF3B
:10382300EE5400FEED54FFFDEC5400FC7810121B27
:1038330025123DA49003E9121B4BEF5400FFEE54F5
:10384300FFFEED5400FDEC5400FC7808121B25121A
:103853003DA49003E9121B4BEF54FFFFEE5400FE0F
:10386300ED5400FDEC5400FC123DA4D2A21200164C
:10387300229003E1EEF0A3EFF0900395E4F0A3743C
:1038830084F07B827A007D007C007F007E00123909
:10389300489003E3E4F09003E3E0FF7E00C3EF947A
:1038A30082EE6480948050329003E4E4F09003E469
:1038B300E0FF7E00C3EF9484EE6480948050139005
:1038C30003E1E0FEA3E0FF1240A79003E4E004F06D
:1038D30080DB9003E3E004F080BC229002E07401FB
:1038E300F09002E3E4F09002F07404F09002E174CB
:1038F30001F09002E47401F09002E57401F090028B
:10390300E67401F09002E77401F09002E87401F0AC
:103913009002E27401F09002E9E4F09002EAE4F02C
:103923009002EB7419F09002EC7432F09002ED7493
:103933004BF09002EE745AF09002EF7401F0900293
:10394300F17401F02290038FEEF0A3EFF090039156
:10395300ECF0A3EDF0900393EAF0A3EBF07F2A12CF
:1039630000467F0012416090038FE0FEA3E0FF1248
:1039730041607F00124160900393E0FEA3E0FF12D9
:1039830041607F2B1200467F00124160900391E05B
:10399300FEA3E0FF1241607F00124160900395E0B7
:1039A300FEA3E0FF1241607F2C120046227B017AC6
:1039B3000279E09003B3E4F0A37412F07F007E0079
:1039C300123B279002E2E0FF7E00D3EF9405EE6402
:1039D30080948050369002E3E0FF7E00D3EF9401A1
:1039E300EE6480948050249002E1E0FF7E00D3EFE8
:1039F3009401EE6480948050129002EFE0FF7E0009
:103A0300D3EF9401EE6480948040061238DE1241B5
:103A130042229003E5EFF09003E6EDF09003E7EA2E
:103A2300F0A3EBF09003E5E0FF7E00C006C0079033
:103A330003E6E0FFEFFD7C009003E5E0FF7E00EF8F
:103A43002401FBEE3400FA9003E6E0FF7E00EF244E
:103A530001FFEE3400FE900395EEF0A3EFF0D007E4
:103A6300D0061239489003E7E0FEA3E0FF1240A717
:103A730022C0E0C0F0C083C082C0D075D000C000B7
:103A8300C001C002C003C004C005C006C007E5846E
:103A930030E1085384FD900010E4F0E58430E01138
:103AA3005384FE900419E585F0900419E0FF121B7E
:103AB300D8D007D006D005D004D003D002D001D08F
:103AC30000D0D0D082D083D0F0D0E0329003A7EEE4
:103AD300F0A3EFF09003A9121BA99003ACE0FEA39F
:103AE300E0FFD3EF9400EE6480948040369003A708
:103AF300E0FEA3E0FF9003A9121BA0121996FD128A
:103B03003E2D9003AAE475F001121A009003A7E476
:103B130075F001121A009003AC74FF75F0FF121ACE
:103B23000080B7229003AEEEF0A3EFF09003B01243
:103B33001BA99003B3E0FEA3E0FFD3EF9400EE6470
:103B430080948040369003AEE0FEA3E0FF123E6F08
:103B53009003B0121BA0EF1219DC9003B1E475F0CF
:103B630001121A009003AEE475F001121A009003DB
:103B7300B374FF75F0FF121A0080B7229003F1E4CB
:103B8300F07B007A0079F19003F2121BA99003F104
:103B9300E4F09003F1E0FF7E00C3EF9407EE64804E
:103BA3009480502D9003F2121BA09003F1E0FF8F3D
:103BB300827583001219AFFF9003F1E0FE74A02E0B
:103BC300F582E43403F583EFF09003F1E004F08031
:103BD300C122900416EFF0900416E0FF9002E2E099
:103BE300FEEE6F60419002E2E0FF9002E2E0FE74BD
:103BF300E42EF582E43402F583E0FD7B0012203FDE
:103C03009002E2E0FF7D00122A06900416E0FF9086
:103C130002E2EFF09002E2E0FF7D01122A06900239
:103C2300E3E0FF123EB02290040DEFF090040EE4A7
:103C3300F090040E7408F090040EE0FF7E00D3EFC2
:103C43009400EE64809480402B90040DE0FFEF30ED
:103C5300E704D2938002C29300C29200D2929004EE
:103C63000DE0FFEF25E0FF90040DEFF090040EE070
:103C730014F080C322900412E4F0900411E4F09055
:103C83000411E0FF7E00C3EF9408EE64809480503B
:103C93002BC2A5900412E0FFEF25E0FF900412EF82
:103CA300F0D2A530A40E900412E0FFEF4401FF9080
:103CB3000412EFF0900411E004F080C3900412E0CA
:103CC300FF22C0E0C0F0C083C082C0D075D000C066
:103CD30000C001C002C003C004C005C006C0077F06
:103CE300057E00123FD820B70930B306900406744E
:103CF30001F0D007D006D005D004D003D002D00104
:103D0300D000D0D0D082D083D0F0D0E032C0E0C099
:103D1300F0C083C082C0D075D000C000C001C00213
:103D2300C003C004C005C006C0077F057E00123F64
:103D3300D820B30930B70690040674FFF0D007D03B
:103D430006D005D004D003D002D001D000D0D0D00B
:103D530082D083D0F0D0E0329000017409F0900358
:103D63005FE4F0A37419F090036174C6F0A37418B0
:103D7300F07B7E7A007D077C007F5F7E001228E166
:103D830090035FE4F0A3742DF0900361E4F0A3E4E7
:103D9300F07B7E7A007D1B7C007F5F7E001228E132
:103DA30022900413EFF0900414E4F0900414E0FF65
:103DB3007E00C3EF9408EE6480948050299004132E
:103DC300E0FFEF30E704D2A38002C2A3C2A5D2A5CD
:103DD300900413E0FFEF25E0FF900413EFF090044D
:103DE30014E004F080C5229002F2EFF09002F3EDAC
:103DF300F09002F4EBF09002F57404F09002F67484
:103E030080F09002F2E0FF9002F7EFF09002F3E00F
:103E1300FF9002F8EFF09002F4E0FF9002F9EFF068
:103E23007B017A0279F5122E14229003FEEEF0A3A1
:103E3300EFF0900400EDF075C78075F52175C502AC
:103E43009003FEE0FEA3E0FF8FC49003FEE0FEA319
:103E5300E0FFEEFF3395E0FE8FC3900400E0FF8F99
:103E6300C275C65A75C6A5001241CA229003FBEE5D
:103E7300F0A3EFF075C78075F52175C5019003FBBD
:103E8300E0FEA3E0FF8FC49003FBE0FEA3E0FFEEA0
:103E9300FF3395E0FE8FC375C65A75C6A500900320
:103EA300FDE5C2F01241CA9003FDE0FF2290041524
:103EB300EFF0900415E0FF7E00EF4E700590012FA8
:103EC300E4F0900415E0FF9002E3EFF09002E2E0EB
:103ED300FF9002E2E0FE74E42EF582E43402F583FF
:103EE300E0FD9002E3E0FB12203F229003C1121B8E
:103EF300A99003C4EDF09003C5E4F09003C4E0FF80
:103F03009003C5E0FEEEC39F501C9003C1121BA09B
:103F1300E41219DC9003C2E475F001121A00900355
:103F2300C5E004F080D522C0E0C0F0C083C082C0E9
:103F3300D075D000C000C001C002C003C004C005DA
:103F4300C006C007121E13D007D006D005D004D078
:103F530003D002D001D000D0D0D082D083D0F0D013
:103F6300E032D2A6D2A7D280D281D2B2D2B3C2B625
:103F7300D2B7D2A0C2A17594007593007592007553
:103F8300910075962E75950075B24075B10075CA8E
:103F93001075C900D28AD2AA758F2022900013E02F
:103FA300FF90011CEFF0900016E0FF90011AEFF074
:103FB300900018E0FF90011BEFF0900013E0FF7EEC
:103FC30000EF64804E70079001197401F022900194
:103FD300197402F022900407EEF0A3EFF0900407A7
:103FE300E0FEA3E0FFEF25E0FFEE33FE900407EED3
:103FF300F0A3EFF090040774FF75F0FF121A00AFFF
:10400300F0FEEF4E600543C11080E92290040BEEF1
:10401300F0A3EFF075C78075F52175C50390040B08
:10402300E0FEA3E0FF8FC490040BE0FEA3E0FFEEED
:10403300FF3395E0FE8FC375C65A75C6A5001241BE
:10404300CA22900321EFF0900322EDF09003237432
:1040530003F09003247481F0900321E0FF90032583
:10406300EFF0900322E0FF900326EFF07B017A0349
:104073007923122E1422900409EEF0A3EFF090049A
:1040830009E0FEA3E0FFD3EF9400EE940040147F19
:10409300907E01123FD890040974FF75F0FF121A45
:1040A3000080DB22900401EEF0A3EFF0900403E420
:1040B300F0C2B5D295900401E0FEA3E0FFEEFF7ECF
:1040C30000123C2A900401E0FEA3E0FF123C2AD236
:1040D300B52275BA8090FE0374C0F090FE03E0FF32
:1040E300EF20E00543C11080F290FE01E4F090FE62
:1040F300007401F075BA0022439A1075D7A275D6E1
:10410300FC438E1443AF017B017A0279787D25123B
:104113003EEE7B017A0079027D0D123EEE2275841C
:104123001043844043D12075D3B875D2FF43D18067
:1041330043AF107B017A00790F7D0A123EEE227F96
:10414300007E0012400F7B017A0279E09003ACE419
:10415300F0A37412F07F007E00123ACF2290040F76
:10416300EFF0900410E4F0C2B5D29590040FE0FF95
:10417300123C2AD2B52290041BEFF090041BE0FFFF
:104183007E00EF64014E7003D2B422C2B422538E78
:104193007F5389F0758A00758C28D2A9C28DD28C81
:1041A3002290012AE0FF7E00EF4E70041235BA22FE
:1041B3001211A322C2947F647E00124079D2947FAD
:1041C300647E001240792275C70075C50075C6006C
:1041D30075C38075C40022C2A07F647E001240793B
:1041E300D2A022C2A27F06123DA4D2A222D2A2D280
:1041F300A5D2A3D2A4225761726E6E696E67004482
:10420300726976657220626F6172640064697363B8
:104213006F6E6E65637421004C4544204E756D626C
:1042230065723A004D6F746F72537465703A004C47
:10423300454431204C6F743A004C454432204C6F56
:10424300743A004C454433204C6F743A004C454457
:1042530034204C6F743A004472697665722046616B
:104263006E3A00507572706C656C616D703A000047
:10427300000000000000000000000000000000003B
:10428300000000000000000000000000000000002B
:10429300000000000000000000000000000000001B
:1042A300000000000000000000000000000000000B
:1042B30000000000000000000000000000000000FB
:1042C30000000000000000000000000000000000EB
:1042D30000000000000000000000000000000000DB
:1042E30000000000000000000000000000000000CB
:1042F30000001808C80808000000000000000000C3
:10430300007F6060606060606060E06020000000CB
:10431300000000000000000000000000000000009A
:104323000018181810101000000000000000000012
:10433300000000000000000808080C0C0C0000003E
:10434300000000000000000000000000000000006A
:10435300006C3810007CC6701CC67C000000000096
:104363000010386C00780C7CCCCC76000000000088
:1043730000000000007CC670C0C67C000000000086
:1043830000000000006C967CD0D66C00000000009A
:1043930000000000007CC60606C67C00000000008A
:1043A3000000386CC6C6FEC6C66C380000000000AC
:1043B300000000001038286C44C6C600000000004E
:1043C30000000000007CC606FEC67C000000000062
:1043D3000000000000DC666666F60606663C000028
:1043E30000006C38F80C7EC6C6C67C0000000000D6
:1043F30000000E1B18181818181818D870000000A1
:1044030000000000FE860C180C0606C67C000000A7
:104413000076DC0000780C7CCCCC76000000000039
:104423000076DC00007CC60606C67C0000000000A7
:104433000076DC0000DC666666666600000000004D
:10444300000000000076999F98996F00000000001B
:10445300000000000000000000000C060600000041
:104463000000000000000000003C66663C00000005
:104473000000000000000000000000000000000039
:104483000000183C3C3C18180018180000000000FD
:1044930000C6C6C644000000000000000000000083
:1044A30000006C6CFE6C6C6CFE6C6C000000000019
:1044B30018187CC6C2C07C0686C67C18180000008B
:1044C30000000000C3C60C183063C30000000000E6
:1044D3000000386C6C3876DCCCCC76000000000031
:1044E30000303030600000000000000000000000D9
:1044F3000000183060606060603018000000000049
:104503000000180C06060606060C18000000000042
:10451300000000006C38FE386C0000000000000052
:104523000000001818187E1818180000000000007A
:104533000000000000000000181818300000000000
:10454300000000000000FE0000000000000000006A
:104553000000000000000000001818000000000028
:10456300000002060C183060C0800000000000004C
:1045730000007CC6CEDEF6E6C6C67C000000000066
:10458300000018387818181818187E00000000006A
:1045930000007CC6060C183060C6FE000000000058
:1045A30000007CC606063C0606C67C000000000030
:1045B30000000C1C3C6CCCFE0C0C1E000000000028
:1045C3000000FEC0C0C0FC0606C67C000000000060
:1045D30000003860C0C0FCC6C6C67C0000000000F6
:1045E3000000FEC6060C183030303000000000001A
:1045F30000007CC6C6C67CC6C6C67C0000000000A0
:1046030000007CC6C6C67E06060C780000000000CB
:104613000000001818000000181800000000000037
:1046230000000018180000001818300000000000F7
:104633000000060C18306030180C06000000000063
:1046430000000000007E00007E000000000000006B
:1046530000006030180C060C1830600000000000E9
:1046630000007CC6C60C18180018180000000000D3
:1046730000007CC6C6DEDEDEDCC07C00000000007D
:10468300000010386CC6C6FEC6C6C6000000000097
:104693000000FC6666667C666666FC00000000003F
:1046A30000003C66C2C0C0C0C2663C0000000000FF
:1046B3000000F86C66666666666CF8000000000031
:1046C3000000FE66626878686266FE000000000013
:1046D3000000FE66626878686060F0000000000019
:1046E30000003C66C2C0C0DEC6663A00000000009F
:1046F3000000C6C6C6C6FEC6C6C6C6000000000089
:1047030000003C181818181818183C000000000086
:1047130000001E0C0C0C0C0CCCCC7800000000002C
:104723000000E6666C6C786C6C66E60000000000C6
:104733000000F060606060606266FE0000000000E0
:104743000000C6EEFED6C6C6C6C6C6000000000000
:104753000000C6E6F6FEDECEC6C6C60000000000B8
:104763000000386CC6C6C6C6C66C38000000000020
:104773000000FC6666667C606060F000000000007C
:1047830000007CC6C6C6D6DE7C0C0E00000000000E
:104793000000FC6666667C6C6666E600000000004E
:1047A30000007CC6C660380CC6C67C000000000052
:1047B30000007E5A1818181818183C000000000052
:1047C3000000C6C6C6C6C6C6C6C67C00000000003A
:1047D3000000C6C6C6C6C6C66C381000000000007E
:1047E3000000C6C6C6C6C6D6FEEEC6000000000060
:1047F3000000C6C6C66C386CC6C6C6000000000002
:104803000000C6C6C66C383838387C00000000008B
:104813000000FEC68C183060C2C6FE000000000017
:1048230000003C303030303030303C0000000000BD
:10483300000080C0E070381C0E060200000000007B
:1048430000003C0C0C0C0C0C0C0C3C000000000099
:1048530010386CC6000000000000000000000000DB
:10486300000000000000000000000000FE00000047
:1048730000303018000000000000000000000000BD
:104883000000000000780C7CCCCC76000000000017
:104893000000E06060786C666666DC000000000083
:1048A30000000000007CC6C0C0C67C000000000001
:1048B30000001C0C0C3C6CCCCCCC7600000000003F
:1048C30000000000007CC6FEC0C67C0000000000A3
:1048D30000001C3632307C3030307800000000009D
:1048E300000000000076CCCCCC7C0CCC780000001F
:1048F3000000E060606C76666666E600000000001B
:10490300000018180038181818183C0000000000A0
:1049130000000606000E0606060666663C0000005A
:104923000000E06060666C786C66E60000000000E2
:10493300000038181818181818183C000000000058
:10494300000000000044FED6D6D6D60000000000CA
:104953000000000000DC666666666600000000007A
:1049630000000000007CC6C6C6C67C000000000034
:104973000000000000DC6666667C6060F0000000FA
:10498300000000000076CCCCCC7C0C0C1E00000098
:104993000000000000DC76666060F00000000000AC
:1049A30000000000007CC6701CC67C0000000000F4
:1049B3000000103030FC303030361C0000000000A6
:1049C3000000000000CCCCCCCCCC76000000000072
:1049D3000000000000C6C6C66C38100000000000CE
:1049E3000000000000C6C6C6D6FE6C000000000032
:1049F3000000000000C66C38386CC60000000000E0
:104A03000000000000C6C6C6C67E060C7800000083
:104A13000000000000FECC183066FE00000000001D
:104A230000000E181818701818180E000000000067
:104A330000001818181800181818180000000000B3
:104A43000000701818180E181818700000000000E5
:104A5300000076DC00000000000000000000000001
:104A63000000000000000000000000000000000043
:104A73000000000000000000000000000000000033
:0F4A830000000000000000000000000000000024
:00000001FF
