:030000000239437F
:03000B0002433F6E
:1000130002412590041EE4F0C2A27F051241B912E9
:10002300408D90041EEFF0D2A290041EE0FFEF5427
:0B00330001FF7E00EF64014E60DE2242
:10004300023BB190041AEFF0C2B5C29590041AE0D6
:07005300FF12403FD2B5226D
:10005B000240DA900312EFF0900313EDF0900314CB
:10006B007403F09003157480F0900312E0FF90037B
:10007B0016EFF0900313E0FF900317EFF07B017A7C
:07008B0003791412321C225C
:10009300023E899003CCE4F0A3E4F09003CEE4F0B5
:1000A3009003CFE4F090012AE0FF7E00EF4E70034F
:1000B300020E75900406E0FF7E00EF64014E6003BC
:1000C30002037F900406E4F0900001E0FF7E00EF5E
:1000D30064014E60030201D69002E3E0FF7E00EF6D
:1000E30064014E60030201839002E2E0FF74E42F97
:1000F300F582E43402F583E0FF9003CBEFF0900147
:100103002CE0FFC374649FFF9003CBE0FEEEC39F1C
:10011300500D90012CE0FF9003CBE02FF080069070
:1001230003CB7464F090012BE4F090012CE0FF7E8C
:1001330000C3EF940AEE64809480500690012CE093
:1001430004F09003CBE0FF9002E2E0FE74E42EF5AE
:1001530082E43402F583EFF09002E0E4F09002E2EF
:10016300E0FF9003CBE0FD7B011228329002E2E036
:10017300FFEF2413FF9003CBE0FD12005E02065B4A
:1001830090012DE4F09002E2E0FF9003CBEFF090BA
:1001930003CBE0FF7D00122E0E9002F0E0FF9003F0
:1001A300CBE0FEEEC39F50089003CBE004F0800643
:1001B3009003CB7401F09003CBE0FF9002E2EFF0E9
:1001C3009003CBE0FF7D01122E0E90012F7401F0FE
:1001D30002065B900001E0FF7E00EF64024E702E8A
:1001E3009002F0E0FF7E00C3EF9404EE64809480FD
:1001F30050069002F0E004F0900001E0FF9002F05E
:10020300E0FD12360F9002E27401F002065B9000EB
:1002130001E0FF7E00EF64034E70729002EEE0FF98
:100223009003CBEFF090012CE0FFC374FF9FFF908E
:1002330003CBE0FEEEC39F500D90012CE0FF900333
:10024300CBE02FF080069003CB74FFF09003CBE05C
:10025300FF9002EEEFF090012BE4F090012CE0FF11
:100263007E00C3EF940AEE64809480500690012CC4
:10027300E004F0900001E0FF9003CBE0FD12360FA5
:100283009003CBE0FD7F1D12005E02065B90000130
:10029300E0FF7E00D3EF9403EE648094805003026A
:1002A3000334900001E0FF7E00D3EF9407EE6480F7
:1002B3009480507D900001E0FF74E62FF582E434D2
:1002C30002F583E0FF9003CBEFF09003CBE0FF7EDA
:1002D30000C3EF94FEEE6480948050089003CBE05B
:1002E30004F080069003CB74FFF09003CBE0FF9003
:1002F3000001E0FE74E62EF582E43402F583EFF0AC
:10030300900001E0FF9003CBE0FD12360F90000157
:10031300E0FFEF2415FF9003CBE0FD12005E900099
:1003230001E0FFEF24FDFD7B017F111241FF020677
:100333005B900001E0FF7E00EF64084E70179002AF
:10034300EF7401F07D017F0212360F7D017F1E12D3
:10035300005E02065B900001E0FF7E00EF64094E41
:10036300600302065B9002F17401F07D017F0312CA
:10037300360F7D017F2012005E02065B900406E0CB
:10038300FF7E00EF64FF4E600302065B900406E409
:10039300F0900001E0FF7E00EF64014E6003020471
:1003A300A99002E3E0FF7E00EF64014E60030204C4
:1003B3004F9002E2E0FF74E42FF582E43402F58308
:1003C300E0FF9003CBEFF090012CE0FF9003CBE034
:1003D300FEEED39F40159003CBE0FF90012CE0FE8F
:1003E300C3EF9EFF9003CBEFF080069003CB740125
:1003F300F090012BE4F090012CE0FF7E00C3EF941A
:100403000AEE64809480500690012CE004F090037F
:10041300CBE0FF9002E2E0FE74E42EF582E43402C6
:10042300F583EFF09002E0E4F09002E2E0FF900346
:10043300CBE0FD7B011228329002E2E0FFEF2413B0
:10044300FF9003CBE0FD12005E02065B90012DE4FA
:10045300F09002E2E0FF9003CBEFF09003CBE0FFDC
:100463007D00122E0E9003CBE0FF7E00D3EF9401AC
:10047300EE6480948040089003CBE014F0800A90EF
:1004830002F0E0FF9003CBEFF09003CBE0FF90028C
:10049300E2EFF09003CBE0FF7D01122E0E90012FCF
:1004A3007401F002065B900001E0FF7E00EF64023E
:1004B3004E70289002F0E0FF7E00D3EF9401EE64CB
:1004C30080948040069002F0E014F0900001E0FF79
:1004D3009002F0E0FD12360F02065B900001E0FF90
:1004E3007E00EF64034E60030205779002EEE0FFA7
:1004F3009003CBEFF090012CE0FF7E00EF2401FF8F
:10050300EE3400FE9003CBE0FD7C00D3ED9FEE6460
:1005130080F8EC64809840159003CBE0FF90012CA9
:10052300E0FEC3EF9EFF9003CBEFF080069003CB7A
:100533007401F09003CBE0FF9002EEEFF090012BFB
:10054300E4F090012CE0FF7E00C3EF940AEE648098
:100553009480500690012CE004F0900001E0FF909D
:1005630003CBE0FD12360F9003CBE0FD7F1D12009D
:100573005E02065B900001E0FF7E00D3EF9403EE82
:10058300648094805003020619900001E0FF7E000E
:10059300D3EF9407EE64809480507B900001E0FFDA
:1005A30074E62FF582E43402F583E0FF9003CBEF8A
:1005B300F09003CBE0FF7E00D3EF9400EE648094D1
:1005C3008040089003CBE014F080059003CBE4F067
:1005D3009003CBE0FF900001E0FE74E62EF582E489
:1005E3003402F583EFF0900001E0FF9003CBE0FDD0
:1005F30012360F900001E0FFEF2415FF9003CBE0CC
:10060300FD12005E900001E0FFEF24FDFD7B017F02
:10061300111241FF8042900001E0FF7E00EF640869
:100623004E70159002EFE4F07D007F0212360F7DCD
:10063300007F1E12005E8020900001E0FF7E00EF2D
:1006430064094E70139002F1E4F07D007F031236CB
:100653000F7D007F2012005E30B2030207587F0532
:100663007E0012448E30B2030207581245EF900009
:1006730001E0FF7E00EF64014E70269002E3E0FF8D
:10068300EF60077F001242C580057F011242C590CB
:1006930002E2E0FD9002E3E0FB7F111241FF02075B
:1006A30044900001E0FF7E00C3EF9402EE64809467
:1006B300805003020744900001E004F0900001E041
:1006C300FF7E00EF64034E700F12377B9002EEE063
:1006D300FD7F1D12005E8069900001E0FF7E00D364
:1006E300EF9407EE64809480501512377B900001DD
:1006F300E0FFEF24FDFD7B017F111241FF8042905B
:100703000001E0FF7E00EF64084E7005123A51804D
:1007130030900001E0FF7E00EF64094E7005124146
:1007230070801E9000017401F01215AB90011F74CC
:1007330001F09002E2E0FD9002E3E0FB7F11124141
:10074300FF20B21143C11020B2F77F057E0012448F
:100753008E80F480ECE5B05488FF7E00EF64884E11
:100763007005900406E4F030A6030208457F057E79
:100773000012448E30A6030208451245EF90000193
:10078300E0FF7E00EF64014E704B9002E2E0FF7EDB
:1007930000EF64014E70259002E3E0FFEF60077FF6
:1007A300001242C580057F011242C59002E2E0FDBE
:1007B3009002E3E0FB7F111241FF80197F01123F9A
:1007C300EA7F011242C59002E2E0FD9002E3E0FB02
:1007D3007F111241FF20A66A43C11020A6F7208192
:1007E300569003CBE4F09003CBE0FF7E00C3EF947D
:1007F30064EE6480948050177F1E7E0012448E2026
:10080300A60D30810280089003CBE004F080D7204E
:10081300A609208106122F321245EF30A60320814C
:10082300BA43C11030A6032081F17F057E00124434
:100833008E80F180E680A47F057E0012448E809B2B
:10084300809330A703020A817F057E0012448E3015
:10085300A703020A811245EF900001E0FF7E00EF3B
:1008630064014E70649002E2E0FF7E00EF64024E8A
:1008730070269002E3E0FFEF60077F001242C5801D
:10088300057F011242C59002E2E0FD9002E3E0FB26
:100893007F111241FF020A6D9002F0E0FF7E00D348
:1008A300EF9401EE648094805003020A6D7F02127C
:1008B3003FEA7F011242C59002E2E0FD9002E3E0CD
:1008C300FB7F111241FF020A6D900001E0FF7E00E1
:1008D300EF64024E702E9002F0E0FF7E00C3EF94AF
:1008E30004EE6480948050069002F0E004F09000DF
:1008F30001E0FF9002F0E0FD12360F9002E2740176
:10090300F0020A6D900001E0FF7E00EF64034E7079
:10091300729002EEE0FF9003CBEFF090012CE0FF2A
:10092300C374FF9FFF9003CBE0FEEEC39F500D9077
:10093300012CE0FF9003CBE02FF080069003CB74F3
:10094300FFF09003CBE0FF9002EEEFF090012BE479
:10095300F090012CE0FF7E00C3EF940AEE648094D4
:1009630080500690012CE004F0900001E0FF90031A
:10097300CBE0FD12360F9003CBE0FD7F1D12005E2E
:10098300020A6D900001E0FF7E00D3EF9403EE6452
:100993008094805003020A29900001E0FF7E00D377
:1009A300EF9407EE64809480507C900001E0FF7424
:1009B300E62FF582E43402F583E0FF9003CBEFF0FA
:1009C3009003CBE0FF7E00C3EF94FEEE648094803F
:1009D30050089003CBE004F080069003CB74FFF043
:1009E3009003CBE0FF900001E0FE74E62EF582E475
:1009F3003402F583EFF0900001E0FF9003CBE0FDBC
:100A030012360F900001E0FFEF2415FF9003CBE0B7
:100A1300FD12005E900001E0FFEF24FDFD7B017FEE
:100A2300111241FF8044900001E0FF7E00EF640853
:100A33004E70169002EF7401F07D017F0212360FA3
:100A43007D017F1E12005E8021900001E0FF7E0089
:100A5300EF64094E70149002F17401F07D017F037D
:100A630012360F7D017F2012005E20A71143C110B3
:100A730020A7F77F057E0012448E80F480EC30803F
:100A830003020CCE7F057E0012448E308003020CDD
:100A9300CE1245EF900001E0FF7E00EF64014E703F
:100AA300649002E2E0FF7E00EF64034E7026900242
:100AB300E3E0FFEF60077F001242C580057F01126C
:100AC30042C59002E2E0FD9002E3E0FB7F11124198
:100AD300FF020CBA9002F0E0FF7E00D3EF9402EE27
:100AE300648094805003020CBA7F03123FEA7F01B3
:100AF3001242C59002E2E0FD9002E3E0FB7F111297
:100B030041FF020CBA900001E0FF7E00EF64024E49
:100B130070289002F0E0FF7E00D3EF9401EE648032
:100B2300948040069002F0E014F0900001E0FF9002
:100B330002F0E0FD12360F020CBA900001E0FF7ED6
:100B430000EF64034E6003020BD69002EEE0FF90C9
:100B530003CBEFF090012CE0FF7E00EF2401FFEECA
:100B63003400FE9003CBE0FD7C00D3ED9FEE648068
:100B7300F8EC64809840159003CBE0FF90012CE0E3
:100B8300FEC3EF9EFF9003CBEFF080069003CB7480
:100B930001F09003CBE0FF9002EEEFF090012BE425
:100BA300F090012CE0FF7E00C3EF940AEE64809482
:100BB30080500690012CE004F0900001E0FF9003C8
:100BC300CBE0FD12360F9003CBE0FD7F1D12005EDC
:100BD300020CBA900001E0FF7E00D3EF9403EE64B1
:100BE3008094805003020C78900001E0FF7E00D3D4
:100BF300EF9407EE64809480507B900001E0FF74D3
:100C0300E62FF582E43402F583E0FF9003CBEFF0A7
:100C13009003CBE0FF7E00D3EF9400EE64809480DA
:100C230040089003CBE014F080059003CBE4F090F0
:100C330003CBE0FF900001E0FE74E62EF582E4347E
:100C430002F583EFF0900001E0FF9003CBE0FD128B
:100C5300360F900001E0FFEF2415FF9003CBE0FD7A
:100C630012005E900001E0FFEF24FDFD7B017F1188
:100C73001241FF8042900001E0FF7E00EF64084EC6
:100C830070159002EFE4F07D007F0212360F7D00B5
:100C93007F1E12005E8020900001E0FF7E00EF6463
:100CA300094E70139002F1E4F07D007F0312360FBA
:100CB3007D007F2012005E20801143C1102080F749
:100CC3007F057E0012448E80F480EC308103020E97
:100CD300627F057E0012448E308103020E6212454C
:100CE300EF900001E0FF7E00EF64014E706490021C
:100CF300E2E0FF7E00EF64044E70269002E3E0FF23
:100D0300EF60077F001242C580057F011242C59044
:100D130002E2E0FD9002E3E0FB7F111241FF020DCE
:100D2300F59002F0E0FF7E00D3EF9403EE6480942D
:100D3300805003020DF57F04123FEA7F011242C582
:100D43009002E2E0FD9002E3E0FB7F111241FF021B
:100D53000DF5900001E0FF7E00C3EF9402EE648086
:100D630094805003020DF5900001E004F09000011F
:100D7300E0FF7E00EF64034E700F12377B9002EEAC
:100D8300E0FD7F1D12005E8069900001E0FF7E00A0
:100D9300D3EF9407EE64809480501512377B900054
:100DA30001E0FFEF24FDFD7B017F111241FF804233
:100DB300900001E0FF7E00EF64084E7005123A5187
:100DC3008030900001E0FF7E00EF64094E70051251
:100DD3004170801E9000017401F01215AB90011F49
:100DE3007401F09002E2E0FD9002E3E0FB7F111258
:100DF30041FF20816A43C1102081F720A65690034A
:100E0300CBE4F09003CBE0FF7E00C3EF9464EE6489
:100E130080948050177F1E7E0012448E20A60D30D2
:100E2300810280089003CBE004F080D720A609203C
:100E33008106122F321245EF30A6032081BA43C137
:100E43001030A6032081F17F057E0012448E80F1CD
:100E530080E680A47F057E0012448E809B80939061
:100E63000119E0FF7E00EF4E6008900119E4F012D3
:100E73000E762290011CE0FF7E00EF64804E60033B
:100E830002119A90011AE0FF7E00EF64104E600396
:100E9300020F1B90011BE0FF7E00EF4E70089001D4
:100EA3001B7401F0801890011BE0FF7E00D3EF94C8
:100EB30004EE64809480400690011B7404F090015A
:100EC3001BE0FF9002F0E0FEEE6F700302128790CA
:100ED300011BE0FF9002F0EFF090011F7401F0900E
:100EE30002E27401F09002E2E0FD9002E3E0FB7F96
:100EF300111241FF900001E0FF7E00EF64014E708C
:100F0300051215AB800A9002F0E0FD7F0212360F46
:100F13009002E0E4F002128790011AE0FF7E00EFF6
:100F230064114E707490011BE0FF7E00EF4E700859
:100F330090011B7401F0801890011BE0FF7E00D329
:100F4300EF9404EE64809480400690011B7404F0D7
:100F530090011BE0FF9002E2E0FEEE6F70030212CD
:100F630087900001E0FF7E00EF64014E700A90015C
:100F73001BE0FF123FEA800A90011BE0FF9002E2B0
:100F8300EFF09002E2E0FD9002E3E0FB7F111241FB
:100F9300FF9002E0E4F002128790011AE0FF7E0066
:100FA300EF64124E705C90011BE0FF7E00D3EF9460
:100FB30001EE64809480400690011B7401F090015F
:100FC3001BE0FF9002E3E0FEEE6F700302128790D6
:100FD3000001E0FF7E00EF64014E700A90011BE008
:100FE300FF1242C5800A90011BE0FF9002E3EFF07D
:100FF3009002E3E0FD7F1212005E9002E0E4F00253
:10100300128790011AE0FF7E00C3EF9414EE648010
:10101300948050030210B290011AE0FF7E00D3EFD8
:101023009417EE6480948040030210B290011BE099
:10103300FF7E00D3EF9464EE6480948040069001B9
:101043001B7464F090011AE0FF74D12FF582E4342D
:1010530002F583E0FF90011BE0FEEF6E70030212C6
:101063008790011BE0FF90011AE0FE74D12EF582F8
:10107300E43402F583EFF0900001E0FF7E00EF64BB
:10108300014E701690011AE0FFEF24EDFF90011B53
:10109300E0FD9002E3E0FB12283290011AE0FF909A
:1010A300011BE0FD12005E9002E0E4F00212879063
:1010B300011AE0FF7E00C3EF9419EE648094804030
:1010C3007D90011AE0FF7E00D3EF941CEE648094C0
:1010D30080506B90011AE0FF74D12FF582E4340243
:1010E300F583E0FF90011BE0FEEF6E7003021287B1
:1010F30090011BE0FF90011AE0FE74D12EF582E40B
:101103003402F583EFF0900001E0FF7E00D3EF940B
:1011130001EE64809480401190011AE0FFEF24EB0C
:10112300FF90011BE0FD12360F90011AE0FF9001C2
:101133001BE0FD12005E9002E0E4F00212879001D2
:101143001AE0FF7E00EF641D4E60030212879001D8
:101153001BE0FF9002EEE0FEEE6F70030212879039
:10116300011BE0FF9002EEEFF0900001E0FF7E0034
:10117300D3EF9401EE64809480400A9002EEE0FD88
:101183007F0312360F90011BE0FD7F1D12005E905E
:1011930002E0E4F0021287900013E0FF7E00EF64A8
:1011A300814E600302128790011AE0FF7E00EF6414
:1011B300104E700D9002F0E0FF90011BEFF0021251
:1011C3008790011AE0FF7E00EF64114E700D9002CC
:1011D300E2E0FF90011BEFF002128790011AE0FF9B
:1011E3007E00EF64124E700D9002E3E0FF90011B4E
:1011F300EFF002128790011AE0FF7E00C3EF941410
:10120300EE64809480402A90011AE0FF7E00D3EFC1
:101213009417EE64809480501890011AE0FF74D103
:101223002FF582E43402F583E0FF90011BEFF08099
:101233005390011AE0FF7E00C3EF9419EE6480948B
:1012430080402A90011AE0FF7E00D3EF941CEE64E5
:10125300809480501890011AE0FF74D12FF582E436
:101263003402F583E0FF90011BEFF0801790011A21
:10127300E0FF7E00EF641D4E700A9002EEE0FF90E7
:10128300011BEFF090011AE0FF90011BE0FD12310A
:10129300392290033E121FB1900341121F6B90033A
:1012A30047E4F0900348E4F0900349E4F090034AE4
:1012B300E4F090034BE4F0900341121F53EF54FF0B
:1012C300FFEE5400FEED5400FDEC5400FC90034986
:1012D300EFF0900349E0FFEFF404FF90034AEFF0CF
:1012E300900345E0FEA3E0FFEEFF7E00900347EF8F
:1012F300F0900345E0FEA3E0FF7E00900348EFF08B
:10130300900349E0FF7E00EF4E60030213BE90039B
:1013130047E0FF7E00EF4E702C90033E121FA8C0E3
:1013230003C002C001900341121F53900345E0FA2A
:10133300A3E0FB900374EAF0A3EBF0D001D002D05A
:10134300031236C522900347E0FF14F0EF6041908B
:10135300033E121FA8900341121F5390037474019C
:10136300F0A3E4F01236C5900341121F53EF24009B
:10137300FFEE3401FEED3400FDEC3400FC9003413C
:10138300121F6B90033F740175F000121E0880B5A5
:1013930090033E121FA8C003C002C0019003411274
:1013A3001F53900348E0FB7A00900374EAF0A3EB29
:1013B300F0D001D002D0031236C522900347E0FFDC
:1013C3007E00EF4E600302149A90034AE0FF9003FD
:1013D30048E0FEEED39F500302146E90034AE0FFF1
:1013E300900348E0FEC3EE9FFF90034BEFF09003A2
:1013F3003E121FA8C003C002C001900341121F5335
:1014030090034AE0FB7A00900374EAF0A3EBF0D078
:1014130001D002D0031236C5900341121F5F90031F
:101423004AE0FFE4FCFDFE121E34900341121F6BE1
:1014330090034AE0FF7E0090033FEE8FF0121E08F8
:1014430090033E121FA8C003C002C00190034112C3
:101453001F5390034BE0FB7A00900374EAF0A3EB75
:10146300F0D001D002D0031236C52290033E121FE2
:10147300A8C003C002C001900341121F539003454B
:10148300E0FAA3E0FB900374EAF0A3EBF0D001D001
:1014930002D0031236C522900345E0FEA3E0FF907D
:1014A300034AE0FD7C00C3EF9DFFEE9CFE900345E5
:1014B300EEF0A3EFF0900345E0FEA3E0FFEEFF7E26
:1014C30000900347EFF0900345E0FEA3E0FF7E00AA
:1014D300900348EFF090033E121FA8C003C002C060
:1014E30001900341121F5390034AE0FB7A009003DB
:1014F30074EAF0A3EBF0D001D002D0031236C5900A
:101503000341121F5F90034AE0FFE4FCFDFE121E3D
:1015130034900341121F6B90034AE0FF7E00900357
:101523003FEE8FF0121E08900347E0FF14F0EF60C8
:101533004190033E121FA8900341121F539003745E
:101543007401F0A3E4F01236C5900341121F53EF68
:101553002400FFEE3401FEED3400FDEC3400FC907A
:101563000341121F6B90033F740175F000121E08B4
:1015730080B5900348E0FF7E00EF4E602A90033E63
:10158300121FA8C003C002C001900341121F539051
:101593000348E0FB7A00900374EAF0A3EBF0D00178
:1015A300D002D0031236C5229003B57414F0900311
:1015B300B67466F09003B87404F09002F0E0FF7420
:1015C300808FF084FF9003B9EFF09003BAE4F07FCB
:1015D300187EC6123C899003B5E0FF9003B9E0FE84
:1015E300C3EE9FFFEFC313FF9003B7EFF09003B772
:1015F300E0FF7E00C006C0079003B8E0FFEFFD7C6C
:1016030000C004C0059003B5E0FF7E009003B7E07F
:10161300FD7C00ED2FFBEC3EFA9003B8E0FF7E006B
:101623009003B6E0FD7C00ED2FFFEC3EFE90035FE0
:10163300EEF0A3EFF090036174A2F0A37454F0D022
:1016430005D004D007D006122CE99002E2E0FF7E19
:1016530000EF64014E70159002E3E0FF7E00EF643B
:10166300014E70089003BA7401F080059003BAE448
:10167300F09002E5E0FD9003BAE0FB7F011228320F
:101683009002F0E0FF7E00C3EF9402EE648094804A
:10169300500302184C9003B9E0FF9003B7E02FF01A
:1016A3009003B7E0FF7E009003B5E0FD7C0090035C
:1016B300B7E0FB7A00EB2DFBEA3CFA9003B6E0FDC2
:1016C3007C00ED2404FDEC3400FC90035FECF0A3FC
:1016D300EDF0900361E4F0A3741FF07D047C00122D
:1016E3002CE99002E2E0FF7E00EF64024E70159059
:1016F30002E3E0FF7E00EF64014E70089003BA74CA
:1017030001F080059003BAE4F09002E6E0FD900357
:10171300BAE0FB7F021228329002F0E0FF7E00C3A2
:10172300EF9403EE64809480500302184C9003B945
:10173300E0FF9003B7E02FF09003B7E0FF7E009047
:1017430003B5E0FD7C009003B7E0FB7A00EB2DFBD3
:10175300EA3CFA9003B6E0FD7C00ED2404FDEC3492
:1017630000FC90035FECF0A3EDF09003617407F0CD
:10177300A374E0F07D047C00122CE99002E2E0FF08
:101783007E00EF64034E70159002E3E0FF7E00EFEE
:1017930064014E70089003BA7401F080059003BA97
:1017A300E4F09002E7E0FD9003BAE0FB7F03122828
:1017B300329002F0E0FF7E00C3EF9404EE64809465
:1017C30080500302184C9003B9E0FF9003B7E02F59
:1017D300F09003B7E0FF7E009003B5E0FD7C00903E
:1017E30003B7E0FB7A00EB2DFBEA3CFA9003B6E08B
:1017F300FD7C00ED2404FDEC3400FC90035FECF071
:10180300A3EDF090036174F8F0A3E4F07D047C0091
:10181300122CE99002E2E0FF7E00EF64044E7015A3
:101823009002E3E0FF7E00EF64014E70089003BA7C
:101833007401F080059003BAE4F09002E8E0FD90B3
:1018430003BAE0FB7F041228329002E2E0FF7E003D
:10185300EF64014E70097D017F01122E0E804090CE
:1018630002E2E0FF7E00EF64024E70097D017F0219
:10187300122E0E802A9002E2E0FF7E00EF64034EF8
:1018830070097D017F03122E0E80149002E2E0FFA7
:101893007E00EF64044E70077D017F04122E0E90CC
:1018A30000017401F02290029DEEF0A3EFF090028C
:1018B3009FECF0A3EDF09002A1EAF0A3EBF090020D
:1018C300A9E4F0A3E4F09002ABE4F0A3E4F0900207
:1018D3009DE0FEA3E0FF9002A1E0FCA3E0FDC3EDC9
:1018E3009FFFEC9EFE9002ADEEF0A3EFF090029FFF
:1018F300E0FEA3E0FF9002A3E0FCA3E0FDC3ED9FA5
:10190300FFEC9EFE9002AFEEF0A3EFF090029DE09D
:10191300FEA3E0FF9002B7EEF0A3EFF090029FE08A
:10192300FEA3E0FF9002B9EEF0A3EFF09002ADE06A
:10193300FEA3E0FFD3EF9400EE64809480400B900D
:1019430002B3E4F0A37401F080379002ADE0FEA38C
:10195300E0FFEF4E700A9002B3E4F0A3E4F08021BD
:101963009002B374FFF0A374FFF09002ADE0FEA306
:10197300E0FFC3E49FFFE49EFE9002ADEEF0A3EF11
:10198300F09002AFE0FEA3E0FFD3EF9400EE64809B
:101993009480400B9002B5E4F0A37401F08037907B
:1019A30002AFE0FEA3E0FFEF4E700A9002B5E4F051
:1019B300A3E4F080219002B574FFF0A374FFF090CC
:1019C30002AFE0FEA3E0FFC3E49FFFE49EFE9002AC
:1019D300AFEEF0A3EFF09002AFE0FEA3E0FF9002C2
:1019E300ADE0FCA3E0FDD3ED9FEE6480F8EC6480F2
:1019F3009840129002ADE0FEA3E0FF9002B1EEF03A
:101A0300A3EFF080109002AFE0FEA3E0FF9002B1DD
:101A1300EEF0A3EFF09002A7E4F0A3E4F09002B19C
:101A2300E0FEA3E0FFEF2401FFEE3400FE9002A7E7
:101A3300E0FCA3E0FDD3ED9FEC9E4003021B269048
:101A430002B7E0FEA3E0FF9002B9E0FCA3E0FD9043
:101A530002A5E0FAA3E0FB123E2A9002ADE0FEA34A
:101A6300E0FF9002A9EE8FF0121E089002AFE0FE95
:101A7300A3E0FF9002ABEE8FF0121E089002B1E0DC
:101A8300FEA3E0FF9002A9E0FCA3E0FDD3ED9FEEEF
:101A93006480F8EC64809840309002A9E0FEA3E0F3
:101AA300FF9002B1E0FCA3E0FDC3EF9DFFEE9CFEBF
:101AB3009002A9EEF0A3EFF09002B3E0FEA3E0FFE3
:101AC3009002B7EE8FF0121E089002B1E0FEA3E081
:101AD300FF9002ABE0FCA3E0FDD3ED9FEE6480F842
:101AE300EC64809840309002ABE0FEA3E0FF9002EC
:101AF300B1E0FCA3E0FDC3EF9DFFEE9CFE9002ABC3
:101B0300EEF0A3EFF09002B5E0FEA3E0FF9002B980
:101B1300EE8FF0121E089002A7E475F001121E0862
:101B2300021A2022900130EFF0900131EDF07B0199
:101B33007A02793F900132121F5390037DE4F0A3A0
:101B43007408F01238AD900241E0FF7E00D3EF94A9
:101B530080EE648094804003021D9D900243E0FF69
:101B63007E00D3EF9480EE64809480400122900144
:101B730032121F53EF2408FFEE3400FEED3400FD54
:101B8300EC3400FC900132121F6B900243E0FF9093
:101B93000241E0FEEE8FF0A4FFAEF0EF25E0FFEE92
:101BA30033FE900239EEF0A3EFF0900130E0FF7EB8
:101BB30000C006C007900131E0FFEFFD7C00C004C8
:101BC300C005900241E0FF7E00900130E0FD7C0003
:101BD300ED2FFFEC3EFEEF24FFFBEE34FFFA900205
:101BE30043E0FF7E00900131E0FD7C00ED2FFFEC30
:101BF3003EFEEF24FFFFEE34FFFE900395EEF0A3CD
:101C0300EFF0D005D004D007D006123D5D90023925
:101C1300E0FEA3E0FFD3EF9400EE94005003021D17
:101C23009D900239E0FEA3E0FFD3EF9400EE940110
:101C33005003021CC4900132121F53EF54FFFFEEF6
:101C43005400FEED5400FDEC5400FCC3E49FFF740C
:101C5300019EFE90023DEEF0A3EFF07B017A017945
:101C630036C003C002C001900132121F5390023DDF
:101C7300E0FAA3E0FB90037DEAF0A3EBF0D001D000
:101C830002D0031238AD900132121F5F90023DE083
:101C9300FEA3E0FFE4FCFD121E34900132121F6B21
:101CA300900239E0FEA3E0FF90023DE0FCA3E0FDDB
:101CB300C3EF9DFFEE9CFE900239EEF0A3EFF080A0
:101CC30043900239E0FEA3E0FF90023DEEF0A3EF64
:101CD300F07B017A017936C003C002C00190013262
:101CE300121F53900239E0FAA3E0FB90037DEAF060
:101CF300A3EBF0D001D002D0031238AD900239E447
:101D0300F0A3E4F07B017A017936900236121FB119
:101D130090023DE0FEA3E0FFD3EF9400EE94005069
:101D230003021C10900236121FA8758201758300EE
:101D3300121DB7FF7E0090023BEEF0A3EFF090027E
:101D43003BE0FEA3E0FFEF7F00FE90023BEEF0A33B
:101D5300EFF090023BE0FEA3E0FF900236121FA8D3
:101D6300121D9EFD7C00EE4CFEEF4DFF90023BEEFC
:101D7300F0A3EFF090023BE0FEA3E0FF1244BC901F
:101D83000237E475F002121E0890023D74FF75F0ED
:101D9300FE121E08021D13021C1022BB01068982BB
:101DA3008A83E0225002E722BBFE02E32289828A71
:101DB30083E49322BB010CE58229F582E5833AF59E
:101DC30083E0225006E92582F8E622BBFE06E925D8
:101DD30082F8E222E58229F582E5833AF583E493EA
:101DE30022BB010689828A83F0225002F722BBFEBE
:101DF30001F322EF8DF0A4A8F0CF8CF0A428CE8DB0
:101E0300F0A42EFE22C5F0F8A3E028F0C5F0F8E513
:101E130082158270021583E038F022A3F8E0C5F042
:101E230025F0F0E582158270021583E0C838F0E8EA
:101E330022EF2BFFEE3AFEED39FDEC38FC2275F074
:101E430008758200EF2FFFEE33FECD33CDCC33CCBC
:101E5300C58233C5829BED9AEC99E58298400CF5D7
:101E630082EE9BFEED9AFDEC99FC0FD5F0D6E4CE05
:101E7300FBE4CDFAE4CCF9A88222B800C1B9005939
:101E8300BA002DEC8BF084CFCECDFCE5F0CBF97806
:101E930018EF2FFFEE33FEED33FDEC33FCEB33FB9A
:101EA30010D703994004EB99FB0FD8E5E4F9FA2224
:101EB3007818EF2FFFEE33FEED33FDEC33FCC9331F
:101EC300C910D7059BE99A4007EC9BFCE99AF90FE7
:101ED300D8E0E4C9FAE4CCFB2275F010EF2FFFEE53
:101EE30033FEED33FDCC33CCC833C810D7079BEC9E
:101EF3009AE899400AED9BFDEC9AFCE899F80FD516
:101F0300F0DAE4CDFBE4CCFAE4C8F922EF4BFFEEC0
:101F13004AFEED49FDEC48FC22EB9FF5F0EA9E42B8
:101F2300F0E99D42F0E89C45F022E8600FECC31312
:101F3300FCED13FDEE13FEEF13FFD8F122E8600F63
:101F4300EFC333FFEE33FEED33FDEC33FCD8F12268
:101F5300E0FCA3E0FDA3E0FEA3E0FF22E0F8A3E0A2
:101F6300F9A3E0FAA3E0FB22ECF0A3EDF0A3EEF07B
:101F7300A3EFF022A8828583F0D083D082121F8E34
:101F8300121F8E121F8E121F8EE473E493A3C58358
:101F9300C5F0C583C8C582C8F0A3C583C5F0C58392
:101FA300C8C582C822E0FBA3E0FAA3E0F922EBF064
:101FB300A3EAF0A3E9F022D083D082F8E49370126D
:101FC300740193700DA3A393F8740193F58288832E
:101FD300E4737402936860EFA3A3A380DF900418F3
:101FE300EFF090000FE4F0900012E0FF7E00EF4E60
:101FF300703A900011E0FF7E00EF4E702F900418AE
:10200300E0FF7E00EF645A4E70099000117401F0F6
:10201300022218900418E0FF7E00EF64694E60030B
:102023000222189000127401F0022218900012E0AC
:10203300FF7E00EF4E70030220F7900012E0FFEFE7
:10204300121FBA20590120770220940320B20420E2
:10205300D60500002218900418E0FF7E00EF649676
:102063004E70099000127402F0022218900012E4DC
:10207300F0022218900418E0FF900013EFF0900094
:10208300127403F0900418E0FF900118EFF002229D
:1020930018900418E0FF900016EFF09000127404FB
:1020A300F0900418E0FF900118E02FF0022218903E
:1020B30000177401F0900418E0FF900018EFF090FF
:1020C3000418E0FF900118E02FF09000127405F05F
:1020D300022218900418E0FF900118E0FEEEB50705
:1020E3000B1243B4900012E4F07F0122900012E43B
:1020F300F0022218900011E0FFEF121FBA2119011C
:10210300213702214A03217604219B0521B70621A9
:10211300F70700002218900418E0FF7E00EF64A583
:102123004E70099000117402F0022218900011E41D
:10213300F0022218900418E0FF900013EFF09000D3
:10214300117403F0022218900418E0FF7E0090003F
:1021530014EEF0A3EFF0900014E0FEA3E0FFEF7F96
:1021630000FE900014EEF0A3EFF09000117404F061
:10217300022218900014E0FEA3E0FF900418E0FD93
:102183007C00EE4CFEEF4DFF900014EEF0A3EFF059
:102193009000117405F0807D900418E0FF90001604
:1021A300EFF0900017E4F09000117406F09001181E
:1021B300E4F08061900418E0FF900017E0FE7418CB
:1021C3002EF582E43400F583EFF0900418E0FF90DD
:1021D3000118E02FF0900016E0FF900017E0FEEEEC
:1021E300C39F40089000117407F08029900017E006
:1021F30004F08021900418E0FF900118E0FEEEB592
:10220300070B123552900011E4F07F01227585FF10
:10221300900011E4F07FFF2290000EE0FF7E00EFBC
:102223004E602290027BE004F090027BE0FF7E0090
:10223300D3EF9432EE64809480400A90027BE4F002
:1022430090000EE4F0900011E0FF7E00EF4E60225C
:1022530090000FE004F090000FE0FF7E00D3EF94B6
:1022630032EE64809480400A90000FE4F0900011F5
:10227300E4F0900012E0FF7E00EF4E602290000F2A
:10228300E004F090000FE0FF7E00D3EF9432EE64A1
:10229300809480400A90000FE4F0900012E4F090E4
:1022A30002E0E0FF7E00EF4E702D900406E0FF7E1B
:1022B30000EF4E7022900127E0FF7E00C3EF94965B
:1022C300EE64809480400890011F7401F0800D90AB
:1022D3000127E004F08005900127E4F090012CE051
:1022E300FF7E00EF64014E600690012BE004F09046
:1022F300012BE0FF7E00C3EF940FEE6480948040D7
:102303000B90012BE4F090012C7401F0900001E09C
:10231300FF7E00EF64014E701E9002E3E0FF7E003B
:10232300EF4E701390012FE0FF7E00EF64014E70BB
:102333000690012DE004F09002E2E0FF7E00EF64DE
:10234300014E702E9002F1E0FF7E00EF4E7023905D
:10235300012DE0FF7E00D3EF944BEE648094804028
:102363003390012DE4F090012EE4F090012FE4F07E
:10237300802290012DE0FF7E00D3EF944BEE64802A
:102383009480401090012DE4F090012E7401F090A0
:10239300012FE4F0900122E004F0900122E0FF7E9F
:1023A30000EF64194E7003B2A122900122E0FF7E78
:1023B30000C3EF9432EE648094805003022446906D
:1023C3000122E4F090011D7401F0B2A1900126E016
:1023D300FF7E00C3EF940AEE648094805006900160
:1023E30026E004F090012AE0FF7E00EF64014E70C6
:1023F3001D900121E4F0900120E0FF7E00EF4E707C
:102403000690011E7401F09001207401F0229001E6
:1024130020E0FF7E00EF64014E7006900121E0048E
:10242300F0900121E0FF7E00D3EF9405EE648094E9
:10243300804010900121E4F0900120E4F090011E0F
:102443007401F022900363EFF0900364EDF09003C6
:1024530065EBF09003667412F09003677464F09078
:1024630003697405F09002F0E0FF74808FF084FF3D
:1024730090036AEFF0900363E0FF7E00EF4E70037A
:10248300022669900363E0FF7E00EF64014E700C47
:1024930090036B74A2F0A37454F0803A900363E04A
:1024A300FF7E00EF64024E700B90036BE4F0A374A5
:1024B3001FF08022900363E0FF7E00EF64034E7001
:1024C3000C90036B7407F0A374E0F0800990036B26
:1024D30074F8F0A3E4F090036AE0FFEF24ECFFEF5D
:1024E300C313FF900363E0FEEE14FE90036AE0FD66
:1024F300EE8DF0A4FEEE2FFFEF04FF900368EFF0E4
:10250300900368E0FF7E00C006C007900369E0FF08
:10251300EFFD7C00C004C005900366E0FF7E0090E1
:102523000368E0FD7C00ED2FFBEC3EFA900367E0CF
:10253300FF7E00900369E0FD7C00ED2FFFEC3EFE83
:10254300900364E0FD7C00C3EF9DFFEE9CFE9002D0
:10255300D4EEF0A3EFF09002D674C6F0A37418F093
:10256300D005D004D007D00612303E900365E0FFBB
:10257300EF607D900368E0FF7E00C006C007900314
:1025830067E0FF7E00900369E0FD7C00ED2FFFEC28
:102593003EFE900364E0FD7C00C3EF9DFDEE9CFCDA
:1025A300C004C005900366E0FF7E00900368E0FD71
:1025B3007C00ED2FFBEC3EFA900369E0FF7E009078
:1025C3000367E0FD7C00ED2FFFEC3EFE9002D4EEAE
:1025D300F0A3EFF090036BE0FEA3E0FF9002D6EED2
:1025E300F0A3EFF0D005D004D007D00612303E227E
:1025F300900368E0FF7E00C006C007900367E0FF1A
:102603007E00900369E0FD7C00ED2FFFEC3EFE9021
:102613000364E0FD7C00C3EF9DFDEE9CFCC004C0A1
:1026230005900366E0FF7E00900368E0FD7C00ED0B
:102633002FFBEC3EFA900369E0FF7E00900367E016
:10264300FD7C00ED2FFFEC3EFE9002D4EEF0A3EFF5
:10265300F09002D67484F0A37430F0D005D004D087
:1026630007D00612303E221245CC7F111200467F5E
:10267300787E0012448E7FB11200467F01124575A9
:102683007F2C1245757F2D1245757FB21200467F50
:10269300011245757F2C1245757F2D1245757FB349
:1026A3001200467F011245757F2C1245757F2D124E
:1026B30045757F011245757F2C1245757F2D124597
:1026C300757FB41200467F071245757FC01200461E
:1026D3007FA21245757F021245757F841245757F6F
:1026E300C11200467FC51245757FC21200467F0A9C
:1026F3001245757F001245757FC31200467F8A120B
:1027030045757F2A1245757FC41200467F8A12459C
:10271300757FEE1245757FC51200467F0E12457513
:102723007F361200467F681245757FE01200467FB0
:102733000F1245757F1A1245757F0F1245757F1865
:102743001245757F2F1245757F281245757F20121C
:1027530045757F221245757F1F1245757F1B1245F4
:10276300757F231245757F371245757F00124575B6
:102773007F071245757F021245757F101245757FDD
:10278300E11200467F0F1245757F1B1245757F0FBF
:102793001245757F171245757F331245757F2C12CD
:1027A30045757F291245757F2E1245757F30124579
:1027B300757F301245757F391245757F3F12457518
:1027C3007F001245757F071245757F031245757F9C
:1027D300101245757F2A1200467F001245757F024D
:1027E3001245757F021245757F821245757F2B1244
:1027F30000467F001245757F031245757F00124521
:10280300757FA31245757FF01200467F011245754F
:102813007FF61200467F001245757F3A1200467F0D
:10282300051245757F291200467F0012458E2290BE
:10283300034CEFF090034DEDF090034EEBF090035B
:102843004F7412F09003507464F09003527405F0C7
:10285300900353746EF09002F0E0FF74808FF08465
:10286300FF900358EFF090034CE0FF7E00EF4E70B3
:10287300030229F3900358E0FFEF24ECFFEFC313A7
:10288300FF90034CE0FEEE14FE900358E0FDEE8D46
:10289300F0A4FEEE2FFFEF04FF900351EFF090033F
:1028A3004CE0FF90034DE0FD90034EE0FB12244704
:1028B300900351E0FF7E00EF24FAFFEE34FFFEC0E9
:1028C30006C007900353E0FFEFFD7C00900351E047
:1028D300FF7E00EF241AFBEE3400FA900353E0FF6F
:1028E3007E00EF240FFFEE3400FE9002D4EEF0A33F
:1028F300EFF09002D674C6F0A37418F0D007D00698
:1029030012303E90034DE0FF7E00EF64644E704151
:10291300900351E024FAF09003547431F09003557E
:102923007430F09003567430F09003577425F09090
:102933000351E0FF900353E0FD7B017A0379549048
:10294300024C7404F090024DE4F0A3E4F01229F475
:102953002290034DE0FF7E00C3EF940AEE6480945F
:1029630080405190034DE0FFEF75F00A84FFEF24A0
:1029730030FF900354EFF090034DE0FFEF75F00A42
:1029830084AFF0EF2430FF900355EFF090035674BB
:1029930025F0900351E0FF900353E0FD7B017A03A0
:1029A300795490024C7403F090024DE4F0A3E4F0E8
:1029B3001229F42290034DE0FFEF75F00A84AFF083
:1029C300EF2430FF900354EFF09003557425F090FB
:1029D3000351E0FF900353E0FD7B017A03795490A8
:1029E300024C7402F090024DE4F0A3E4F01229F4D7
:1029F30022900247EFF0900248EDF0900249121F37
:102A0300B190024FE4F090024CE0FF90024FE0FEE1
:102A1300EEC39F4003022B94900249121FA8900219
:102A23004FE0FF8F82758300121DB7FF7E00C3EF57
:102A330094A1EE648094804003022B949002491287
:102A43001FA890024FE0FF8F82758300121DB7FF0E
:102A5300900255EFF0900255E0FF7E00EF75F01005
:102A6300A4FFAEF0900256EEF0A3EFF0900250E414
:102A7300F0900250E0FF7E00C3EF9410EE64809468
:102A830080503B900250E0FF7E00900256E0FCA392
:102A9300E0FDEF2DFFEE3CFE74872FF58274463E7A
:102AA300F583E493FF900250E0FE74582EF582E420
:102AB3003402F583EFF0900250E004F080B390020B
:102AC30053E4F0900253E0FF7E00C3EF9410EE64F2
:102AD3008094804003022B8B900252E4F0900252C8
:102AE300E0FF7E00C3EF9408EE648094804003020D
:102AF3002B82900252E0FFEF5407FF900251EFF058
:102B0300900253E0FF74582FF582E43402F583E01A
:102B1300FFEFFD3395E0FC900251E0FF7E007480EF
:102B2300A807088006CEA2E713CE13D8F8FFEE5C01
:102B3300FEEF5DFFEF4E603E90024FE0FFEF333359
:102B43003354F8FF900252E0FE900247E0FDED2E71
:102B5300FEEE2FFF900254EFF0900254E0FF90023C
:102B630048E0FE900253E0FDED2EFD90024DE0FAA9
:102B7300A3E0FB123E2A900252E004F0022AE09006
:102B83000253E004F0022AC690024FE004F0022A46
:102B9300092290027AE0FF7E00EF4E70037F00224D
:102BA300900279E0FF747D2FF582E43402F583E02F
:102BB300FF900417EFF0900279E0FF7E00C3EF94DB
:102BC3001FEE648094805008900279E004F0800541
:102BD300900279E4F090027AE0FF7E00D3EF940054
:102BE300EE64809480400690027AE014F090000E28
:102BF300E0FFEF121FBA2C0C002C25012C43022CF2
:102C030085032CB00400002CE6900417E0FF7E003F
:102C1300EF645A4E6003022CE690000E7401F0023A
:102C23002CE6900417E0FF7E00EF64A54E70099038
:102C3300000E7402F0022CE690000EE4F0022CE683
:102C4300900417E0FF7E00D3EF9418EE6480948025
:102C53005012900417E0FF7E00C3EF9401EE6480EE
:102C63009480500790000EE4F08078900417E0FF02
:102C7300C3EF9401FF900002EFF090000E7403F095
:102C83008061900417E0FF7E00EF64824E6007903E
:102C9300000EE4F0804D900417E0FF900003EFF086
:102CA30090000CE4F090000E7404F080369004174A
:102CB300E0FF90000CE0FE74042EF582E43400F58E
:102CC30083EFF090000CE004F0900002E0FF90002E
:102CD3000CE0FEEEC39F400B1233C090000EE4F0F5
:102CE3007F01227F0222900359EEF0A3EFF09003BD
:102CF3005BECF0A3EDF090035DEAF0A3EBF090033F
:102D030059E0FEA3E0FFC006C00790035BE0FCA30D
:102D1300E0FD90035DE0FAA3E0FB90035BE0FEA31C
:102D2300E0FF9002A3EEF0A3EFF0900361E0FEA3B7
:102D3300E0FF9002A5EEF0A3EFF0D007D006121843
:102D4300A9900359E0FEA3E0FFC006C00790035B10
:102D5300E0FCA3E0FD900359E0FAA3E0FB90035FDE
:102D6300E0FEA3E0FF9002A3EEF0A3EFF090036177
:102D7300E0FEA3E0FF9002A5EEF0A3EFF0D007D0B2
:102D8300061218A9900359E0FEA3E0FFC006C0078E
:102D930090035FE0FCA3E0FD90035DE0FAA3E0FB9A
:102DA30090035FE0FEA3E0FF9002A3EEF0A3EFF039
:102DB300900361E0FEA3E0FF9002A5EEF0A3EFF025
:102DC300D007D0061218A990035DE0FEA3E0FFC070
:102DD30006C00790035BE0FCA3E0FD90035DE0FA0F
:102DE300A3E0FB90035FE0FEA3E0FF9002A3EEF0FD
:102DF300A3EFF0900361E0FEA3E0FF9002A5EEF0E5
:102E0300A3EFF0D007D0061218A922900397EFF092
:102E1300900398EDF09003997412F090039A746400
:102E2300F090039C7405F090039D746EF09002F093
:102E3300E0FF74808FF084FF90039EEFF090039780
:102E4300E0FF7E00EF4E7003022F3190039EE0FF00
:102E5300EF24ECFFEFC313FF900397E0FEEE14FEA5
:102E630090039EE0FDEE8DF0A4FEEE2FFFEF04FF36
:102E730090039BEFF0900398E0FFEF605890039B63
:102E8300E0FF7E00EF24F9FFEE34FFFEC006C0072B
:102E930090039DE0FF7E00EF24FFFDEE34FFFC90E6
:102EA300039BE0FF7E00EF241BFBEE3400FA90034C
:102EB3009DE0FF7E00EF2410FFEE3400FE90035FE1
:102EC300EEF0A3EFF0900361E4F0A3E4F0D007D0B9
:102ED30006122CE92290039BE0FF7E00EF24F9FF0A
:102EE300EE34FFFEC006C00790039DE0FF7E00EFB7
:102EF30024FFFDEE34FFFC90039BE0FF7E00EF24F4
:102F03001BFBEE3400FA90039DE0FF7E00EF2410DC
:102F1300FFEE3400FE90035FEEF0A3EFF090036149
:102F230074C6F0A37418F0D007D006122CE92290CF
:102F330000017402F07F187EC6123C897BFF7A463B
:102F4300793090024C740BF090024DE4F0A3E4F05E
:102F53007D087F081229F49002F0E0FD7F0212360B
:102F63000F90035FE4F0A37419F0900361E4F0A3FE
:102F7300E4F07B7E7A007D077C007F5F7E00122C6D
:102F8300E97BFF7A46793C90024C740AF090024D3B
:102F9300E4F0A3E4F07D1C7F081229F49002EEE034
:102FA300FD7F0312360F7BFF7A46794790024C74FC
:102FB30009F090024DE4F0A3E4F07D307F0812297C
:102FC300F49002EAE0FD7F0412360F7BFF7A467924
:102FD3005190024C7409F090024DE4F0A3E4F07DAB
:102FE300447F081229F49002EBE0FD7F0512360FAF
:102FF3007BFF7A46795B90024C7409F090024DE4B2
:10300300F0A3E4F07D587F081229F49002ECE0FD70
:103013007F0612360F7BFF7A46796590024C74095E
:10302300F090024DE4F0A3E4F07D6C7F081229F4E4
:103033009002EDE0FD7F0712360F229002CEEEF0F4
:10304300A3EFF09002D0ECF0A3EDF09002D2EAF0FF
:10305300A3EBF09002CEE0FEA3E0FF9002D2E0FCEF
:10306300A3E0FDC3ED9FFFEC9EFEEF2401FFEE34D2
:1030730000FE9002DCEEF0A3EFF09002D0E0FEA39E
:10308300E0FF9002D4E0FCA3E0FDC3ED9FFFEC9EC4
:10309300FEEF2401FFEE3400FE9002DEEEF0A3EF1C
:1030A300F09002CEE0FEA3E0FFC006C0079002D07E
:1030B300E0FCA3E0FD9002D2E0FAA3E0FB9002D48F
:1030C300E0FEA3E0FF900395EEF0A3EFF0D007D06E
:1030D30006123D5D9002D8E4F0A3E4F09002DEE036
:1030E300FEA3E0FF9002D8E0FCA3E0FDC3ED9FEC5C
:1030F3009E50429002DAE4F0A3E4F09002DCE0FE9A
:10310300A3E0FF9002DAE0FCA3E0FDC3ED9FEC9E99
:1031130050179002D6E0FEA3E0FF1244BC9002DAFF
:10312300E475F001121E0880D29002D8E475F00114
:10313300121E0880A7229003F5EFF09003F6EDF03E
:103143009003F7E4F0900010E0FF7E00EF64014E7F
:10315300700543C11080EE9000107401F07585690D
:10316300900010E0FF7E00EF64014E700543C11034
:1031730080EE9000107401F0758596900010E0FFCA
:103183007E00EF64014E700543C11080EE90001085
:103193007401F090011CE0FF8F8590011CE0FF900B
:1031A30003F7E02FF0900010E0FF7E00EF64014E84
:1031B300700543C11080EE9000107401F09003F588
:1031C300E0FF8F859003F5E0FF9003F7E02FF09089
:1031D3000010E0FF7E00EF64014E700543C11080D4
:1031E300EE9000107401F09003F6E0FF8F859003DA
:1031F300F6E0FF9003F7E02FF0900010E0FF7E0071
:10320300EF64014E700543C11080EE90001074010D
:10321300F09003F7E0FF8F85229003DD121FB1903A
:10322300027CE0FF7E00EF64014E700543C1108015
:10323300EE90027C7401F0759B5A90027CE0FF7E55
:1032430000EF64014E700543C11080EE90027C7460
:1032530001F0759BA590027CE0FFEF600543C11070
:1032630080F390027C7401F09003DD121FA8121DFD
:103273009EFF8F9B90027CE0FFEF600543C11080AF
:10328300F390027C7401F09003DD121FA875820194
:10329300758300121DB7FF8F9B9003E0E4F090034A
:1032A300DD121FA8121D9EFFEF14FF9003E0E0FE46
:1032B300EEC39F503C90027CE0FFEF600543C110DA
:1032C30080F390027C7401F09003DD121FA8E924BF
:1032D30002F9EA3400FA9003E0E0FF7E00E92FF9F7
:1032E300EA3EFA121D9EFF8F9B9003E0E004F080FC
:1032F300AD221244EA1238147E00EF4E700280FEB3
:1033030012437A12451012453612266A1245A61246
:1033130046057F647E0012448E900132121F7700AF
:103323000000007D007F00121B277F0112458ED213
:10333300AF7D017F1012445A1245EF123DC57D0146
:103343007F1012445A900126E0FF7E00C3EF940AD7
:10335300EE64809480503E43C110900126E0FF7ECE
:1033630000C3EF9403EE64809480400B90012AE045
:10337300FF7E00EF4E701E90011DE0FFEF60119085
:10338300011DE4F090012AE4F07D017F1012445AFC
:10339300122B9580B090011EE4F01245B97B017A9F
:1033A3000279E19002BF7410F07F10123B3D43C1DC
:1033B30010122B9512009612348A80F2229003F891
:1033C300E4F0900004E0FF9003F9EFF0900002E0D6
:1033D300FFEF14FF9003FAEFF0900121E4F0900166
:1033E3002A7401F0900120E0FF7E00EF4E700C90F4
:1033F30001207401F090011E7401F09003F9E0FFC5
:103403007E00EF64104E7019900005E0FF9002E11A
:10341300E0FEEE6F60709002E1E0FD7F1012005E4F
:10342300229003F9E0FF7E00EF64114E70339000A9
:1034330005E0FF9002E2E0FEEE6F604A900001E0DB
:10344300FF7E00EF64014E703D90012FE0FF7E0090
:10345300EF64014E60309002E2E0FD7F1112005EE6
:10346300229003F9E0FF7E00EF64124E7018900083
:1034730005E0FF9002E3E0FEEE6F600A9002E3E0F6
:10348300FD7F1212005E2290011DE0FFEF604C9061
:10349300011DE4F090012AE4F0900000E0FF7E00BB
:1034A300EF4E700F7D017F1012445A90000074019B
:1034B300F08028900000E0FF7E00EF64014E700F63
:1034C3007D017F1112445A9000007402F0800C7D3C
:1034D300017F1212445A900000E4F090011EE0FFB5
:1034E300EF601C90011EE4F07B017A0279E1900207
:1034F300BF7410F07F10123B3D1245B91245EF9097
:10350300011FE0FFEF600E90011FE4F09002E074F2
:1035130001F012455790012EE0FFEF603190012E2C
:10352300E4F0900001E0FF7E00EF64014E701F9015
:1035330002E3E0FF7E00EF4E70147F011242C5905C
:1035430002E2E0FD9002E3E0FB7F111241FF2290D3
:103553000013E0FF7E00EF64014E600302360B9020
:103563000014E0FEA3E0FFEF4E70159003D5121F89
:1035730077000000007F007E007D007C00123C1E6F
:10358300900014E0FEA3E0FFEF7F00FEE4FCFD905B
:1035930003D9121F6B7B007A10790078009003D94E
:1035A300121F53121E7D9003D5121F5FC3121F1CDF
:1035B30060209003D9121F53123C1E7B007A1079AE
:1035C3000078009003D9121F53121E7D9003D51269
:1035D3001F6B7B017A007918C003C002C0019003FE
:1035E300D9121F53900016E0FB7A00EB2401FBEA8B
:1035F3003400FA900345EAF0A3EBF0D001D002D0F7
:1036030003121295758501227585FE229003BBEF87
:10361300F09003BCEDF09003BBE0FFEF75F014A452
:10362300FFEF24E0FF9003C0EFF09003C0E0FFEF53
:10363300FD7C009003C0E0FF7E00EF2410FFEE341A
:1036430000FE9002D4EEF0A3EFF09002D674C6F021
:10365300A37418F07B7E7A007F5F7E0012303E9069
:1036630003BCE0FFEF75F06484FFEF2430FF9003A9
:10367300BDEFF09003BCE0FFEF75F06484AFF0EFB3
:1036830075F00A84FFEF2430FF9003BEEFF0900340
:10369300BCE0FFEF75F00A84AFF0EF2430FF900336
:1036A300BFEFF09003C0E0FD7B017A0379BD900288
:1036B3004C7403F090024DE4F0A3E4F07F60122910
:1036C300F42290036D121FB1900370121F6B124509
:1036D300FBC2A27F021241B9900370121F53EF5431
:1036E30000FFEE5400FEED54FFFDEC5400FC781097
:1036F300121F2D1241B9900370121F53EF5400FF94
:10370300EE54FFFEED5400FDEC5400FC7808121F4C
:103713002D1241B9900370121F53EF54FFFFEE5463
:1037230000FEED5400FDEC5400FC1241B99003740B
:10373300E0FEA3E0FFD3EF9400EE94014009900371
:10374300747401F0A3E4F090037474FF75F0FF1236
:103753001E1EAFF0FEEF4E601990036D121FA812EC
:103763001D9EFF1241B990036EE475F001121E080D
:1037730080D5D2A212001622900001E0FF7E007CC9
:10378300007D14121DF6EF24CBFBEE34FFFA9000FC
:1037930001E0FF7E007C007D14121DF6EF24DDFFA7
:1037A300EE34FFFE90035FEEF0A3EFF0900361743D
:1037B300C6F0A37418F0AD03AC027B7E7A007F5F82
:1037C3007E00122CE9900001E0FF7E007C007D1456
:1037D300121DF6EF24DFFBEE34FFFA900001E0FF49
:1037E3007E007C007D14121DF6EF24F1FFEE34FF02
:1037F300FE90035FEEF0A3EFF0900361E4F0A3E427
:10380300F0AD03AC027B7E7A007F5F7E00122CE971
:1038130022123F947BFF7A7179239003D1121FB157
:103823009003D0E4F09003D0E0FF7E00C3EF940751
:10383300EE64809480506B9003D0E0FF74A02FF56A
:1038430082E43403F583E0FFEF6437FF9003D4EFA2
:10385300F09003D4E0FFEF25E0FF9003D4EFF09066
:1038630003D4E02421F09003D4E0FFEFC313FF90CF
:1038730003D4EFF09003D1121FA89003D0E0FF8F81
:1038830082758300121DB7FF9003D4E0FEEF6E60D4
:103893000990039F7401F07F00229003D0E004F0AD
:1038A300808390039FE4F07F0122900376121FB17F
:1038B300900379121F6BC2A27F031241B99003795F
:1038C300121F53EF5400FFEE5400FEED54FFFDECC6
:1038D3005400FC7810121F2D1241B9900379121F66
:1038E30053EF5400FFEE54FFFEED5400FDEC540083
:1038F300FC7808121F2D1241B9900379121F53EF60
:1039030054FFFFEE5400FEED5400FDEC5400FC1296
:1039130041B990037D74FF75F0FF121E1EAFF0FED8
:10392300EF4E601912408D900376121FA8EF121DFF
:10393300E4900377E475F001121E0880D5D2A22229
:10394300787FE4F6D8FD75810702398A0232F5E4FF
:1039530093A3F8E493A34003F68001F208DFF48015
:1039630029E493A3F85407240CC8C333C4540F4465
:1039730020C8834004F456800146F6DFE4800B013F
:1039830002040810204080903AC9E47E019360BC91
:10399300A3FF543F30E509541FFEE493A360010ED7
:1039A300CF54C025E060A840B8E493A3FAE493A3FE
:1039B300F8E493A3C8C582C8CAC583CAF0A3C8C51F
:1039C30082C8CAC583CADFE9DEE780BE7F187EC628
:1039D300123C8990035FE4F0A3747BF0900361E4ED
:1039E300F0A3E4F07B7B7A007D057C007F057E00FD
:1039F300122CE97BFF7A46790E90024C7408F09002
:103A0300024D74F8F0A3E4F07D107F211229F47BBA
:103A1300FF7A46791790024C740CF090024D74F8BB
:103A2300F0A3E4F07D307F0D1229F47BFF7A467911
:103A33002490024C740BF090024D74F8F0A3E4F060
:103A43007D407F0D1229F490000174FFF022900055
:103A5300017408F07F187EC6123C897BFF7A467991
:103A63006F90024C740BF090024DE4F0A3E4F07DF0
:103A7300087F081229F49002EFE0FD7F0212360F4F
:103A830090035FE4F0A37419F0900361E4F0A3E4FE
:103A9300F07B7E7A007D077C007F5F7E00122CE93D
:103AA3007BFF7A46797B90024C740BF090024DE4D5
:103AB300F0A3E4F07D1C7F081229F49002F1E0FDED
:103AC3007F0312360F224101190041011C004100FE
:103AD300010041011D0041011E0041011F00410180
:103AE3002000410121004101220041012300410145
:103AF3002400410125004101260041012700410125
:103B030028004101290041012A0041012B00410104
:103B13002C0141012D0041012E0041012F004100E4
:103B230000004403D500000000410404884104055B
:103B3300884104060041039F00009002BBEFF09010
:103B430002BC121FB19002BFE0FFEF2402FF9002FC
:103B5300C1EFF09002C27480F09002BBE0FF9002CC
:103B6300C3EFF09002C0E4F09002BFE0FF9002C008
:103B7300E0FEEEC39F502D9002BC121FA8121D9EA3
:103B8300FF9002C0E0FE74C42EF582E43402F58394
:103B9300EFF09002BDE475F001121E089002C0E040
:103BA30004F080C47B017A0279C112321C22C0E086
:103BB300C083C082C0D075D000C006C007E59A306C
:103BC300E108539AFD90027CE4F0E59A30E03F531C
:103BD3009AFE90027BE4F0900278E0FF747D2FF56B
:103BE30082E43402F583E59BF090027AE004F090DE
:103BF3000278E0FF7E00C3EF941FEE648094805050
:103C030008900278E004F08005900278E4F0D00791
:103C1300D006D0D0D082D083D0E0329003E9121FF7
:103C23006B1245FBC2A27F201241B99003E9121F18
:103C330053EF5400FFEE5400FEED54FFFDEC54002F
:103C4300FC7810121F2D1241B99003E9121F53EF94
:103C53005400FFEE54FFFEED5400FDEC5400FC78DD
:103C630008121F2D1241B99003E9121F53EF54FF9D
:103C7300FFEE5400FEED5400FDEC5400FC1241B97C
:103C8300D2A2120016229003E1EEF0A3EFF090030C
:103C930095E4F0A37484F07B827A007D007C007F3E
:103CA300007E00123D5D9003E3E4F09003E3E0FF48
:103CB3007E00C3EF9482EE6480948050329003E4DC
:103CC300E4F09003E4E0FF7E00C3EF9484EE6480AD
:103CD300948050139003E1E0FEA3E0FF1244BC90F4
:103CE30003E4E004F080DB9003E3E004F080BC2213
:103CF3009002E07401F09002E3E4F09002F07404A7
:103D0300F09002E17401F09002E47401F09002E596
:103D13007401F09002E67401F09002E77401F090F0
:103D230002E87401F09002E27401F09002E9E4F019
:103D33009002EAE4F09002EB7419F09002EC743212
:103D4300F09002ED744BF09002EE745AF09002EF93
:103D53007401F09002F17401F02290038FEEF0A34E
:103D6300EFF0900391ECF0A3EDF0900393EAF0A34E
:103D7300EBF07F2A1200467F0012457590038FE017
:103D8300FEA3E0FF1245757F00124575900393E093
:103D9300FEA3E0FF1245757F2B1200467F001245FC
:103DA30075900391E0FEA3E0FF1245757F00124575
:103DB30075900395E0FEA3E0FF1245757F2C12007A
:103DC30046227B017A0279E09003B3E4F0A37412F4
:103DD300F07F007E00123F3C9002E2E0FF7E00D3C2
:103DE300EF9405EE6480948050369002E3E0FF7E0A
:103DF30000D3EF9401EE6480948050249002E1E0BC
:103E0300FF7E00D3EF9401EE648094805012900201
:103E1300EFE0FF7E00D3EF9401EE648094804006D0
:103E2300123CF3124557229003E5EFF09003E6EDC1
:103E3300F09003E7EAF0A3EBF09003E5E0FF7E00E8
:103E4300C006C0079003E6E0FFEFFD7C009003E5AA
:103E5300E0FF7E00EF2401FBEE3400FA9003E6E07E
:103E6300FF7E00EF2401FFEE3400FE900395EEF099
:103E7300A3EFF0D007D006123D5D9003E7E0FEA369
:103E8300E0FF1244BC22C0E0C0F0C083C082C0D0B7
:103E930075D000C000C001C002C003C004C005C08B
:103EA30006C007E58430E1085384FD900010E4F078
:103EB300E58430E0115384FE900419E585F0900405
:103EC30019E0FF121FE0D007D006D005D004D003BD
:103ED300D002D001D000D0D0D082D083D0F0D0E0B7
:103EE300329003A7EEF0A3EFF09003A9121FB19055
:103EF30003ACE0FEA3E0FFD3EF9400EE6480948074
:103F030040369003A7E0FEA3E0FF9003A9121FA889
:103F1300121D9EFD1242429003AAE475F001121E87
:103F2300089003A7E475F001121E089003AC74FF18
:103F330075F0FF121E0880B7229003AEEEF0A3EFD8
:103F4300F09003B0121FB19003B3E0FEA3E0FFD3E0
:103F5300EF9400EE6480948040369003AEE0FEA3BD
:103F6300E0FF1242849003B0121FA8EF121DE490E9
:103F730003B1E475F001121E089003AEE475F0017D
:103F8300121E089003B374FF75F0FF121E0880B76A
:103F9300229003F1E4F07B007A0079F19003F212AE
:103FA3001FB19003F1E4F09003F1E0FF7E00C3EF53
:103FB3009407EE64809480502D9003F2121FA89012
:103FC30003F1E0FF8F82758300121DB7FF9003F1A9
:103FD300E0FE74A02EF582E43403F583EFF0900342
:103FE300F1E004F080C122900416EFF0900416E093
:103FF300FF9002E2E0FEEE6F60419002E2E0FF908C
:1040030002E2E0FE74E42EF582E43402F583E0FD7F
:104013007B001224479002E2E0FF7D00122E0E90F7
:104023000416E0FF9002E2EFF09002E2E0FF7D0170
:10403300122E0E9002E3E0FF1242C52290040DEF10
:10404300F090040EE4F090040E7408F090040EE077
:10405300FF7E00D3EF9400EE64809480402B9004A5
:104063000DE0FFEF30E704D2938002C29300C292C7
:1040730000D29290040DE0FFEF25E0FF90040DEFD6
:10408300F090040EE014F080C322900412E4F09048
:104093000411E4F0900411E0FF7E00C3EF9408EEF6
:1040A30064809480502BC2A5900412E0FFEF25E0BA
:1040B300FF900412EFF0D2A530A40E900412E0FF9B
:1040C300EF4401FF900412EFF0900411E004F0803C
:1040D300C3900412E0FF22C0E0C0F0C083C082C0DE
:1040E300D075D000C000C001C002C003C004C00529
:1040F300C006C0077F057E001243ED20B70930B329
:10410300069004067401F0D007D006D005D004D081
:1041130003D002D001D000D0D0D082D083D0F0D051
:10412300E032C0E0C0F0C083C082C0D075D000C010
:1041330000C001C002C003C004C005C006C0077FA1
:10414300057E001243ED20B30930B70690040674D0
:10415300FFF0D007D006D005D004D003D002D001A1
:10416300D000D0D0D082D083D0F0D0E03290000104
:104173007409F090035FE4F0A37419F09003617481
:10418300C6F0A37418F07B7E7A007D077C007F5F06
:104193007E00122CE990035FE4F0A3742DF09003EA
:1041A30061E4F0A3E4F07B7E7A007D1B7C007F5FFB
:1041B3007E00122CE922900413EFF0900414E4F033
:1041C300900414E0FF7E00C3EF9408EE64809480B3
:1041D3005029900413E0FFEF30E704D2A38002C21A
:1041E300A3C2A5D2A5900413E0FFEF25E0FF90043E
:1041F30013EFF0900414E004F080C5229002F2EF74
:10420300F09002F3EDF09002F4EBF09002F57404F9
:10421300F09002F67480F09002F2E0FF9002F7EF64
:10422300F09002F3E0FF9002F8EFF09002F4E0FF69
:104233009002F9EFF07B017A0279F512321C229099
:1042430003FEEEF0A3EFF0900400EDF075C7807568
:10425300F52175C5029003FEE0FEA3E0FF8FC49035
:1042630003FEE0FEA3E0FFEEFF3395E0FE8FC39075
:104273000400E0FF8FC275C65A75C6A5001245DF5C
:10428300229003FBEEF0A3EFF075C78075F521755F
:10429300C5019003FBE0FEA3E0FF8FC49003FBE0A6
:1042A300FEA3E0FFEEFF3395E0FE8FC375C65A759C
:1042B300C6A5009003FDE5C2F01245DF9003FDE0C3
:1042C300FF22900415EFF0900415E0FF7E00EF4EFF
:1042D300700590012FE4F0900415E0FF9002E3EFE6
:1042E300F09002E2E0FF9002E2E0FE74E42EF58239
:1042F300E43402F583E0FD9002E3E0FB122447225D
:104303009003C1121FB19003C4EDF09003C5E4F014
:104313009003C4E0FF9003C5E0FEEEC39F501C90E2
:1043230003C1121FA8E4121DE49003C2E475F00157
:10433300121E089003C5E004F080D522C0E0C0F04F
:10434300C083C082C0D075D000C000C001C002C00D
:1043530003C004C005C006C00712221BD007D00645
:10436300D005D004D003D002D001D000D0D0D08269
:10437300D083D0F0D0E032D2A6D2A7D280D281D2DD
:10438300B2D2B3C2B6D2B7D2A0C2A175940075930C
:104393000075920075910075962E75950075B24063
:1043A30075B10075CA1075C900D28AD2AA758F205B
:1043B30022900013E0FF90011CEFF0900016E0FF45
:1043C30090011AEFF0900018E0FF90011BEFF090BE
:1043D3000013E0FF7E00EF64804E700790011974B4
:1043E30001F0229001197402F022900407EEF0A369
:1043F300EFF0900407E0FEA3E0FFEF25E0FFEE33CC
:10440300FE900407EEF0A3EFF090040774FF75F03D
:10441300FF121E08AFF0FEEF4E600543C11080E9A6
:104423002290040BEEF0A3EFF075C78075F52175AC
:10443300C50390040BE0FEA3E0FF8FC490040BE0E0
:10444300FEA3E0FFEEFF3395E0FE8FC375C65A75FA
:10445300C6A5001245DF22900321EFF0900322ED61
:10446300F09003237403F09003247481F0900321EC
:10447300E0FF900325EFF0900322E0FF900326EF87
:10448300F07B017A03792312321C22900409EEF0A7
:10449300A3EFF0900409E0FEA3E0FFD3EF9400EE56
:1044A300940040147F907E011243ED90040974FF41
:1044B30075F0FF121E0880DB22900401EEF0A3EFDB
:1044C300F0900403E4F0C2B5D295900401E0FEA39A
:1044D300E0FFEEFF7E0012403F900401E0FEA3E008
:1044E300FF12403FD2B52275BA8090FE0374C0F02C
:1044F30090FE03E0FFEF20E00543C11080F290FE41
:1045030001E4F090FE007401F075BA0022439A10A2
:1045130075D7A275D6FC438E1443AF017B017A0293
:1045230079787D251243037B017A0079027D0D1290
:1045330043032275841043844043D12075D3B87557
:10454300D2FF43D18043AF107B017A00790F7D0AFC
:10455300124303227F007E001244247B017A0279F6
:10456300E09003ACE4F0A37412F07F007E00123EEF
:10457300E42290040FEFF0900410E4F0C2B5D2955A
:1045830090040FE0FF12403FD2B52290041BEFF0DE
:1045930090041BE0FF7E00EF64014E7003D2B4224F
:1045A300C2B422538E7F5389F0758A00758C28D24A
:1045B300A9C28DD28C2290012AE0FF7E00EF4E70BB
:1045C300041239CF221215AB22C2947F647E0012EB
:1045D300448ED2947F647E0012448E2275C7007588
:1045E300C50075C60075C38075C40022C2A07F6470
:1045F3007E0012448ED2A022C2A27F061241B9D2FB
:10460300A222D2A2D2A5D2A3D2A4225761726E6EE5
:10461300696E670044726976657220626F617264C5
:1046230000646973636F6E6E65637421004C454467
:10463300204E756D6265723A004D6F746F725374DC
:1046430065703A004C454431204C6F743A004C4538
:104653004432204C6F743A004C454433204C6F7401
:104663003A004C454434204C6F743A0044726976E6
:1046730065722046616E3A00507572706C656C61AC
:104683006D703A0000000000000000000000000010
:104693000000000000000000000000000000000017
:1046A3000000000000000000000000000000000007
:1046B30000000000000000000000000000000000F7
:1046C30000000000000000000000000000000000E7
:1046D30000000000000000000000000000000000D7
:1046E30000000000000000000000000000000000C7
:1046F30000000000000000000000000000000000B7
:10470300000000000000001808C8080800000000AE
:104713000000000000007F6060606060606060E037
:104723006020000000000000000000000000000006
:1047330000000000000018181810101000000000FE
:104743000000000000000000000000000808080C42
:104753000C0C00000000000000000000000000003E
:104763000000000000006C3810007CC6701CC67C82
:1047730000000000000010386C00780C7CCCCC7674
:10478300000000000000000000007CC670C0C67C72
:10479300000000000000000000006C967CD0D66C86
:1047A300000000000000000000007CC60606C67C76
:1047B30000000000000000386CC6C6FEC6C66C3898
:1047C3000000000000000000001038286C44C6C63A
:1047D300000000000000000000007CC606FEC67C4E
:1047E30000000000000000000000DC666666F606BC
:1047F30006663C000000006C38F80C7EC6C6C67C1A
:10480300000000000000000E1B18181818181818D4
:10481300D87000000000000000FE860C180C06068D
:10482300C67C0000000076DC0000780C7CCCCC76E3
:1048330000000000000076DC00007CC60606C67C93
:1048430000000000000076DC0000DC666666666639
:104853000000000000000000000076999F98996F07
:104863000000000000000000000000000000000C39
:1048730006060000000000000000000000003C6687
:10488300663C000000000000000000000000000083
:1048930000000000000000183C3C3C1818001818E9
:1048A300000000000000C6C6C6440000000000006F
:1048B300000000000000006C6CFE6C6C6CFE6C6C05
:1048C300000000000018187CC6C2C07C0686C67CA7
:1048D300181800000000000000C3C60C183063C3A2
:1048E30000000000000000386C6C3876DCCCCC761D
:1048F30000000000000030303060000000000000C5
:104903000000000000000018306060606060301834
:1049130000000000000000180C06060606060C182E
:104923000000000000000000006C38FE386C00003E
:1049330000000000000000001818187E1818180066
:10494300000000000000000000000000001818181C
:104953003000000000000000000000FE0000000026
:104963000000000000000000000000000000181814
:104973000000000000000002060C183060C0800038
:10498300000000000000007CC6CEDEF6E6C6C67C52
:104993000000000000000018387818181818187E56
:1049A300000000000000007CC6060C183060C6FE44
:1049B300000000000000007CC606063C0606C67C1C
:1049C300000000000000000C1C3C6CCCFE0C0C1E14
:1049D30000000000000000FEC0C0C0FC0606C67C4C
:1049E300000000000000003860C0C0FCC6C6C67CE2
:1049F30000000000000000FEC6060C183030303006
:104A0300000000000000007CC6C6C67CC6C6C67C8B
:104A1300000000000000007CC6C6C67E06060C78B7
:104A23000000000000000000181800000018180023
:104A330000000000000000001818000000181830E3
:104A430000000000000000060C18306030180C064F
:104A5300000000000000000000007E00007E000057
:104A6300000000000000006030180C060C183060D5
:104A7300000000000000007CC6C60C1818001818BF
:104A8300000000000000007CC6C6DEDEDEDCC07C69
:104A93000000000000000010386CC6C6FEC6C6C683
:104AA30000000000000000FC6666667C666666FC2B
:104AB300000000000000003C66C2C0C0C0C2663CEB
:104AC30000000000000000F86C66666666666CF81D
:104AD30000000000000000FE66626878686266FEFF
:104AE30000000000000000FE66626878686060F005
:104AF300000000000000003C66C2C0C0DEC6663A8B
:104B030000000000000000C6C6C6C6FEC6C6C6C674
:104B1300000000000000003C181818181818183C72
:104B2300000000000000001E0C0C0C0C0CCCCC7818
:104B330000000000000000E6666C6C786C6C66E6B2
:104B430000000000000000F060606060606266FECC
:104B530000000000000000C6EEFED6C6C6C6C6C6EC
:104B630000000000000000C6E6F6FEDECEC6C6C6A4
:104B730000000000000000386CC6C6C6C6C66C380C
:104B830000000000000000FC6666667C606060F068
:104B9300000000000000007CC6C6C6D6DE7C0C0EFA
:104BA30000000000000000FC6666667C6C6666E63A
:104BB300000000000000007CC6C660380CC6C67C3E
:104BC300000000000000007E5A1818181818183C3E
:104BD30000000000000000C6C6C6C6C6C6C6C67C26
:104BE30000000000000000C6C6C6C6C6C66C38106A
:104BF30000000000000000C6C6C6C6C6D6FEEEC64C
:104C030000000000000000C6C6C66C386CC6C6C6ED
:104C130000000000000000C6C6C66C383838387C77
:104C230000000000000000FEC68C183060C2C6FE03
:104C3300000000000000003C303030303030303CA9
:104C43000000000000000080C0E070381C0E060267
:104C5300000000000000003C0C0C0C0C0C0C0C3C85
:104C6300000000000010386CC600000000000000C7
:104C73000000000000000000000000000000000031
:104C830000FE0000000030301800000000000000AB
:104C930000000000000000000000780C7CCCCC7603
:104CA30000000000000000E06060786C666666DC6F
:104CB300000000000000000000007CC6C0C0C67CED
:104CC300000000000000001C0C0C3C6CCCCCCC762B
:104CD300000000000000000000007CC6FEC0C67C8F
:104CE300000000000000001C3632307C3030307889
:104CF3000000000000000000000076CCCCCC7C0C4F
:104D0300CC780000000000E060606C76666666E6C2
:104D13000000000000000018180038181818183C8C
:104D2300000000000000000606000E0606060666E8
:104D3300663C0000000000E06060666C786C66E62C
:104D43000000000000000038181818181818183C44
:104D53000000000000000000000044FED6D6D6D6B6
:104D630000000000000000000000DC666666666666
:104D7300000000000000000000007CC6C6C6C67C20
:104D830000000000000000000000DC6666667C6036
:104D930060F0000000000000000076CCCCCC7C0C5E
:104DA3000C1E0000000000000000DC76666060F06E
:104DB300000000000000000000007CC6701CC67CE0
:104DC30000000000000000103030FC303030361C92
:104DD30000000000000000000000CCCCCCCCCC765E
:104DE30000000000000000000000C6C6C66C3810BA
:104DF30000000000000000000000C6C6C6D6FE6C1E
:104E030000000000000000000000C66C38386CC6CB
:104E130000000000000000000000C6C6C6C67E06F3
:104E23000C780000000000000000FECC183066FE85
:104E3300000000000000000E181818701818180E53
:104E4300000000000000001818181800181818189F
:104E530000000000000000701818180E18181870D1
:104E63000000000000000076DC00000000000000ED
:104E7300000000000000000000000000000000002F
:104E8300000000000000000000000000000000001F
:104E9300000000000000000000000000000000000F
:044EA300000000000B
:00000001FF
